S0140000525574686C6573735F4543552E737265639A
S214080000A8410720E5070800E1070800E1070800FF
S214080010E1070800E1070800E10708000000000003
S214080020000000000000000000000000E1070800D3
S214080030E107080000000000E1070800E1070800E3
S214080040E1070800E1070800E1070800E1070800E3
S214080050E1070800E1070800E1070800E1070800D3
S214080060A5180800E1070800000000000D100800A9
S214080070E1070800E1070800E107080000000000A3
S21408008000000000E1070800E1070800E107080093
S214080090E1070800E1070800E1070800E107080093
S2140800A0E107080000000000E1070800F515080051
S2140800B0091608001D16080031160800451608001F
S2140800C0591608006D1608008116080095160800CF
S2140800D0E1070800510A0800E1070800E1070800E0
S2140800E0E1070800E1070800E1070800E107080043
S2140800F0E107080010B5054C237833B9044B13B153
S2140801000448AFF300800123237010BD2C09072094
S214080110000000007C2C0800084B10B51BB10849ED
S2140801200848AFF300800848036803B910BD074BBA
S214080130002BFBD0BDE81040184700BF00000000A9
S214080140300907207C2C08007C2C080000000000E2
S2140801507FB550238DF81430030A8DF80430022337
S214080160029301238DF805000391049301A9044B1B
S21408017004489847003018BF012007B05DF804FB14
S21408018045070800000009407FB550238DF8143055
S214080190030A8DF8043002238DF8050002930491B3
S2140801A0054B01A9054803929847003018BF01205F
S2140801B007B05DF804FB00BF4507080000000940CB
S2140801C030B501240460520040F20224B1FBF2F17B
S2140801D000254560C0F82041C0F80451C0F8145105
S2140801E044684A1E1202234392B21A4342602846C3
S2140801F030BD436823F010034360436819434160E9
S21408020070474368D201D2B2194311434160704720
S21408021010B54468090601F0706122431B070A43BB
S21408022003F040531343436010BD02230360704736
S214080230012303FA01F101617047036C43F08073F0
S214080240036470474162704770B50F480F4CA0476B
S2140802503E2100200E4B98470E4DA8470028FCD09C
S2140802600D4B98470D4A0E4B0E4D9A62A84700282C
S214080270FCD00D4B102098470C4B98472346BDE8FA
S21408028070400148184700BF00BD010589000720D7
S21408029059050800A9050800B9050800013F0D2002
S2140802A000060E40C9050800150508006508080080
S2140802B0184B4FF4004210B50B205A60164CA04756
S2140802C00C20A0470D20A0470E20A047134C4FF047
S2140802D060513B20A0474FF060515520A0474FF093
S2140802E060515620A0470E496820A0470D495C205B
S2140802F0A0470D4B0D4A4FF440710D4898474FF0F4
S21408030000612B20A0472346BDE810404FF000614F
S2140803102A201847501A0E40D9050800C5030800B9
S21408032079000028010000288D0408000100000854
S214080330000E0E4041637047B1F1805F426414D0EE
S21408034009D8B1B1B1F1006F12D1016F036F0B403C
S21408035023EA02030BE0B1F1405F0AD0B1F1605F17
S21408036007D0B1F1205F03D17047036F13430367CB
S21408037042607047D30741644CBF4166016612F07D
S2140803800A0F14BF01624162930702D5C0F88010B5
S21408039003E0130748BFC0F8841041610160704746
S2140803A010B5029C41640CB1416600E001660BB1D1
S2140803B0016500E041650AB1016300E0416301613F
S2140803C0016010BDF7B545090E4605F5001501F0A4
S2140803D0F04105F20775B1F1205F4FEA45252CD0AC
S2140803E015D8B1F1006F19D0B1F1805F44D100F093
S2140803F01F01012000FA01F169642B6FF40743EA34
S21408040001032B6769604CBF6966296635E0B1F160
S214080410405F1CD0B1F1605F19D02DE000F01F04DA
S214080420012707FA04F428462246154B9847F6078C
S2140804304CBF6C662C6638461FE000F01F0101248E
S214080440324604FA01F128460E4B984712E006F0A9
S214080450605200F01F01012402F1484006EA040336
S214080460424200934241C6F38003284604FA01F14B
S214080470054DA847204600E0002003B0F0BD00BFA9
S2140804803903080075030800A103080002F0F043CA
S214080490B3F1205F73B504460D4616461CD00BD83C
S2140804A0B3F1006F0FD0B3F1805F29D16164036F99
S2140804B00B43036761600AE0B3F1405F10D0B3F105
S2140804C0605F0DD01CE00A4619460F4B9847F007A8
S2140804D04CBF6566256601E00C4B9847012010E086
S2140804E006F0605202F1484106F001034A420093C2
S2140804F04A412046C6F380032946054CA047EDE747
S214080500002002B070BD00BF39030800750308005C
S214080510A10308000F4B1A6B22F07002104340F636
S21408052001021863986E0B49000703D4013AF9D103
S214080530012070470A6B22F0030242F002020A63A7
S21408054040F60102996E090702D4013AFAD1EFE79C
S2140805500020704700060E4010B5104C30B1236AD4
S2140805600F4A1A400F4B1343236210BD226A090232
S21408057022F45C1323F0030343F45C1389B243F0BC
S21408058001030B432362A36E044ADB07FBD5136AF9
S21408059043F09B7343F48033136210BD00060E408D
S2140805A0FCFFC8FE02003701024B986E00F480304C
S2140805B0704700BF00060E40024B4FF000529A628A
S2140805C0704700BF00060E40024B986E00F002000F
S2140805D0704700BF00060E402C2817D81F280D4A63
S2140805E04FF0010307D8916903FA00F030EA0103D7
S2140805F00ED010610CE02038D2F8081103FA00F08B
S21408060030EA010304D0C2F8000101E00120704777
S2140806100020704700060E4010B5890102244318D2
S21408062044504FF0FF319962196A5A6010BD89012B
S21408063005234350704700EB81114A61704700EB71
S2140806408111CA61704700EB81114A627047000049
S214080650204B10B599423BD8A3F57A53994220D936
S2140806601D4B1E4C0B449B00B2FBF4F4B2FBF3F29A
S214080670043C043A0023FF2C08D9072B06D0013384
S2140806806408F8E7072B03D001335208FF2AF9D885
S21408069012021B0492B203F4E0231A43E4B2224384
S2140806A013E04900B2FBF1F20023043AFF2A04D90A
S2140806B0072B02D001335208F8E711021B0489B24F
S2140806C003F4E0230B43D2B21A430261002010BDA4
S2140806D0012010BD801A06000012FD3F00B80B006E
S2140806E038B54FF0FF338362036A80230360036BD9
S2140806F00823036020230360042303600D460A686A
S214080700064B496804469847431E584258416B7A38
S214080710012B04BF4023236038BD00BF51060800E4
S21408072059B1012903780ADD4278022942EA0323EF
S21408073005D0807840EA0320704708467047184678
S21408074070470000F8B5CD6804460846002D3ED030
S21408075000268F6866604B681B0203F4407343F4F8
S21408076080520B7C1B0403F4FE0313436360E660AD
S21408077049681A4B9847012DE06006D10323236089
S2140807802B4643F69822022613E0012323603346BD
S214080790F7E702B3012D11D0890743BF226B05F195
S2140807A0FF353A7002F1FF3244BF013743F698220C
S2140807B045B1216A11F48070EBD00AE003B92660CF
S2140807C02B46E9E7236ADB07FCD5236AF8BD012038
S2140807D0F8BD0520F8BD0920F8BD00BF21070800B0
S2140807E0FEE7000008B5164A164B9A4202D0043AAD
S2140807F0154903E0154B164A002106E08B42F9D24C
S21408080052F8040F43F8040BF8E7934202D243F871
S214080810041BFAE70F4B104A23F0604121F07F01D2
S21408082003F16043B3F5801F91603EBF936843F0C1
S21408083000539360094B9847094B9847FEE700BF5B
S2140808407C2C0800000007202C0907202C0907200C
S214080850A82107200000080000ED00E0ED220800AF
S2140808603D19080010B52C4A136B03F00303012B3F
S2140808702A4B0DD003D3116ACC011AD525E0284996
S214080880496908064CBF4FF400414FF4FA4130E07E
S214080890116AC9010BD423491960116A01F0700165
S2140808A0102902D0202902D024E01F4921E01F4940
S2140808B01FE01C491960116A01F07001102902D066
S2140808C0202902D003E0184900E018491960116B86
S2140808D0114801F00301022901BF816A806AC1F349
S2140808E00A44196803BFC0B204FB0111B1FBF0F15A
S2140808F00F491960126B02F07002702A03BF1A685B
S2140809000321B2FBF1F2044A1FBF126BC2F30211B5
S2140809101A68CA401A6010BD00060E40EC00072090
S214080920101A0E4000093D0000127A00001BB7009E
S214080930001C4E0E074B1A680AB9074A1A601B684D
S214080940064A18448242A3BF024A106018464FF06F
S214080950FF30704748090720A8410720FC7F082079
S214080960F8B52520184B9847184C4FF48023184A9A
S21408097018491948A04701234FF44012194616484B
S214080980164CA04710211448154B984700221146CC
S2140809901148144B9847144B0F48984700231A469B
S2140809A0124F134C134D062606FB03F0062B04EBDA
S2140809B0000198BFFA5422524A808A80EA540133CA
S2140809C00F2BF1D1F8BD00BFD9050800C1010800FA
S2140809D040420F00007A030A00000C40110208008B
S2140809E0F3010800030208003B020800DA1C07208F
S2140809F0EE170720511807202DE9F0470F46164630
S214080A00DFF84490DFF84480451E002415F8011FDF
S214080A100A48C8472B7808F804300134072CF5D163
S214080A2057B14FF080710548054B98473146BDE8E9
S214080A30F0472520034B1847BDE8F08700000C4018
S214080A4045020800450F080031020800DA1C072096
S214080A5010B50E4B0E481B6A9BB2190B425C01EB95
S214080A60410422440B4CC3F30B0324F81230435CB6
S214080A700322013393FBF2F202EB42029B1ADBB22B
S214080A804354054B01221A7010BD00BF00000C40ED
S214080A9051180720EE170720D91C07202DE9F84320
S214080AA0484D2B78002B00F08B80474C474A23682C
S214080AB012685B0803EB43039342454B4ED2454A04
S214080AC000271F801378444E83F001031370434BAE
S214080AD0984733684FF4B472B3FBF2F3B0FBF3F005
S214080AE0DFF82081C0F1500080B2A8F80000B8F8FE
S214080AF00000DFF81491C0B2C847394BC0F10B00AC
S214080B00C0B218706120374B9847B8F80000364BCB
S214080B1080B29847354B9847B8F80000DFF8F08061
S214080B20C0B2C047236800EB9300314B18605020D2
S214080B30C847304BC0F10B00C0B218705020C047F1
S214080B40236800EB93002C4B186032682B4BB3FBE2
S214080B50F2F32B4A9BB2D38137602FE01B889BB2F7
S214080B600C2B2BD1274E284F3088DFF8B080C0B228
S214080B70B847264BC0F11700C0B218703088244E0C
S214080B80C0B2B047236800EB9300C8F80000154BC6
S214080B9065209847D8F80000134B9847134B98479A
S214080BA05020B8471B4BC0F11700C0B21870502031
S214080BB0B047236800EB9300174B186000232B7090
S214080BC0BDE8F8839421072088210720E00907203C
S214080BD0E2200720D81C072094090720F90E0800F1
S214080BE084210720191808002D1808007118080015
S214080BF084090720C41C0720A02107206042630937
S214080C00BA1307209C210720750E0800E913072051
S214080C10910E0800501807204C180720781C07204B
S214080C201FB5104B172098470F4B4FF400524FF440
S214080C30805159645A6459605A60186F20F480507D
S214080C401867186F20F40050186759665A66074BDD
S214080C5001A90193064B07480293074B984705B02E
S214080C605DF804FBD905080000100E4000BD01051C
S214080C70801A060000000940E1060800F7B5064697
S214080C8002AD00230E4F05F8013D0A2429463046DA
S214080C90B847C30702D49DF807000FE0013C14F0DC
S214080CA0FF04F3D1074D01240748084BEC77984713
S214080CB0E87F074B9847074B9847204603B0F0BD98
S214080CC051010800BA130720282C08007D180800D0
S214080CD02D180800711808000022104670B5224E1C
S214080CE0224C550101327119042A70511E4B486076
S214080CF08860C8604C61CC61F3D11D4ADA634FF452
S214080D0000221A614FF400021A634FF400321A6583
S214080D104FF000721A674FF08042C3F890204FF0E9
S214080D200052C3F8B0204FF08052C3F8D0204FF0DE
S214080D300062C3F8F02002229A6101229A63082210
S214080D409A6520229A674FF40052C3F898208022AA
S214080D50C3F8B8204FF40042C3F8D8204FF4007206
S214080D60C3F8F82070BD00BFE80D072000120E403B
S214080D7000140E40254A002310B51360244A322179
S214080D801360244A244C1180244901220A802449ED
S214080D9024480A8024490B6024490B6024490B60C8
S214080DA024490B6024490B6024490A80244A4221BE
S214080DB01370244A1370244A1360244B0C221A70AA
S214080DC041F28832A04741F2504240212048A047CD
S214080DD041F2185240211F48A0474FF4AF52402115
S214080DE01D48A04741F2A862A0211C48A04741F22E
S214080DF07072C0211A48A04722211A481A4B9847F1
S214080E001A4B9847BDE81040194B1847DC090720CD
S214080E10801C072060180720F113080048180720D0
S214080E207C1C0720380F0720E009072088210720A8
S214080E308809072080090720DC130720E2200720FE
S214080E4094210720D81C07209409072096210720FC
S214080E507A0F072098090720841C0720E42007201B
S214080E60780E0720BA13072001140800D1140800CA
S214080E70D90C08006422C0F1B40002FB00F3B420C9
S214080E8093FBF0F00C23584390FBF2F080B27047C7
S214080E9010B50C4B014698474FF47A74C1F1B4016B
S214080EA06143094B1A68B42391FBF3F10C235943A9
S214080EB0A3F57D73611A03FB10105043B0FBF4F0E2
S214080EC010BD00BF750E08008821072013B5064B15
S214080ED006495A7A06230093054C01230548A0477D
S214080EE0C0B202B010BD00BFBA1307209A0F072081
S214080EF061120800A709072010B50F4B98470F4A3C
S214080F000A21937BD47F5843642390FBF3F0614314
S214080F10884283B206DD117B890742BFD37F03EB85
S214080F2083035B0046F28A60D9B24343044A6420CE
S214080F30D17093FBF0F010BDCD0E08007A0F072095
S214080F40BA13072042B2C0B210B5012300F01F043E
S214080F5003FA04F45309002A4FEA83034FEA0111FF
S214080F60A8BF02F1604203F16043B8BF094A03F51F
S214080F706143B9BF00F00F00C9B2C9B202F56142B9
S214080F80C3F88040C3F88041B4BF115482F80013F8
S214080F901C6010BD14ED00E070B51E46A0F10B03F2
S214080FA0032B0D4627D80124134B84400D281C61BB
S214080FB008D00E2808D0114C03F500630C2818BF7B
S214080FC01C4602E00E4C00E00E4C256411460E4B03
S214080FD09847012E02D0022E07D070BDC4F8B05034
S214080FE0C4F8C050C4F8D45070BDC4F8B050C4F8A3
S214080FF0C050C4F8D05070BD00060E4000100E4019
S21408100000120E4000140E40450F080070B5404B05
S214081010D3F8901003F5B12303F5C063D86C020625
S2140810206AD53C4B3C4A1C6814603C4C22688A1AB9
S2140810301A603B4A21601C68136823441360394AC7
S214081040394C138801339BB2138001232370374C25
S21408105025781488A4B2A5420DD1354C354D237099
S214081060354B1B780BB9354C00E0354C26692B6898
S2140810703344636117E0334C25781488A4B2A5423C
S21408108011D1314C314D23702B4B1C782B4B24B986
S2140810901E6D2C6834445C6505E0D3F890602C68B7
S2140810A03444C3F894402A4B1C7813889BB29C425D
S2140810B00BD1214B274C1B780BB9204A00E0204A5D
S2140810C0156923682B44536116E0234B1A78154B91
S2140810D01B889BB29A420FD1174B204C1A78174B95
S2140810E022B91D6D22682A445A6505E0D3F8905047
S2140810F022682A44C3F89420030408D5184A1948D5
S2140811001368CB1A03600C4B116001221A7070BD6D
S21408111000800840E009072088210720800907206A
S21408112094090720E220072094210720842107201D
S214081130E120072084090720D81C07200000084063
S21408114000400840E9130720E5090720781C072017
S214081150C41C0720A0210720501807204C18072079
S214081160DC130720880907204A4300EBA2207047B3
S214081170002AA3BF514391FBF3F3C0180020704721
S214081180F8B54B00083323F0070300AFADEB030DAB
S2140811906C4600239AB2914205D930F8132024F8F9
S2140811A013200133F6E701228A4213D2134604EBD2
S2140811B0430634F8135036F8020C854207D224F852
S2140811C01300013B9BB226F8025C002BEFD10132DC
S2140811D092B2E9E7084B08469847084D0022084BA4
S2140811E0A8470022064B074DA847074B984780B2EA
S2140811F034F81000BD46F8BDBD1D0800251B0800C4
S2140812000000E03F891E0800AD220800F0B506463B
S214081210BDF814E09DF81870341AE4B2A7420DD948
S21408122016F8015B05FB0EF5ADB28D4201D21470BF
S214081230F2E701D8F0D114701C70F0BDF0BD8842FA
S2140812400AD990424FF0640308D2401A5843521AFB
S214081250B0FBF2F0C0B270470020704718467047DF
S2140812602DE9F0431E46174685B09DF8302000232A
S2140812700C468DF80E30511E04AB03F8011D134DB5
S214081280019239460DF10E020096A8479DF80E8089
S2140812909DF80F5010F80810425D7143724389B2EA
S2140812A092B238460A4B984714F80830C0F16402E0
S2140812B05A43635D92B2584380B21044642390FB4D
S2140812C0F3F080B205B0BDE8F08300BF0D12080049
S2140812D03F1208002DE9F0410E4EDFF844800E4F0D
S2140812E00024A5B205F5587080B2B04708F8040087
S2140812F005F5EC6080B2B047385505F5366080B223
S214081300B047064B18550134B4F5806FE9D1BDE8EF
S214081310F08100BF7D0C080062180720E11C07203A
S214081320EC1307202DE9F843284E294D03213046B3
S214081330A847284B284C1B5C0321DBB206F10C009F
S214081340E371A847254B03211B5CB01DDBB2A371D4
S214081350A847234B234F1B5C0321DBB2A37206F17D
S214081360120097F83D80B7F83E90A8475FFA88F8CD
S2140813701FFA89F9024649464046DFF87080C0479A
S21408138080B2A0800321A6F11800A847C0F3870002
S2140813902072217A97F83B2097F83C3097F83B0064
S2140813A08A1A1B1A9BB2642100200F4FB847C0B296
S2140813B02076032106F13000A847A0210246002027
S2140813C0C047C0B26072BDE8F88300BF06180720A1
S2140813D081110800EC130720BA13072062180720AB
S2140813E0E11C0720380F0720711108006911080052
S2140813F0134602461846014B184700BF89010800E5
S214081400024610B50024131A9BB2994202D902F874
S214081410014BF8E710BD00002DE9F8430546104FCC
S21408142090000E461446B8474FF00008286044451A
S21408143008D03046D5F80090B84749F8280008F193
S2140814400108F4E73046B84768602046B8472E7368
S21408145004FB06666C733444A860EC81BDE8F88328
S2140814603D2308002DE9F04104460D46DFF83C8090
S2140814700023627B5F1CDBB29A42217B0B4E09D9A4
S21408148020682A4650F82300C047227B3B4615446E
S214081490ADB2EEE72A466068B047227B617B2A44F5
S2140814A0A0683346BDE8F04192B21847F113080029
S2140814B070B504461D46044B984729462046BDE8A5
S2140814C07040024B184700BF19140800651408003E
S2140814D010B51022094C114600230948A0471022CF
S2140814E011464FF490730748A0471022A446BDE85B
S2140814F010404FF41073114603486047B1140800B3
S214081500680E0720641C0720C81C072008282DE939
S214081510F84304468946174698462ED800F11B0617
S2140815203046174B9847022C05D9164B164D052CF6
S21408153088BF1D4600E0154D0323B4FBF3F303EB09
S2140815404303E41A4A4621462846114B9847414623
S2140815503046104B98473A46214628460E4B984741
S214081560084B0822C3F8A42021460C4B2846984767
S2140815700B4A002313700B4A1360BDE8F88300BFBC
S214081580D9050800008008400040084000000840D0
S21408159019060800450F0800470608002F06080029
S2140815A0E40907209821072010B500EB81110B6984
S2140815B00B6A5B0717D50C490C4B0878520100F0EC
S2140815C0FF0430B11A44536912691A6300230B707A
S2140815D010BD07491A4408785369126910B11A638E
S2140815E00C7010BD5A6310BDE1200720E80D0720D7
S2140815F0E5090720002211460148024B184700BF9C
S21408160000000840A9150800012211460148024BAF
S214081610184700BF00000840A91508000222114616
S2140816200148024B184700BF00000840A9150800EB
S214081630032200210148024B184700BF004008401B
S214081640A9150800042201210148024B184700BFCB
S21408165000400840A9150800052202210148024B4F
S214081660184700BF00400840A915080006220021B8
S2140816700148024B184700BF00800840A91508001B
S214081680072201210148024B184700BF0080084086
S214081690A915080070B51E48D0F89050D0F8A0409C
S2140816A066070BD51B4B02211A881B4B93FBF2F2DD
S2140816B01A4B2A4498471A481A4B9847210742BF9C
S2140816C0134A05F64123C2F89830E20609D505F60E
S2140816D04122154B02210E489847144A13680133D5
S2140816E01360E30713D5124B01221A70094B0A4AF6
S2140816F01B88022192FBF3F20548084B9847BDE881
S214081700704040F6412202210148074B184770BD39
S2140817100080084060180720E80D280037060800F3
S21408172000000C402B0208003F06080098210720FE
S214081730E4090720074BFF221A70074A0023137094
S214081740064A1370064A1370064A1370064A137040
S214081750704700BFD8090720952107208E09072063
S214081760631C0720741C0720621C07200A4B4FF4D2
S21408177080721A615022C3F800224FF40062C3F840
S21408178004222D22C3F820224FF6FF72C3F80C223B
S214081790024A034B1A60704700060E4000090E40C6
S2140817A0E413072010B50C2108200C4B984700239B
S2140817B019460B4C0B48E154C1540133B3F5806FFE
S2140817C04FF00002F7D1084B1A80084B1A80084BD6
S2140817D01A80084B1A80084B1A7010BD450F08006F
S2140817E0E6090720BA0F07208C090720900907206A
S2140817F0EA130720EC170720E013072008B50C218A
S214081800034B08209847034B01229A6008BD00BF87
S214081810450F080000080E40034A53699B07FCD58D
S214081820014BD861704700BF00080E402DE9F04113
S21408183005460D4CDFF83480012100230A27B5FB46
S214081840F4F606F13000C0B2302802D10BB90A29E6
S21408185001D1C047012301310B2904FB1655B4FBFF
S214081860F7F4ECD1BDE8F08100CA9A3B19180800D5
S2140818700A20014B184700BF1918080070B504461F
S214081880074D411E11F8010F08B1A847FAE70B1BD0
S214081890142BFADCBDE870402020014B184700BF27
S2140818A01918080030B51E4A1E4C5369218889B29B
S2140818B0B9B1980715D51C491C4D088880B2285C14
S2140818C0C0B2D0610888013080B208800D882088B0
S2140818D0ADB280B2854204D3002020800880022161
S2140818E0D160D9071AD513F0A003906904D00C4B21
S2140818F04FF480721A6030BD0D4AC0B2118889B2A2
S2140819004C1CA4B214800B4C6054118889B2B1F5F3
S214081910806F28BF1380084B01221A7030BD00BFA5
S21408192000080E40900907208C090720E6090720C2
S214081930EC170720BA0F0720E01307202DE9FF4110
S214081940554B9847554B00249847554B0D209847BC
S214081950544D2346224600944FF400215248A84787
S2140819602346224600944FF400014F48A8472346D2
S214081970224600944FF400314B48A8472246234697
S21408198000944FF000714848A847484D4FF400218E
S2140819904548A8474FF400014348A8474FF400318C
S2140819A04148A8474FF000713F48A847404B984722
S2140819B0404B9847404B9847DFF858813F48404F80
S2140819C0C047B8473F4B98473F4B98473F4B9847C9
S2140819D03F4B012118689A889B790290ADF80C2035
S2140819E08DF80E300A2202A83A4B98473A483B4BE5
S2140819F098473B4D0923152248F202010820A847BC
S214081A00384B394A1B88022192FBF3F23748384B89
S214081A10984740F6412202213448364B9847364BC1
S214081A209847364B9847364E2246012380210B208E
S214081A30B0472246022380210B20B04722460223C5
S214081A404FF400410B20B047204601231D2248F2E0
S214081A500241A84702231D2248F202410120A84756
S214081A6003231D2248F202410220A84704231D2210
S214081A7048F202410320A8472248C047B847224CEC
S214081A80224DA0472B78002BFBD0204B00221A7043
S214081A901F4B9847F5E700BF49020800B102080047
S214081AA0D9050800A103080000120E4035030800F7
S214081AB06D170800FD170800A51708003A2C08003F
S214081AC071180800210C0800750D08006109080047
S214081AD0332C0800F909080000000C402B02080007
S214081AE00D15080060180720E80D2800008008403B
S214081AF0370608003F060800D51208003517080004
S214081B00990F0800452C08009D0A0800D91C0720D4
S214081B10251308007D18080081F0004102E000BF88
S214081B2083F0004330B54FEA41044FEA430594EA90
S214081B30050F08BF90EA020F1FBF54EA000C55EACB
S214081B40020C7FEA645C7FEA655C00F0E2804FEA9C
S214081B505454D4EB5555B8BF6D420CDD2C4480EA7E
S214081B60020281EA030382EA000083EA010180EAAE
S214081B70020281EA0303362D88BF30BD11F0004FFC
S214081B804FEA01314FF4801C4CEA113102D0404232
S214081B9061EB410113F0004F4FEA03334CEA13336D
S214081BA002D0524263EB430394EA050F00F0A78085
S214081BB0A4F10104D5F1200E0DDB02FA0EFC22FA80
S214081BC005F2801841F1000103FA0EF2801843FA74
S214081BD005F359410EE0A5F120050EF1200E012A65
S214081BE003FA0EFC28BF4CF0020C43FA05F3C018A3
S214081BF051EBE37101F0004507D54FF0000EDCF11C
S214081C00000C7EEB00006EEB0101B1F5801F1BD3C4
S214081C10B1F5001F0CD349085FEA30004FEA3C0CC8
S214081C2004F101044FEA445212F5800F80F09A80BE
S214081C30BCF1004F08BF5FEA500C50F1000041EBC2
S214081C40045141EA050130BD5FEA4C0C404141EBC6
S214081C50010111F4801FA4F10104E9D191F0000FED
S214081C6004BF01460020B1FA81F308BF2033A3F170
S214081C700B03B3F120020CDA0C3208DD02F1140C67
S214081C80C2F10C0201FA0CF021FA02F10CE002F1A2
S214081C901402D8BFC2F1200C01FA02F120FA0CFC9B
S214081CA0DCBF41EA0C019040E41AA2BF01EB0451E4
S214081CB0294330BD6FEA04041F3C1CDA0C340EDCE2
S214081CC004F11404C4F1200220FA04F001FA02F325
S214081CD040EA030021FA04F345EA030130BDC4F1E3
S214081CE00C04C4F1200220FA02F001FA04F340EAD8
S214081CF00300294630BD21FA04F0294630BD94F089
S214081D00000F83F4801306BF81F480110134013D6F
S214081D104EE77FEA645C18BF7FEA655C29D094EAE0
S214081D20050F08BF90EA020F05D054EA000C04BF5E
S214081D301946104630BD91EA030F1EBF0021002049
S214081D4030BD5FEA545C05D14000494128BF41F0E8
S214081D50004130BD14F580043CBF01F5801130BD4C
S214081D6001F0004545F0FE4141F470014FF00000D7
S214081D7030BD7FEA645C1ABF194610467FEA655C88
S214081D801CBF0B46024650EA013406BF52EA03352A
S214081D9091EA030F41F4002130BD00BF90F0000F18
S214081DA004BF0021704730B54FF4806404F1320454
S214081DB04FF000054FF0000150E700BF90F0000F0D
S214081DC004BF0021704730B54FF4806404F1320434
S214081DD010F0004548BF40424FF000013EE700BF04
S214081DE042004FEAE2014FEA31014FEA02701FBF94
S214081DF012F07F4393F07F4F81F06051704792F066
S214081E00000F14BF93F07F4F704730B54FF46074DF
S214081E1001F0004521F0004120E700BF50EA01022A
S214081E2008BF704730B54FF000050AE050EA0102D7
S214081E3008BF704730B511F0004502D5404261EB47
S214081E4041014FF4806404F132045FEA915C3FF488
S214081E50DCAE4FF003025FEADC0C18BF03325FEA21
S214081E60DC0C18BF033202EBDC02C2F1200300FAD6
S214081E7003FC20FA02F001FA03FE40EA0E0021FAFB
S214081E8002F11444C1E600BF70B54FF0FF0C4CF4E5
S214081E90E06C1CEA11541DBF1CEA135594EA0C0F9B
S214081EA095EA0C0F00F0DEF82C4481EA030621EAD6
S214081EB04C5123EA4C5350EA013518BF52EA033511
S214081EC041F4801143F4801338D0A0FB02CE4FF0C3
S214081ED00005E1FB02E506F00042E0FB03E54FF0F3
S214081EE00006E1FB03569CF0000F18BF4EF0010EEB
S214081EF0A4F1FF04B6F5007F64F5407404D25FEAE7
S214081F004E0E6D4146EB060642EAC62141EA555199
S214081F104FEAC52040EA5E504FEACE2EB4F1FD0CDB
S214081F2088BFBCF5E06F1ED8BEF1004F08BF5FEA59
S214081F30500E50F1000041EB045170BD06F000460B
S214081F4046EA010140EA020081EA0301B4EB5C04B8
S214081F50C2BFD4EB0C0541EA045170BD41F48011B0
S214081F604FF0000E013C00F3AB8014F1360FDEBFD5
S214081F70002001F0004170BDC4F10004203C35DAB1
S214081F800C341BDC04F11404C4F1200500FA05F334
S214081F9020FA04F001FA05F240EA020001F00042D5
S214081FA021F0004110EBD37021FA04F642EB06014B
S214081FB05EEA430E08BF20EAD37070BDC4F10C0475
S214081FC0C4F1200500FA04F320FA05F001FA04F239
S214081FD040EA020001F0004110EBD37041F1000125
S214081FE05EEA430E08BF20EAD37070BDC4F1200530
S214081FF000FA05F24EEA020E20FA04F301FA05F298
S21408200043EA020321FA04F001F0004121FA04F23F
S21408201020EA020000EBD3705EEA430E08BF20EA0F
S214082020D37070BD94F0000F0FD101F00046400049
S21408203041EB010111F4801F08BF013CF7D041EACB
S214082040060195F0000F18BF704703F000465200CF
S21408205043EB030313F4801F08BF013DF7D043EAA0
S2140820600603704794EA0C0F0CEA135518BF95EA56
S2140820700C0F0CD050EA410618BF52EA4306D1D1DD
S21408208081EA030101F000414FF0000070BD50EAFC
S214082090410606BF1046194652EA430619D094EA86
S2140820A00C0F02D150EA013613D195EA0C0F05D170
S2140820B052EA03361CBF104619460AD181EA0301C4
S2140820C001F0004141F0FE4141F470014FF000007C
S2140820D070BD41F0FE4141F4780170BD70B54FF017
S2140820E0FF0C4CF4E06C1CEA11541DBF1CEA135597
S2140820F094EA0C0F95EA0C0F00F0A7F8A4EB050479
S21408210081EA030E52EA03354FEA013100F088806F
S2140821104FEA03334FF0805545EA131343EA126338
S2140821204FEA022245EA111545EA10654FEA0026ED
S2140821300EF000419D4208BF964244F1FD0404F5A6
S214082140407402D25B084FEA3202B61A65EB030502
S2140821505B084FEA32024FF480104FF4002CB6EBBF
S214082160020E75EB030E22BFB61A754640EA0C003F
S2140821705B084FEA3202B6EB020E75EB030E22BF7F
S214082180B61A754640EA5C005B084FEA3202B6EBC0
S214082190020E75EB030E22BFB61A754640EA9C007F
S2140821A05B084FEA3202B6EB020E75EB030E22BF4F
S2140821B0B61A754640EADC0055EA060E18D04FEA0D
S2140821C0051545EA16754FEA06164FEAC30343EAAD
S2140821D052734FEAC2025FEA1C1CC0D111F4801F7A
S2140821E00BD141EA00014FF000004FF0004CB6E773
S2140821F011F4801F04BF01430020B4F1FD0C88BF12
S214082200BCF5E06F3FF6AFAEB5EB030C04BFB6EB1C
S214082210020C5FEA500C50F1000041EB045170BD0F
S2140822200EF0004E4EEA113114EB5C04C2BFD4EB3C
S2140822300C0541EA045170BD41F480114FF0000EC0
S214082240013C90E645EA060E8DE60CEA135594EA3C
S2140822500C0F08BF95EA0C0F3FF43BAF94EA0C0F3F
S2140822600AD150EA01347FF434AF95EA0C0F7FF4B4
S21408227025AF104619462CE795EA0C0F06D152EA08
S21408228003353FF4FDAE1046194622E750EA4106EC
S21408229018BF52EA43067FF4C5AE50EA41047FF4FD
S2140822A00DAF52EA43057FF4EBAE12E74A0011D2AF
S2140822B012F5001211D20DD56FF47873B3EB625293
S2140822C00ED44FEAC12343F0004343EA505323FA9F
S2140822D002F070474FF00000704750EA013002D114
S2140822E04FF0FF3070474FF00000704770B50F4E44
S2140822F00F4D761BB61018BF002405D0013455F8CC
S214082300043B9847A642F9D10A4E0B4D00F0A4FCB0
S214082310761BB61018BF002406D0013455F8043BC7
S2140823209847A642F9D170BD70BD00BF642C08005E
S214082330642C08006C2C0800642C0800024B01462C
S214082340186800F003B800BF180507202DE9F04FFD
S21408235001F10B05162D83B0064640F2A08035F035
S214082360070500F1C080A94200F2BD8000F09AFA85
S214082370B5F5FC7FC0F090826B0A00F0BB80042B9A
S21408238000F27781A80900F1390E4FEA4E0138307D
S214082390BE4F07EB81014C680839A14207D1AEE071
S2140823A0002A80F2AE80E468A14200F0A880636844
S2140823B023F003035A1B0F2AF2DDB4493C6901F1E6
S2140823C0080E744500F0A881636823F003035A1BBF
S2140823D00F2A00F38E81002AC1F814E0C1F810E035
S2140823E080F29380B3F5007F80F05C81DB084A6852
S2140823F04FEAA3094FF0010C013351F833800CFA69
S21408240009F901EBC30C49EA0202ACF1080CC4F85E
S2140824100CC0C4F808804A6041F83340C8F80C403D
S214082420831001249C4094427CD8144206D120F0A4
S21408243003006400144200F10400FAD007EBC00958
S214082440CC468046DCF80C108C4507D166E1002A9D
S21408245080F27481C9688C4500F060814B6823F06F
S21408246003035A1B0F2AF2DD0C46CB6854F808CF34
S21408247045F00108C1F804800D4442F00101CCF88B
S2140824800C303046C3F808C07D613D61C5F80CE0E5
S214082490C5F808E06960AA5000F006FA1FE010299F
S2140824A021D800F0FFF9102506230220774F07EB06
S2140824B083035C68A3F10802944200F038816368DD
S2140824C0E16823F0030323445A68A56842F0010232
S2140824D0E96030468D605A6000F0E6F90834204618
S2140824E003B0BDE8F08F002420460C23336003B009
S2140824F0BDE8F08F80214FF0400E3F2048E7704639
S2140825005BE723445A68E168DFE723445A683046A5
S21408251042F001025A60083400F0C6F9204603B0BB
S214082520BDE8F08FBC68636823F00308A84504D3A9
S214082530C5EB08030F2B00F38C80554BDFF8609132
S2140825401A68D9F800302A44013304EB080A00F068
S214082550608102F580520F3222F47F6222F00F0269
S21408256011463046019200F0A1F9B0F1FF3F8346CC
S214082570019A00F05881824500F2FC80454BDA4506
S21408258019681144196000F05381D9F80000DFF883
S21408259010E101301BBFCAEB0B0A5144CEF800B05D
S2140825A019601BF0070100F01781C1F10800C1F59A
S2140825B08051834408315A44C2F30B02C2EB010926
S2140825C049463046019300F071F9431C019B00F020
S2140825D03F81CBEB00024A4442F001021968BC4234
S2140825E04944C7F808B01960CBF80420DFF8A4906F
S2140825F016D0B8F10F0F40F2FD806268A8F10C0300
S21408260023F0070302F00102E0184FF0050E1A4304
S2140826100F2B6260C0F804E0C0F808E000F21C81E6
S2140826201D4BBC681A68914288BF19601B4B1A6814
S2140826309142626888BF196022F003029542A2EBB5
S214082640050301D80F2B04DC304600F02DF90024D2
S21408265045E745F0010243F0010325446260304631
S214082660BD6008346B6000F01FF9204603B0BDE873
S214082670F08F142B71D9542B00F2A480280B00F18C
S2140826806F0E4FEA4E016E3082E600BF1C0507202B
S2140826905409072058090720500907204C09072025
S2140826A0280907205A0A042A5ED9142A00F2B38099
S2140826B002F15C0149005B3207EB810C57F82110E8
S2140826C0ACF1080C8C45DFF8D88100F088804A68A1
S2140826D022F00302934202D289688C45F7D1D1F8DA
S2140826E00CC07A68C4F80CC0A160CCF80840CC606E
S2140826F096E645F0010742F0010325446760304638
S2140827004D610D61C5F80CE0C5F808E06B60AA508D
S214082710083400F0C9F8E2E64A6881E608F10108DC
S21408272018F0030F0CF1080C7FF48CAE30E0DC6870
S214082730A34208BF02303FF440AEC0E60C460B4446
S2140827405A68C96854F8085F42F001025A60304671
S214082750E9608D6000F0A8F8C1E603F15C0E03F1AD
S2140827605B004FEA4E0113E69A0902F13901490067
S2140827703832A1E7BC424A4B3FF400AF9C68626817
S21408278022F003025AE759F80839994540F0828042
S21408279010F0030F00F1FF30F5D17B6823EA04033D
S2140827A07B6064009C423FF6BDAE002C3FF4BAAE98
S2140827B01C4240467FF442AE64001C4200F104000E
S2140827C0FAD03BE6B3F5AA7F18D8E80B00F1780EE6
S2140827D04FEA4E017730DBE54FF48051EBE60121F6
S2140827E0D8F80430921001FA02F21A43C8F8042006
S2140827F0614677E70123CBF8043025E740F25452C8
S214082800934220D8A80C00F17D0E4FEA4E017C308A
S214082810BEE51032A4E6542A26D81A0B02F16F0138
S21408282049006E3248E7BC68626822F0030205E792
S214082830CAF30B0000287FF4A8AE4244BB6842F0F7
S21408284001025A60ECE6FE214FF07F0E7E209FE5DF
S21408285001224FF00009C1E604F10801304600F0F5
S214082860A9F8D9F80010DBE6B2F5AA7F05D8DA0B86
S21408287002F17801490077321EE740F254518A4245
S21408288005D89A0C02F17D0149007C3214E7FE2136
S2140828907E2211E77B6884E7E808431C5B0005E6B0
S2140828A01C050720704700BF704700BF38B5074CA7
S2140828B00023054608462360FEF73CF8431C00D074
S2140828C038BD2368002BFBD02B6038BDA421072019
S2140828D0024B13B1024800F005B87047000000002C
S2140828E0F1280800002301461A46184600F04AB99F
S2140828F038B5074D074C2C1BA41005D0013C55F8DD
S214082900043D9847002CF9D1BDE8384000F0AEB930
S2140829107C2C0800782C0800F8B50C46224F064692
S214082920FFF7C0FFBB685D6825F00305291B01F6A5
S214082930EF7121F47F6121F00F01A1F58054B4F501
S214082940805F07DB00213046FFF7B0FFBB682B44EB
S214082950984204D03046FFF7A7FF0020F8BD614232
S2140829603046FFF7A3FF01300DD0104BBA68196840
S2140829702D1B45F001053046091B55601960FFF709
S21408298093FF0120F8BD00213046FFF78FFFBA6895
S214082990831A0F2BDEDD064C0449246843F0010336
S2140829A0001B53600860D5E71C0507205809072058
S2140829B028090720002945D02DE9F0410D46804614
S2140829C0FFF770FF55F8047C6A49A5F1080427F05C
S2140829D00103E2188E685068B24220F0030062D005
S2140829E0FE0750600BD455F8087C01F1080EE41B6E
S2140829F0A5683B4475456FD0E768EF60BD6015185D
S214082A006D68ED0742D543F001026260E350B3F506
S214082A10007F18D2DB0848689D100122013351F860
S214082A20337002FA05F501EBC3022843083AE26060
S214082A30A760486041F83340FC604046BDE8F04176
S214082A40FFF732BF70475A0A042A53D89A0902F188
S214082A5039077F0002F1380501EB870051F8272077
S214082A600838904243494DD0516821F003018B4203
S214082A7002D292689042F7D1D068E060A260846083
S214082A80D4604046BDE8F041FFF70EBF95683A4F60
S214082A900344BD423FD0D06843F00102E860856039
S214082AA06260E350B3E7FF07034407D455F8085CB1
S214082AB0641BE268A0682B44C26090602F4A43F00B
S214082AC001001268606093428C60B6D32C4B404677
S214082AD01968FFF721FFB0E711184968C90744D4F9
S214082AE091680344D26843F00100CA609160606050
S214082AF0E350A2E7142A17D802F15C077F0002F118
S214082B005B05A9E7AA104B68012505FA02F21343EC
S214082B104B600246B1E743F001024C610C61E56088
S214082B20A5606260E35088E7542A06D81A0B02F1BB
S214082B306F077F0002F16E058EE7B2F5AA7F06D80A
S214082B40DA0B02F178077F0002F1770584E740F296
S214082B505450824206D89A0C02F17D077F0002F193
S214082B607C0579E7FE277E2576E743F0010262605A
S214082B70E35062E71C0507202405072024090720E0
S214082B80540907202DE9F047254C0646256888464F
S214082B90D5F8484192469946C4B360681F2817DCA2
S214082BA0411C76B104EB8003C3F888A0D4F888519A
S214082BB0012282401543022EC4F88851C3F80891B2
S214082BC01ED0831C6160002044F82380BDE8F0878F
S214082BD0144B03B34FF4C870FFF7B0FB0446D0B1EC
S214082BE0D5F84831002784E888003846C5F84841B3
S214082BF00121C4F88871C4F88C71002EE1D0D1E7A1
S214082C00D4F88C311A43C4F88C21DAE705F5A67493
S214082C10C5F84841C1E74FF0FF30BDE8F08700BF70
S214082C20542C08003D2308005477694661756C7477
S214082C303A200004060507000C05496E69742062F0
S214082C406567696E00496E697420646F6E6500007A
S214082C5043000000F0000720F8B500BFF8BC08BC29
S214082C609E467047D128080019010800F8B500BF2D
S210082C70F8BC08BC9E467047F50008003B
S214082C7C1A4A4FF480631360C2F80032184B1A6A6B
S214082C8CD10102D5174A1A6205E0174A1A629A6EDB
S214082C9CD207FCD5F6E79A6E1149D003FBD50A6B1A
S214082CAC22F0030242F001020A639A6E1207FCD560
S214082CBC0E490B4A91629A6E9007FCD5084A112168
S214082CCC11639A6E1107FCD5054A122111639A6E88
S214082CDC1207FCD5064A074B1A607047000A0E40C6
S214082CEC00060E400908370109083700013F0D2079
S214082CFC00BD0105EC000720114B124A9842124BF6
S214082D0C01D8002118E01149884202D84FF4807186
S214082D1C12E00F49884202D84FF400710CE00D49B6
S214082D2C884202D84FF4407106E00B49884294BF9B
S214082D3C4FF480614FF4A06111601960704700BFB2
S214082D4CBFEA2101000A0E40000C0E407FF0FA0282
S214082D5CFF8FD003FFB3C4047F4A5D0500093D000E
S214082D6C00000000DC03072044040720AC040720FE
S214082D7C000000000000000000000000000000003A
S214082D8C000000000000000000000000000000002A
S214082D9C00000000502C0800000000000000000096
S214082DAC000000000000000000000000000000000A
S214082DBC00000000000000000000000000000000FA
S214082DCC00000000000000000000000000000000EA
S214082DDC00000000000000000000000000000000DA
S214082DEC00000000000000000000000000000000CA
S214082DFC00000000000000000000000000000000BA
S214082E0C00000000000000000100000000000000A8
S214082E1C0E33CDAB34126DE6ECDE05000B0000006D
S214082E2C0000000000000000000000000000000089
S214082E3C0000000000000000000000000000000079
S214082E4C0000000000000000000000000000000069
S214082E5C0000000000000000000000000000000059
S21408318C0000000000000000F0000720000000000F
S21408319C000000001C0507201C0507202405072036
S2140831AC240507202C0507202C05072034050720A6
S2140831BC340507203C0507203C0507204405072056
S2140831CC440507204C0507204C0507205405072006
S2140831DC540507205C0507205C05072064050720B6
S2140831EC640507206C0507206C0507207405072066
S2140831FC740507207C0507207C0507208405072016
S21408320C840507208C0507208C05072094050720C5
S21408321C940507209C0507209C050720A405072075
S21408322CA4050720AC050720AC050720B405072025
S21408323CB4050720BC050720BC050720C4050720D5
S21408324CC4050720CC050720CC050720D405072085
S21408325CD4050720DC050720DC050720E405072035
S21408326CE4050720EC050720EC050720F4050720E5
S21408327CF4050720FC050720FC0507200406072094
S21408328C040607200C0607200C0607201406072041
S21408329C140607201C0607201C06072024060720F1
S2140832AC240607202C0607202C06072034060720A1
S2140832BC340607203C0607203C0607204406072051
S2140832CC440607204C0607204C0607205406072001
S2140832DC540607205C0607205C06072064060720B1
S2140832EC640607206C0607206C0607207406072061
S2140832FC740607207C0607207C0607208406072011
S21408330C840607208C0607208C06072094060720C0
S21408331C940607209C0607209C060720A406072070
S21408332CA4060720AC060720AC060720B406072020
S21408333CB4060720BC060720BC060720C4060720D0
S21408334CC4060720CC060720CC060720D406072080
S21408335CD4060720DC060720DC060720E406072030
S21408336CE4060720EC060720EC060720F4060720E0
S21408337CF4060720FC060720FC060720040707208F
S21408338C040707200C0707200C070720140707203C
S21408339C140707201C0707201C07072024070720EC
S2140833AC240707202C0707202C070720340707209C
S2140833BC340707203C0707203C070720440707204C
S2140833CC440707204C0707204C07072054070720FC
S2140833DC540707205C0707205C07072064070720AC
S2140833EC640707206C0707206C070720740707205C
S2140833FC740707207C0707207C070720840707200C
S21408340C840707208C0707208C07072094070720BB
S21408341C940707209C0707209C070720A40707206B
S21408342CA4070720AC070720AC070720B40707201B
S21408343CB4070720BC070720BC070720C4070720CB
S21408344CC4070720CC070720CC070720D40707207B
S21408345CD4070720DC070720DC070720E40707202B
S21408346CE4070720EC070720EC070720F4070720DB
S21408347CF4070720FC070720FC070720040807208A
S21408348C040807200C0807200C0807201408072037
S21408349C140807201C0807201C08072024080720E7
S2140834AC240807202C0807202C0807203408072097
S2140834BC340807203C0807203C0807204408072047
S2140834CC440807204C0807204C08072054080720F7
S2140834DC540807205C0807205C08072064080720A7
S2140834EC640807206C0807206C0807207408072057
S2140834FC740807207C0807207C0807208408072007
S21408350C840807208C0807208C08072094080720B6
S21408351C940807209C0807209C080720A408072066
S21408352CA4080720AC080720AC080720B408072016
S21408353CB4080720BC080720BC080720C4080720C6
S21408354CC4080720CC080720CC080720D408072076
S21408355CD4080720DC080720DC080720E408072026
S21408356CE4080720EC080720EC080720F4080720D6
S21408357CF4080720FC080720FC0807200409072085
S21408358C040907200C0907200C0907201409072032
S21008359C1409072000000200FFFFFFFFD4
S8040807E507
