S0140000525574686C6573735F4543552E737265639A
S214080000902E0720110708000D0708000D070800A6
S2140800100D0708000D0708000D070800000000007F
S2140800200000000000000000000000000D070800A7
S2140800300D070800000000000D0708000D0708005F
S2140800400D0708000D0708000D0708000D07080033
S2140800500D0708000D0708000D0708000D07080023
S214080060590D08000D0708000000000035050800B7
S214080070490508005D050800710508000000000035
S214080080000000000D0708000D0708000D0708000F
S2140800900D0708000D0708000D0708000D070800E3
S2140800A00D070800000000000D070800E50A080014
S2140800B0E90A0800ED0A0800F10A0800F50A08002F
S2140800C0F90A0800FD0A0800010B0800050B0800DD
S2140800D00D070800B90908000D0708000D070800F5
S2140800E00D0708000D0708000D0708000D07080093
S2140800F00D07080010B5054C237833B9044B13B127
S2140801000448AFF300800123237010BD580507206C
S21408011000000000BC100800084B10B51BB10849C9
S2140801200848AFF300800848036803B910BD074BBA
S214080130002BFBD0BDE81040184700BF00000000A9
S2140801405C050720BC100800BC1008000000000072
S21408015030B4012404600025456040F20224C0F84B
S2140801602041C0F80451C0F8145144685200B1FB4D
S214080170F2F14A1E120292B223431A4342602846FC
S21408018030BC7047436823F0100343604368194344
S214080190416070474368D201D2B2194311434160A7
S2140801A0704700BF10B44468090601F07061224326
S2140801B00A431B0703F040531343436010BC7047C1
S2140801C002230360704700BF012303FA01F10161AF
S2140801D0704700BF036C43F080730364704700BF2A
S2140801E04162704710B50E480E4B98473E210020D6
S2140801F00D4B98470D4CA0470028FCD00C4B984751
S2140802000C4A0D4B9A620D4CA0470028FCD01020D3
S2140802100B4B98470B4B98470148024B984710BD25
S21408022000BD0105A5000720ED05080041060800E9
S21408023051060800013F0D2000060E406106080022
S21408024085050800BD07080010B54FF40042164B98
S2140802505A600B20154CA0470C20A0470D20A0473D
S2140802600E20A0474FF060513B20114CA0474FF09E
S21408027060515520A0474FF060515620A0470D49C1
S2140802806820A0470C495C20A0470C4A4FF44071F0
S2140802900B480C4B98474FF000612B20A0474FF0B7
S2140802A000612A20A04710BD501A0E4071060800AB
S2140802B071030800790000280100002801000008E2
S2140802C0000E0E4045040800416370474264B1F1D1
S2140802D0805F16D004D8C1B1B1F1006F0AD013E020
S2140802E0B1F1405F11D0B1F1605F0ED0B1F1205F7F
S2140802F00AD17047016F036F0B4023EA02030367B6
S21408030002E0036F1343036742607047416412F0CC
S214080310010F14BF4166016612F00A0F14BF01628E
S214080320416212F0020F02D0C0F8801004E012F00A
S214080330080F18BFC0F8841041610160704700BFFD
S21408034010B44164019C0CB1416600E001660BB133
S214080350016500E041650AB1016300E0416301619F
S214080360016010BC704700BFC06C7047806C704757
S21408037070B582B00D46430903F5001303F2077300
S2140803805C0201F0F043B3F1205F30D006D8B3F139
S214080390006F0AD0B3F1805F18D049E0B3F1405F30
S2140803A030D0B3F1605F2DD042E000F01F00012688
S2140803B0864032464FF0006120461F4B984715F09E
S2140803C0010F14BF66662666012032E000F01F00A3
S2140803D00126864032464FF080512046164B9847F5
S2140803E015F0010F14BF66662666012021E000F0AE
S2140803F01F0101262A4606FA01F120460F4B9847A8
S214080400304616E005F0605200F01F01012605EAA6
S21408041006030093C5F38003B2F1605F14BF0022A1
S214080420012206FA01F12046054CA047304600E0B6
S214080430002002B070BD00BFCD0208000D03080002
S2140804404103080070B582B005460E46144602F011
S214080450F043B3F1205F26D006D8B3F1006F0AD078
S214080460B3F1805F13D034E0B3F1405F1FD0B3F12F
S214080470605F1CD02DE00A464FF00061164B984787
S21408048014F0010F14BF6E662E66012022E00A469D
S2140804904FF08051104B984714F0010F14BF6E664A
S2140804A02E66012016E00D4B9847012012E004F056
S2140804B0605204F001030093C4F38003B2F1605F56
S2140804C014BF0022012231462846054CA0470120C9
S2140804D000E0002002B070BDCD0208000D03080041
S2140804E0410308002DE9F041044688460E4B98471C
S2140804F0054620460D4B9847054013D00C4C04F192
S21408050060062368434508D16168294205D0E36838
S21408051040469847636825EA0305B44202D010347B
S214080520002DEED1BDE8F081690308006D030800D0
S2140805307405072008B50B210148024B984708BDEB
S214080540000E0E40E504080008B50C210148024BD1
S214080550984708BD00100E40E504080008B50D21B0
S2140805600148024B984708BD00120E40E5040800F3
S21408057008B50E210148024B984708BD00140E40E6
S214080580E5040800184A136B23F070031843106339
S214080590936E13F0080F03D009E0013B03D11EE069
S2140805A04FF4006310498A6E12F0080FF5D00E4A11
S2140805B0136B23F0030343F002031363906E10F0EB
S2140805C0080004D000207047013B03D109E04FF42F
S2140805D0006305498A6E12F0080FF5D070470120AF
S2140805E070470120704700BF00060E4038B1114919
S2140805F00B6A114A1A40114B13430B6270470D4899
S214080600026A090289B222F45C1323F0030343F456
S2140806105C1343F001030B4303620246936E13F028
S214080620010FFBD0034A136A43F09B7343F48033ED
S2140806301362704700060E40FCFFC8FE0200370132
S214080640024B986E00F48030704700BF00060E40DC
S2140806504FF00052014B9A62704700BF00060E40EA
S214080660024B986E00F00200704700BF00060E406E
S2140806702C281ED81F280CD8114B9A6901238340B2
S214080680934318D0012303FA00F00D4B186100209D
S214080690704720380A4BD3F8082101238340934338
S2140806A00BD0012303FA00F0054BC3F80001002025
S2140806B0704701207047002070470020704700BF31
S2140806C000060E4010B489014318022444504FF027
S2140806D0FF319962196A5A6010BC70478901052370
S2140806E04350704700EB81110869704700EB811191
S2140806F04A61704700EB81118A61704700EB8111EF
S214080700CA61704700EB81114A627047FEE700BF76
S21408071008B51E4B1E4A9A4203D01E4B1B4A9A42E5
S21408072004D31D4B1D4A9A420FD31AE017491C4B97
S2140807305B1A23F003030433154A134452F8040BD8
S21408074041F8040B9A42F9D1EBE7164B164AD21A2F
S21408075022F003021A44043B002143F8041B934288
S214080760FBD1124B23F0604222F07F0210498A60C8
S21408077003F16043B3F5801F03D28B6843F0005340
S2140807808B600C4B98470C4B9847FEE700000720F9
S214080790BC10080058050720900E072058050720AB
S2140807A0570507205C050720930E07200000080061
S2140807B000ED00E0210F0800FD0D08003E4B1B6B06
S2140807C003F00303032B5FD8DFE803F0020E2B2B9E
S2140807D03A4B5B6913F0800F14BF4FF400424FF496
S2140807E0FA42374B1A604FE0334B1B6A13F0807F90
S2140807F003D0344A324B1A6046E0334A304B1A600C
S2140808002D4B1B6A03F07003102B02D0202B04D04C
S2140808103AE02E4A2A4B1A6036E02A4A284B1A60D3
S21408082032E0254B1B6A13F0807F03D0254A244B01
S2140808301A6012E0244A224B1A601F4B1B6A03F008
S2140808407003102B02D0202B04D006E01F4A1C4B46
S2140808501A6002E01B4A1A4B1A60174B1B6B03F010
S2140808600303022B0DD1144A936A926A1448C3F301
S2140808700A41036801FB0333D2B2B3FBF2F3036009
S21408088002E0134A0E4B1A600B4B1B6B03F0700307
S214080890702B07D10A4A13680E49A1FB03135B089D
S2140808A013607047044B1B6B0549C3F302120B68B1
S2140808B0D3400B60704700BF00060E40101A0E406B
S2140808C02C010720001BB70000093D0000127A0023
S2140808D0001C4E0EABAAAAAA38B52520154B984779
S2140808E0154C4FF48023154A15492046154DA84740
S2140808F001234FF4401219462046134DA8470021FD
S2140809002046124B9847002211462046104B98471F
S2140809102046104B984700230F4C19460F48DAB26A
S214080920042A98BFE15420F8131001330F2BF6D190
S21408093038BD00BF7106080000000C4040420F009A
S214080940007A030A51010800A5010800850108007D
S21408095095010800D5010800880E07205C0E0720C0
S2140809602DE9F04789469246451E0024DFF83C806C
S2140809700C4F0D4E15F8011F4046B8472B783355D7
S2140809800134052CF6D1B9F1000F08D04FF080716C
S2140809900648074B984751462520064B9847BDE81A
S2140809A0F08700BFC9010800880E072000000C4029
S2140809B0E1010800FD090800064B1B6A9BB2190BEB
S2140809C0C3F30B03044A22F811300122034B1A70B2
S2140809D0704700BF00000C405C0E0720860E0720FC
S2140809E00123034A1380034A1380034A138070477F
S2140809F07C0E07207A0E0720840E072010B442B219
S214080A00C0B200F01F04012303FA04F453099B0044
S214080A1003F1604303F56143C3F88040C3F880419F
S214080A20002A06DA00F00F000901C9B2064A115476
S214080A3007E00901C9B202F1604202F5614282F894
S214080A4000131C6010BC704714ED00E0082833D86B
S214080A502DE9F0471F4616468846054600F11B0A4C
S214080A605046164B9847022D06D9154B154A052DA4
S214080A7094BF9146994601E0DFF86490124CA4FBB7
S214080A800534640804EB44042C1B424621464846B9
S214080A900E4B9847394650460D4B984732462146E6
S214080AA048460C4B9847214648460B4B9847002229
S214080AB00A4B1A70BDE8F087704700BF7106080039
S214080AC00080084000400840ABAAAAAAC50608004D
S214080AD0FD09080005070800DD06080004060720CB
S214080AE000000840704700BF704700BF704700BF4F
S214080AF0704700BF704700BF704700BF704700BF11
S214080B00704700BF38B5254C02212046244B98472D
S214080B100546D4F8A04014F0040F0CD0214B1A88D0
S214080B20214B93FBF2F2024402211C481F4B9847C4
S214080B301F48204B984714F0080F09D01E4B1A88F8
S214080B40194B93FBF2F22A44022114481B4B984790
S214080B5014F0100F09D01A4B1A88134B93FBF2F2B5
S214080B602A4402210D48174B984714F0010F14D059
S214080B700122154B1A700B4B1A880B4D074C95FB28
S214080B80F2F202212046094B98470B4B1A8895FB30
S214080B90F2F202212046094B984738BD00800840EB
S214080BA0E50608007C0E0720E80D2800ED0608007C
S214080BB000000C40C10108007A0E0720F506080060
S214080BC0840E0720FD0608000406072008B54338EB
S214080BD0102819D8DFE800F00918180D1818181882
S214080BE0181818181818151811000120074B9847D8
S214080BF008BD0748054B984708BD0648034B984765
S214080C0008BD0548014B984708BD00BF9D0C080065
S214080C105C10080060100800741008004FF480721A
S214080C20074B1A6103F5007350221A604FF40062EE
S214080C305A602D221A624FF6FF72DA60704700BFBC
S214080C4000060E4008B50C2108200C4B98470023D8
S214080C500B481A460B49C254CA540133B3F5806F81
S214080C60F9D10023084A1380084A1380084A1380DB
S214080C70084A1380084A137008BD00BFFD0908001B
S214080C8008060720480A072000060720020607204D
S214080C904A0E07205A0E0720480E0720037803B38B
S214080CA0124B1B889BB2B3F5806F1AD270B40546F8
S214080CB000230E4C0E4E228892B2511C89B2218017
S214080CC001339BB22978B154C518C25C22B1228878
S214080CD092B2B2F5806FEED30222064B9A6070BCD1
S214080CE070470222034B9A60704700BF020607202F
S214080CF00806072000080E4008B50C210820034BFC
S214080D0098470122024B9A6008BD00BFFD090800FB
S214080D1000080E4008B50C4B1A8892B20B4B1B887D
S214080D209BB29A4205D10023084A1380064A1380CC
S214080D3008BD05490B889BB25A1C92B20A80044A21
S214080D40D05C044B984708BD4A0E07205A0E072069
S214080D50480A0720CD0B0800214B5A69214B1B88EF
S214080D609BB2E3B112F0020F19D01F490B889BB251
S214080D701E48C35CDBB21A48C3610B8801339BB2BA
S214080D800B80098889B2174B1B889BB2994206D3F9
S214080D90002314490B8014490B800221C16012F00D
S214080DA0010F1CD00E4B996912F0A00F03D04FF418
S214080DB080721A6070470E4A13889BB2581C80B21D
S214080DC01080C9B20B48C15413889BB2B3F5806F24
S214080DD002D30022064B1A800122074B1A7070476E
S214080DE000080E400206072000060720080607200F
S214080DF05A0E0720480A0720480E0720F0B585B087
S214080E00304B9847304B9847304D00240094234683
S214080E1022464FF4000128462D4FB8474FF40001EC
S214080E2028462C4EB0472C4B98472C4B98472C4BB3
S214080E3098470D202B4B98470094234622464FF49C
S214080E4000312846B8474FF400312846B0474FF4DB
S214080E5000012846B047244B9847244B9847244B14
S214080E60186802901B798DF80C300A22012102A816
S214080E70204B98472048214B98470923052248F2DB
S214080E80020108201E4CA0471E4B1B881E4A92FBD8
S214080E90F3F202211D481E4B98471E4C1E4F1F4D4D
S214080EA00026237813F0FF0F01D0B84726702B785A
S214080EB013F0FF0FF5D02E7000BF00BF00BF00BFB5
S214080EC000BFEEE7E50108004902080000120E40E0
S214080ED041030800C90208001D0C0800F90C0800A8
S214080EE0450C080071060800E1090800D908080042
S214080EF0881008006109080000000C40C1010800BD
S214080F004D0A08007C0E0720E80D280000800840DF
S214080F10ED060800480E0720150D0800860E072067
S214080F2070B50F4E0F4D761BB61018BF002405D0AF
S214080F30013455F8043B9847A642F9D10A4E0B4DA2
S214080F4000F0AAF8761BB61018BF002406D00134A5
S214080F5055F8043B9847A642F9D170BD70BD00BF4E
S214080F60A4100800A4100800AC100800A41008007C
S214080F70024B13B1024800F005B8704700000000A5
S214080F80910F0800002301461A46184600F014B8C8
S214080F9038B5074D074C2C1BA41005D0013C55F856
S214080FA0043D9847002CF9D1BDE8384000F07EB8DB
S214080FB0BC100800B81008002DE9F047254C064676
S214080FC025688846D5F8484192469946C4B360686D
S214080FD01F2817DC411C76B104EB8003C3F888A0F1
S214080FE0D4F88851012282401543022EC4F888514D
S214080FF0C3F808911ED0831C6160002044F8238043
S214081000BDE8F087144B03B34FF4C870AFF3008005
S2140810100446D0B1D5F84831002784E88800384619
S214081020C5F848410121C4F88871C4F88C71002EAF
S214081030E1D0D1E7D4F88C311A43C4F88C21DAE72A
S21408104005F5A674C5F84841C1E74FF0FF30BDE87E
S214081050F08700BF94100800000000003030310010
S214081060537065656475696E6F20323031362E317F
S21408107032000000737065656475696E6F203230E3
S2140810803136313200000000040601020C00000070
S2140810904300000030010720F8B500BFF8BC08BCC4
S2140810A09E467047710F080019010800F8B500BF82
S2100810B0F8BC08BC9E467047F500080017
S2140810BC4FF48063204A136002F5007213601F4BCE
S2140810CC1B6A13F0807F07D11D4A1C4B1A621A46FE
S2140810DC936E13F0010FFBD01A4A184B1A621A4675
S2140810EC936E13F4803FFBD0144A136B23F0030360
S2140810FC43F001031363936E13F0080FFBD0124AE8
S21408110C0E4B9A621A46936E13F0020FFBD01122FE
S21408111C0A4B1A631A46936E13F0080FFBD012226A
S21408112C064B1A631A46936E13F0080FFBD0074A41
S21408113C074B1A60704700BF000A0E4000060E40A8
S21408114C0908370009083701013F0D2000BD0105C5
S21408115C2C0107201B4B984206D800231A4A13600A
S21408116C02F5007213607047184B984207D84FF474
S21408117C8073154A136002F5007213607047144B9F
S21408118C984207D84FF400730F4A136002F50072A2
S21408119C136070470F4B984207D84FF440730A4AAF
S2140811AC136002F50072136070470B4B984294BF9D
S2140811BC4FF480634FF4A063034A136002F5007281
S2140811CC13607047BFEA2101000A0E407FF0FA024E
S2140811DCFF8FD003FFB3C4047F4A5D0500093D00AA
S2140811EC000000001C04072084040720EC040720D9
S2140811FC00000000000000000000000000000000D6
S21408120C00000000000000000000000000000000C5
S21408121C000000009010080000000000000000000D
S21408122C00000000000000000000000000000000A5
S21408123C0000000000000000000000000000000095
S21408124C0000000000000000000000000000000085
S21408125C0000000000000000000000000000000075
S21408126C0000000000000000000000000000000065
S21408127C0000000000000000000000000000000055
S21408128C0000000000000000010000000000000044
S21408129C0E33CDAB34126DE6ECDE05000B00000009
S2140812AC0000000000000000000000000000000025
S2140812BC0000000000000000000000000000000015
S2140812CC0000000000000000000000000000000005
S2140812DC00000000000000000000000000000000F5
S804080711DB
