:0200000280007C
:1000000050440720ED090800E9090800E909080043
:10001000E9090800E9090800E909080000000000F2
:10002000000000000000000000000000E9090800D6
:10003000E909080000000000E9090800E9090800D2
:10004000E9090800E9090800E9090800E9090800C8
:10005000E9090800E9090800E9090800E9090800B8
:10006000692C0800E909080000000000CD1808000C
:10007000E9090800E9090800E90908000000000092
:1000800000000000E9090800E9090800E909080082
:10009000E9090800E9090800E9090800E909080078
:1000A000E909080000000000E9090800F121080042
:1000B0000122080011220800212208003122080034
:1000C0004122080051220800612208007122080024
:1000D000E9090800CD0C0800E9090800E909080051
:1000E000E9090800E9090800E9090800E909080028
:1000F000E909080010B5054C237833B9044B13B156
:100100000448AFF300800123237010BD700907205D
:1001100000000000B44408000C4B43B10C4810B57B
:100120000C49AFF300800C48036823B910BD0A489E
:10013000036833B97047094B002BF7D0BDE8104076
:100140001847064B002BF5D0184700BF00000000F1
:10015000B444080074090720B444080000000000FB
:100160002DE9F04782B00446002202AB03F8012DCE
:1001700090F800A0D0F80490D0F80880C76802700A
:10018000426083600123C360084E094D214630461A
:10019000A8470028FAD184F800A0C4F80490C4F855
:1001A0000880E76002B0BDE8F08700BF00000940AA
:1001B0006109080010B588B08DF8071050238DF83C
:1001C0001C30030A8DF80C308DF80D0002230493C7
:1001D0000DF1070305930123069303A90648074B76
:1001E000984718B10124204608B010BD044603A862
:1001F000034B9847F7E700BF00000940610908007A
:100200006101080000B587B050238DF81430030A4F
:100210008DF804308DF80500022302930391012329
:10022000049301A90448054B9847003018BF0120EA
:1002300007B05DF804FB00BF00000940A1080800FA
:1002400000B587B050238DF81430030A8DF80430C0
:100250008DF80500022302930392049101A904483A
:10026000044B9847003018BF012007B05DF804FB2D
:1002700000000940A108080030B4012404600024F3
:10028000446040F20225C0F82051C0F80441C0F893
:10029000144145685200B1FBF2F2013A120292B2E7
:1002A0002B431A434260204630BC7047436823F01A
:1002B0001003436043681943416070474368D201AB
:1002C000D2B219430A434260704710B44468090629
:1002D00001F0706121430A43190701F040511143B5
:1002E000416010BC7047022303607047012303FA8A
:1002F00001F101617047036C43F080730364704740
:100300004162704710B50E480E4B98473E210020C1
:100310000D4B98470D4CA0470028FCD00C4B98473C
:100320000C4A0D4B9A620D4CA0470028FCD01020BF
:100330000B4B98470B4B98470148024B984710BD11
:1003400000BD0105A500072075060800C9060800C4
:10035000D9060800013F0D2000060E40E9060800FE
:1003600011060800850A080010B54FF40042164B2C
:100370005A600B20154CA0470C20A0470D20A04729
:100380000E20A0474FF060513B20114CA0474FF08A
:1003900060515520A0474FF060515620A0470D49AD
:1003A0006820A0470C495C20A0470C4A4FF44071DC
:1003B0000B480C4B98474FF000612B20A0474FF0A3
:1003C00000612A20A04710BD501A0E40F90608000F
:1003D000A504080079000028010000280100000899
:1003E000000E0E40750508000B4619B109688160C2
:1003F0005B68C3601AB1136883615368C361704757
:1004000021F0FE01C905C90D016270474264B1F1D6
:10041000805F16D00BD849B1B1F1006F05D1036FE1
:10042000016F0B4023EA0203036742607047B1F19A
:10043000405FFBD0B1F1605FF8D0B1F1205FF4D143
:100440007047036F13430367EFE7416412F0010F36
:1004500014BF4166016612F00A0F14BF01624162C7
:1004600012F0020F07D112F0080F18BFC0F8841065
:10047000416101607047C0F88010F9E710B4019C39
:10048000416444B9016643B1016542B94163016108
:10049000016010BC70474166F5E74165F5E701630F
:1004A000F5E7000070B582B00D46430903F500136F
:1004B00003F207735C0201F0F043B3F1205F31D027
:1004C00016D8B3F1006F1BD0B3F1805F16D100F0E6
:1004D0001F000126864032464FF080512046224BB5
:1004E000984715F0010F14BF66662666012017E0D5
:1004F000B3F1405F21D0B3F1605F1ED000200FE068
:1005000000F01F000126864032464FF00061204671
:10051000154B984715F0010F14BF6666266601203B
:1005200002B070BD00F01F0101262A4606FA01F153
:1005300020460E4B98473046F2E705F0605200F037
:100540001F01012605EA06030093C5F38003B2F1FB
:10055000605F14BF0022012206FA01F12046044C1C
:10056000A0473046DCE700BF0D0408004B0408003C
:100570007D04080070B582B005460E46144602F0B0
:10058000F043B3F1205F27D011D8B3F1006F16D03C
:10059000B3F1805F11D10A464FF08051194B984753
:1005A00014F0010F14BF6E662E66012012E0B3F145
:1005B000405F15D0B3F1605F12D000200AE00A4618
:1005C0004FF000610F4B984714F0010F14BF6E6697
:1005D0002E66012002B070BD0B4B98470120F9E751
:1005E00004F0605204F001030093C4F38003B2F1FD
:1005F000605F14BF0022012231462846034CA04709
:100600000120E7E70D0408004B0408007D04080002
:10061000174A136B23F0700318431063936E13F0A3
:10062000080F0AD14FF4006311498A6E12F0080FC7
:1006300003D1013BF9D1012070470D4A136B23F020
:10064000030343F002031363936E13F0080F0AD100
:100650004FF4006306498A6E12F0080F05D1013B82
:10066000F9D101207047002070470020704700BF7B
:1006700000060E40C8B9114A136A090289B223F470
:100680005C1323F0030343F45C1343F001030B43B7
:100690001362936E13F0010FFBD0084A136A43F004
:1006A0009B7343F480331362704704490B6A044A16
:1006B0001A40044B13430B62704700BF00060E4004
:1006C000FCFFC8FE02003701024B986E00F4803038
:1006D000704700BF00060E404FF00052014B9A6277
:1006E000704700BF00060E40024B986E00F00200FB
:1006F000704700BF00060E402C281ED81F280CD8BB
:10070000114B9A6901238340934318D0012303FAC4
:1007100000F00D4B18610020704720380A4BD3F8C9
:1007200008210123834093430BD0012303FA00F0F7
:10073000054BC3F8000100207047012070470020DE
:1007400070470020704700BF00060E4010B48901BA
:100750004318022444504FF0FF319962196A5A60DD
:1007600010BC7047890105234350704700EB81118D
:100770004A61704700EB8111CA61704700EB81113B
:100780004A6270472A4B994249D8A3F57A53994255
:100790002BD910B4274CA4FB0234A40B043C264BE9
:1007A0000B449B00B2FBF3F2043AFF2C39D9002131
:1007B00001316408FF2C0DD90729F9D113029BB22E
:1007C000090401F4E0210B43E4B223430361002058
:1007D00010BC7047FF2AF1D90629EFD80131520821
:1007E000FF2AEBD90629F9D9E8E74900B2FBF1F273
:1007F000043AFF2A11D9002301335208FF2A01D9F4
:10080000072BF9D1110289B21B0403F4E0230B4337
:10081000D2B21A430261002070470023F2E70120A0
:100820007047FF2A88BF0021D8D80021C6E700BF43
:10083000801A0600F11976050012FD3F38B504460E
:100840000D464FF0FF338362036A80230360036B1E
:100850000823036020230360042303600A684968B7
:10086000054B9847012814BF002001206B7A012B0B
:1008700004BF4023236038BD850708000A4659B1EC
:1008800003780129C4BF417841EA0323022A04DD29
:10089000827842EA032300E00023184670470000F4
:1008A000F8B5CC68002C4FD00B4605468E6800206A
:1008B00068604A68120202F4407242F48052097C75
:1008C000090401F4FE010A436A60E86059681846A9
:1008D000224B9847E860012C0FD001232B600020A9
:1008E0002B6A13F4807F36D143F6972143F698277D
:1008F0004FF0010E4FF0020C19E003232B60012092
:10090000EEE70A4670460CE008B9C5F800C013F0DF
:10091000020FF6D070462B6B3370013C01363A461D
:1009200064B12B6A13F4807F11D1511E8AB1012C5E
:10093000EAD013F0020FEED10A46F1E72B6A13F06A
:10094000010FFBD02B6A00E001242046F8BD0524EE
:10095000FBE70924F9E70524F7E700BF7D08080055
:1009600070B5CD68002D35D00B4604468E6800204A
:1009700060600A7C120402F4FE024968090201F474
:1009800040710A436260E06059681846154B984709
:10099000E060236A13F4807F06D005251BE05DB17B
:1009A000236A13F4807F18D113F0040FF7D0337843
:1009B0006363013D0136F2E7236A13F4807F0ED1B1
:1009C00013F0040FF8D002232360236A13F0010F01
:1009D000FBD000E00125284670BD0525FBE7052575
:1009E000F9E700BF7D080800FEE7000008B51C4BD2
:1009F0001C4A9A4210D01C4B194A9A420CD2013B15
:100A00009B1A23F0030304331344164951F8040BD3
:100A100042F8040B9A42F9D1144B154A9A420AD271
:100A2000013B9B1A23F0030304331344002142F8D3
:100A3000041B9342FBD10F4B23F0604222F07F0254
:100A40000D498A6003F16043B3F5801F03D28B68C0
:100A500043F000538B60094B9847094B9847FEE7DA
:100A600000000720B4440800700907205024072024
:100A7000700907200000080000ED00E0013A0800BE
:100A8000552D08003D4B1B6B03F00303032B0ED8C1
:100A9000DFE803F0021C3838394B5B6913F0800F34
:100AA00014BF4FF400424FF4FA42364B1A60334BF6
:100AB0001B6B03F07003702B57D0304B1A6B31490E
:100AC000C2F302120B68D3400B6070472B4B1B6ABA
:100AD00013F0807F03D02C4A2A4B1A60E7E72B4A99
:100AE000284B1A60254B1B6A03F07003102B05D0AE
:100AF000202BDCD1244A234B1A60D8E7244A214B0F
:100B00001A60D4E71D4B1B6A13F0807F0CD01E4A7D
:100B10001C4B1A60194B1B6B03F00303022B16D0FE
:100B20001C4A184B1A60C2E7184A164B1A60134B3E
:100B30001B6A03F07003102B05D0202BEAD1124A58
:100B4000104B1A60E6E7124A0E4B1A60E2E70B4AB6
:100B5000916A926A0B48C1F30A41036801FB0333AF
:100B6000D2B2B3FBF2F30360A1E7064A13680A4965
:100B7000A1FB03135B081360704700BF00060E4023
:100B8000101A0E402C010720001BB70000093D0081
:100B900000127A00001C4E0EABAAAAAA0A4B1B68D0
:100BA00053B1094B1B681A180849914208DB1046DB
:100BB000054A106018467047054A034B1A60F0E773
:100BC0004FF0FF30704700BF8C090720FC7F0820E2
:100BD0005044072070B52520194B9847194C4FF405
:100BE0008023194A19492046194DA84701234FF47B
:100BF000401219462046174DA84710212046164B93
:100C00009847002211462046144B98472046144B23
:100C100098470023134E1A46134C144DD9B2062997
:100C200098BFF25403EB430004EB400124F810207A
:100C30004A808A80EA5401330F2BEFD170BD00BF88
:100C4000F906080000000C4040420F00007A030A39
:100C500079020800CB020800AD020800BD020800BE
:100C6000F7020800801F07206C1A0720E01A0720EF
:100C70002DE9F84F8A469346814600F1070804465D
:100C80000D4F0E4E0E4D21783846B047A4EB0903A8
:100C900014F8012BEA544445F5D1BAF1000F01D103
:100CA000BDE8F88F4FF080710348064B98475946CE
:100CB0002520054B9847F3E700000C40ED020800A3
:100CC000801F0720010308009D17080010B40F4B78
:100CD0001B6A9BB2190B0E48425CC3F30B0301EB7A
:100CE000410422440B4C24F81230435C01330A4A7D
:100CF00082FB0342A2EBE37202EB42029B1ADBB2DD
:100D000043540122054B1A7010BC704700000C4080
:100D1000E01A07206C1A0720565555557C1F0720EE
:100D20002DE9F04F83B083460F461546BDF830805D
:100D30001846304B9847A8EB00031BB223EAE37434
:100D400040462D4EB0478146A0B2B047824601973B
:100D500000971FFA8BF61FFA89F201A93046DFF8D7
:100D6000A090C84707461FFA8AF269463046C8472E
:100D7000019AEA60009BAB609A4204BF01236B7446
:100D80001E4B1968D3F800A0DFF87890D9F80060FE
:100D9000DFF874C09CF80FE0B8FBF1F201FB12829F
:100DA000642101FB02F2B2FBFAF201FB072206FB0F
:100DB00002F60EFB01FEB6FBFEF66E601F68D3F86E
:100DC00000E0D9F800209CF80F60B4FBF7F307FBB4
:100DD000134301FB03F3B3FBFEF301FB003002FB03
:100DE00000F006FB01F1B0FBF1F1296003B0BDE8B2
:100DF000F08F00BFA51D0800811D0800701F07208F
:100E0000D91D0800D809072070110720F0B583B05C
:100E100004460D46214991F83630214A127821487E
:100E20000678F6B2204800785B09A21A92FBF6F227
:100E300000FB032691F8362012093344B3FBF2F08D
:100E400002FB10338A1992F84270FFB2194491F8EC
:100E50004230164B1B681BB1154A136801331360EF
:100E6000144B9847144B1B889BB210360B4A02EB6D
:100E70004606F18889B207EB071701EB81014900AB
:100E800001F5616189B2009103440C4A02EB8702CB
:100E9000294620460A4CA04703B0F0BD2411072084
:100EA0006A1A07203E240720741F0720141F0720FA
:100EB000280A0720AD110800C6090720540E072094
:100EC000210D08002DE9F843404B1B68404A126889
:100ED0005B0803EB4303934212D33E4B1878C0B236
:100EE0003D4B19683D4B1A783D4B1B78DBB2821A9B
:100EF00092FBF3F403FB1423002B5ED0BDE8F883D0
:100F00000123384A1370384A116819441160116A74
:100F100019441162116C19441164116E194411665F
:100F200000262C4A167031490A785A400A70304C13
:100F3000E089A1882F4A89B280B22F4DA8472F4D52
:100F400028802F4B98472B88184480B22D4F38802B
:100F5000388880B2DFF8E080C047C0B22A4B1870F2
:100F6000388880B2DFF8D490C847184F3B6800EB50
:100F70009300264B1860288880B2C047C0B2244B2B
:100F80001870288880B2C8473B6800EB9300214B5B
:100F90001860214D2A68214BB3FBF2F39BB2E38129
:100FA0001F4B98471F4BA3FB0030C0F387106075A1
:100FB0002A681D4B1A602E608FE71C4B98474FF034
:100FC00080411B481B4B984798E700BF30240720FF
:100FD0002C0A072089230720781F07206A1A072078
:100FE0003E240720F71E0720E4150720741F072062
:100FF000B4150720601F07200D1C0800C409072036
:101000002117080044240720641607200C1F07201E
:10101000DC1A0720D81A0720E0090720604263097C
:10102000AD110800D34D6210D80907200D0E08003D
:1010300000120E402916080035160800691608002F
:1010400000B585B01720104B9847104B4FF48051D6
:1010500059644FF400525A6459605A60186F20F472
:1010600080501867186F20F40050186759665A6648
:10107000074B0193074B029301A90748074B984779
:1010800005B05DF804FB00BFF906080000100E4033
:1010900000BD0105801A0600000009403D08080057
:1010A000F0B583B0074602AD002305F8013D0A24E0
:1010B0000D4E29463846B04710F0010F11D0631E7F
:1010C00013F0FF04F5D1094D0124EC770848094BD2
:1010D0009847E87F084B9847084B9847204603B04D
:1010E000F0BD9DF80700FAE705020800B4150720D7
:1010F0003C430800412C0800DD2B0800312C08007F
:1011000030B583B0224BDA79224C0A2300930123B5
:10111000214604F10A00204DA84700EB800000EBB7
:101120008000800080B21D4BA3FB0030400914F802
:10113000013CDBB21A4A12681A49A1FB0212B3EB56
:10114000921F09D9023C2378643303FB00F080B27C
:10115000124BA3FB00304009134BDA7D0C4BDB89AB
:101160009BB2642102FB01F29A4209DD0E4B9B7D8A
:101170000B4403FB00F080B2084BA3FB0030400996
:10118000FF2828BFFF20C2B2014B9A7403B030BDC4
:10119000B415072026110720F11C08001F85EB510C
:1011A00040240720D34D6210241107202DE9F84375
:1011B000364FFE89B6B2BA8894B2BD79EDB201233A
:1011C000334A21463046DFF8DC90C8478046C3B238
:1011D000FB7401232F4A21463046C8470646C3B256
:1011E0003B752D4AA4FB02231FFA88F8A2FB0801D5
:1011F00008FB0311294C4FF439720023A0474F011B
:10120000420147EAD063121A63EB01039F0047EAE9
:1012100092774FEA820E10EB0E007941CB0043EA41
:101220005073C2001046194640F27C420023A0478A
:101230004F014FEA401847EAD069B8EB000869EB64
:1012400001094FEA890343EA98734FEA880280183C
:101250005941CB0043EA5073C20010461946C822D8
:101260000023A04705F1E90206FB02F20023A04794
:1012700005460E460A4B984782B2A2FB050102FBC7
:10128000061164220023A047BDE8F883B4150720A7
:1012900054100720F81E072000512502F1360800DF
:1012A000011108000D1C08002DE9F04F83B05F4BC1
:1012B00093F836301B0950D000252C465C4E5D4F0C
:1012C000DFF88C812BE042465B4BA3FB04135B08E9
:1012D00003EB4303E31ADBB202EB831305EB0512C6
:1012E00006EB82021364136C1433D361136C18334E
:1012F000D36320460134E4B223461D2248F2024162
:10130000DFF85091C8476A1C4C4B03EB4515AA60A7
:101310002546464B93F83630B4EB131F1DDA05EB28
:10132000051106EB8103002246F821205A609A60DD
:10133000DA601A745A741A625A629A62DA6283F82C
:10134000302083F831209F619F63022CBBD93C4A37
:101350003C4B052C98BF1A46B6E7354B3A4ADA673C
:101360004FF400225A614FF400029A654FF40032A4
:10137000C3F89C204FF00072C3F8E0204FF0804289
:10138000C3F824214FF00052C3F868214FF0805277
:10139000C3F8AC214FF00062C3F8F02102225A6377
:1013A00001229A670822C3F8BC202022C3F800213A
:1013B0004FF40052C3F844218022C3F888214FF42F
:1013C0000042C3F8CC214FF40072C3F81022174B2F
:1013D00093F836301B0926D04FF0000B5E46DFF83D
:1013E00050801A4FDFF844904FEA0B1505EB0B0ABB
:1013F00008EB8A0ADAF81800DAF8141000240094CE
:1014000023462246B847DAF83800DAF83410009458
:1014100023462246B8470136F6B2B34699F836302D
:10142000B6EB131FE0DB03B0BDE8F08F24110720FB
:10143000340E072000120E40ABAAAAAAE41507201A
:10144000008008400040084000140E407D04080061
:1014500000000840752008002DE9F04100244E4BA3
:101460001C604E4B1C6032224D4B1A8001274D4BA5
:101470001F804D4B1F804D4B1C604D4B1C604D4BD6
:101480001C604D4B1C604D4B1C604D4B1C704D4BFC
:101490001C604D4B1C704D4B1C704D4B1C604D4BDC
:1014A0001C604D4D41F288324A212846DFF8748194
:1014B000C0474A4E41F2504240213046C04741F2B7
:1014C000185240214648C0474FF4AF52402145488A
:1014D000C04741F2A862A0214348C04741F2707260
:1014E000C0214248C04795F836305B0940490B801F
:1014F000F37BDBB20A8892B293FBF2F33D4A13709E
:10150000F37B328812B203FB02F33B4A82FB0302F5
:101510001A44DB17C3EB2223DBB2384A13700B8863
:101520009AB24FF4B47393FBF2F3354A1380F37B12
:10153000DAB24FF4616393FBF2F3324A136095F829
:101540002530C3EB431203EB8203DB009BB22E4A30
:101550001380F37F42F2107203FB02F32B4A1360F5
:1015600085F8424085F84370032385F84430022310
:1015700085F8453022212648264B9847264B984728
:10158000264B03F50071224643F8042F8B42FBD112
:10159000234B9847BDE8F081280A0720141F072035
:1015A000F01A0720C81A0720101F07202C0A07204E
:1015B00030240720D0090720C8090720D8150720A4
:1015C00089230720781F07203C240720741F072049
:1015D000E0090720D80907202411072070110720EF
:1015E000E4090720181F07208C2307206410072018
:1015F000B01107203E240720B7600BB66A1A0720F7
:10160000C61A0720701F0720C6090720CC1A07201A
:10161000B4150720611F08003D200800E0150720D1
:10162000A91208004D1F0800836B0B4214BF4163D1
:1016300001637047C0F5E16000EB80004000084B9B
:1016400083FB00230344C017C0EBE31000EB400012
:101650008000044BA3FB0030C0F34F10704700BF65
:10166000B7600BB61F85EB5110B504461C4B1B78B9
:10167000F3B91C4B9847C4F5E16404EB840464009F
:10168000194B83FB04232344E417C4EBE31404EB5A
:1016900044046FF0630303FB00F000EB8404134B7E
:1016A000186800FB04F41248A0FB0430400910BD88
:1016B0000C4B984704F5E16404EB840464000A4B86
:1016C00083FB04232344E417C4EBE31404EB440436
:1016D0006FF0630303FB00F000EB8404DFE700BF5F
:1016E000F41E072035160800B7600BB6302407201B
:1016F0001F85EB5110B582B0054B5A7A0623009333
:10170000012304490448054CA047C0B202B010BDF3
:10171000B415072090110720F3090720F11C0800D9
:1017200008B5184B984718498B7B03FB00F0174A04
:1017300082FB0032C317C3EB62139BB2CA7F02EB7A
:101740008202B3EB420F07DD0A7B12F0020F03D0D7
:10175000CB7F03EB83035B00D9B20D4AD1700D4AF6
:10176000106840F6412202FB03F30B4A82FB03128E
:10177000DB17C3EBA2034FF4616202FB03F3B3FB7D
:10178000F0F008BDF5160800701107201F85EB5119
:10179000B4150720D80907206766666610B442B200
:1017A000C0B200F01F0301249C4053099B0003F1C9
:1017B000604303F56143C3F88040C3F88041002AC9
:1017C0000ADB0901C9B202F1604202F5614282F806
:1017D00000131C6010BC704700F00F000901C9B273
:1017E000014A1154F5E700BF14ED00E070B5A0F117
:1017F0000B04032C2AD801248440154D2C61A0F140
:101800000B04032C04D8DFE804F0020E1012114E72
:101810001D460C46316411460F4B9847012D08D0E8
:10182000022D0DD070BD0D4EF2E70D4EF0E70D4EBE
:10183000EEE7C6F8B040C6F8C040C6F8D44070BD68
:10184000C6F8B040C6F8C040C6F8D04070BD00BF72
:1018500000060E40000E0E409D17080000100E40BE
:1018600000120E4000140E4010B5164B1B68826823
:101870009A4207D0437C23B9124B1B68C2689A4234
:1018800011D010BD03681D2B03D8836942691A6308
:1018900010BD01220274C4690A6C106919460A4B12
:1018A0009847206010BD43681D2B03D883694269A7
:1018B0005A6310BDC4690A6C10691946024B9847F7
:1018C0002060DEE7781F0720791D08002DE9F84326
:1018D000614BD3F8908003F5B12303F5C063D3F8CF
:1018E0004C9019F0800F51D05C4B19685C4A116024
:1018F0005C490A68A8EB02021A60C1F800801B6804
:10190000594A11680B441360584A13780133DBB20B
:101910001370574A1368013313600122554B1A7034
:10192000554B93F836301B0914D000210C46534D0B
:10193000534F514E01EB0111890001F12000294460
:101940002844B8470134E4B2214696F83630B4EB67
:10195000131FEFDB454B1B784A4A1278DBB29342E8
:101960002BD0424B1B78484A1278DBB2934238D0D6
:101970003E4B1B78454A1278DBB2934247D03B4B33
:101980001B78434A1278DBB2934251D019F4004FCE
:101990000AD0404A1368A8EB03033F490B60C2F822
:1019A000008001223D4B1A702B4BD3F89030A3EBF3
:1019B00008033B4A1360BDE8F8830122394B1A70D3
:1019C000364B1B7833B9384A1369384909680B44D8
:1019D0005361CDE7364A1369344909680B445361B2
:1019E000C6E70122334B1A702C4B1B7833B92E4AB1
:1019F000136D314909680B445365B9E72A4AD2F897
:101A000090302D4909680B44C2F89430B0E7234B5D
:101A10001B7833B9244A1369284909680B44536178
:101A2000B4E7234A1369254909680B445361ADE7BC
:101A30001A4B1B7833B91C4A136D214909680B44B2
:101A40005365A3E7184AD2F890301D4909680B4442
:101A5000C2F894309AE700BF008008402C0A0720A3
:101A600030240720C8090720E00907208923072020
:101A7000781F07203C24072024110720340E07205C
:101A8000691808002C240720641607205C1F072013
:101A9000DC1A0720D8150720D0090720741F07205B
:101AA000581F0720310A072000000840CC090720F2
:101AB00000400840882307200C1F072048240720E7
:101AC000D81A072001FB02F200EBA2207047002A7F
:101AD000A3BF514391FBF3F3C018002070470000EF
:101AE0002DE9F04700AF4B00083323F00703ADEBBF
:101AF000030DE846D9B3831EADF102024C1EA4B219
:101B000000EB440433F8020F22F8020FA342F9D18C
:101B100001292CD9C446C2464FF0010907E009F15A
:101B200001090AF1020A1FFA89F399421FD91FFA23
:101B300089F3002BF3D0CE46BAF8024009F1FF3604
:101B4000BAF80050AC42EAD2A9F10202534628F892
:101B50001E5028F816406345E1D002F1010E1C88A2
:101B6000164633F8025D013AAC42F0D3D7E7084697
:101B7000084B98470022084B084CA0470022064B10
:101B8000074CA047074B984780B238F81000BD4675
:101B9000BDE8F087C13108000000E03F292F0800B0
:101BA0008D320800B1360800F0B4BDF810709DF811
:101BB0001460A6B10138002507E08C420ED88C4293
:101BC0000FD00135EDB2AE4209D010F8014F04FB41
:101BD00007F4A4B28C42F0D21570F2E71D70F0BC8D
:101BE000704715701D70FAE788420CD9904201D3F6
:101BF00064207047401A642303FB00F0511AB0FBC5
:101C0000F1F0C0B270470020704700002DE9F04F9E
:101C100087B00446884615469B4600238DF817304A
:101C20008DF816300F238DF815308DF814301027ED
:101C30000197642300930DF115030DF1170201467E
:101C40006868294EB04701970123009305AB0DF159
:101C50001602CDF80C804146A868B0476B689DF825
:101C600017709DF815609A5D02EB820202EB82020A
:101C7000920092B2D95D01EB810101EB81018900F3
:101C800089B22046DFF864A0D0470446AB689DF8CF
:101C900016909DF8148013F8082013F80910039883
:101CA000D0472B6853F82920C4F1640153F8285019
:101CB000D35D925D04FB02F201FB0323C0F1640ECD
:101CC000EA5DAD5D04FB05F401FB024400FB04F09A
:101CD0000EFB03004FF47A7393FBFBFBB0FBFBF0AE
:101CE00080B207B0BDE8F08FA91B0800E91B08000F
:101CF0002DE9F04385B081460D46174698469DF87C
:101D0000302000238DF80F30511E04AB03F8021D64
:101D10000192CDF800800DF10F023946134CA04717
:101D20009DF80F609DF80E4019F8042002FB08F2A0
:101D300019F8061001FB08F192B289B238460C4B33
:101D40009847AB5DC0F1640203FB02F39BB22A5DCE
:101D500002FB00F080B20344064880FB0320DB173F
:101D6000C3EB601080B205B0BDE8F083A91B08008A
:101D7000E91B08001F85EB51401828BF0130704750
:101D8000064BDB7B03FB00F0054B83FB0023034486
:101D9000C017C0EBE320C0B2704700BF701107202E
:101DA000C5B3A29138B5084B1C68084A00230849FE
:101DB000A0FB0101074DA8474FF4616303FB00F04E
:101DC000B0FBF4F038BD00BFD8090720809698001A
:101DD000E80D2800F1360800F0B503461348C67B2D
:101DE000007C361A02B3F6B2174600221046DFF81E
:101DF0003CE0B6B2944606E00130C0B20132D2B245
:101E000094B2BC420FD29EF80F40E4B25D1C95FB29
:101E1000F4F304FB13539BB2B342EDD208680130D4
:101E200008606046EAE7F0BD0020F0BD70110720B1
:101E30002DE9F04100240E4EDFF840800D4FA5B291
:101E400005F5587080B2B04708F8040005F5EC605D
:101E500080B2B047385505F5366080B2B047064BC2
:101E600018550134B4F5806FE9D1BDE8F08100BFA9
:101E7000A1100800F41A0720881F07206816072001
:101E80002DE9F843284D03212846284EB047284B1A
:101E90001B5CDBB2274CE371032105F10C00B0475A
:101EA000254B1B5CDBB2A3710321A81DB047234B5C
:101EB0001B5CDBB2A372224F97F83D805FFA88F873
:101EC000B7F83E901FFA89F9032105F11200B047D7
:101ED000024649464046DFF87080C04780B2A08085
:101EE000183D03212846B047C0F387002072217AAD
:101EF00097F83B2097F83C3097F83B001B1A9BB2B1
:101F00008A1A642100200F4FB847C0B220760321FF
:101F100005F14800B0470246A0210020C047C0B2EA
:101F20006072BDE8F88300BF841A0720E11A080038
:101F300068160720B4150720F41A0720881F072009
:101F400024110720CF1A0800C51A080008B5134647
:101F500002461846014B984708BD00BF41020800E1
:101F600041B1431E4A1E92B21044002203F8012FD1
:101F70008342FBD1704700002DE9F04707460E462B
:101F800091469000134B98473860B9F1000F11D07B
:101F900009F1FF385FFA88F808F101084FEA88086C
:101FA0000024DFF830A03D683046D0472851043483
:101FB0004445F8D13046074CA04778604846A047D2
:101FC000B8603E7387F80D9009FB06664E44FE81AB
:101FD000BDE8F087513A0800F8B505460E46437B48
:101FE0007BB100240D4F2B683246297B53F8240027
:101FF000B8472A7B324496B20134E4B26B7BA342E9
:10200000F1D83246297B6868044CA0472A7B3244C9
:1020100092B2697BA868A047F8BD00BF4D1F0800B9
:1020200038B504461D46034B984729462046024BC7
:10203000984738BD791F0800D91F080010B5002344
:10204000102211460748084CA0474FF49073102205
:1020500011460648A0474FF4107310221146044859
:10206000A04710BD5410072021200800F81E0720AB
:10207000601F0720082800D970472DE9F0471F4648
:1020800016468846054600F11B0A5046164B9847EF
:10209000022D25D9154B164A052D94BF9146994618
:1020A000144CA4FB0534640804EB44042C1B424686
:1020B00021464846104B9847394650460F4B9847A3
:1020C0003246214648460E4B9847214648460D4B1E
:1020D000984700230C4A13700C4A1360BDE8F08740
:1020E000DFF82C90DCE700BFF9060800008008400C
:1020F00000400840ABAAAAAA4D0708009D17080097
:102100007D07080065070800300A072040240720E3
:102110000000084038B5037C3BB1836942691A630B
:1021200000230374437C23B938BD836942695A6331
:10213000F8E70446C5690B6C18696168024B98475B
:10214000286000236374EFE7791D080010B500EBE9
:102150000012234B03EB82031B6C1A691B6A13F0FA
:10216000040F10D01F4A12788AB11D4A01010C18C1
:1021700002EB8404A469014402EB810252692263E8
:102180000021184A117013F0080F1ED110BD164A15
:10219000127872B1124A01010C1802EB8404A4698E
:1021A000014402EB81025269226300210E4A117040
:1021B000E9E70B4A01010C1802EB8404A46901440D
:1021C00002EB810252696263DDE700EB00108100DF
:1021D000034B01F1200019441844044B9847D5E7FC
:1021E000340E072088230720310A07201521080014
:1021F00008B50020014B984708BD00BF4D210800DD
:1022000008B50120014B984708BD00BF4D210800CB
:1022100008B50220014B984708BD00BF4D210800BA
:1022200008B50320014B984708BD00BF4D210800A9
:1022300008B50420014B984708BD00BF4D21080098
:1022400008B50520014B984708BD00BF4D21080087
:1022500008B50620014B984708BD00BF4D21080076
:1022600008B50720014B984708BD00BF4D21080065
:1022700038B5224BD3F89050D3F8A04014F0040F97
:102280000ED114F0080F04D005F641231B4AC2F802
:10229000983014F0100F11D114F0010F19D138BD7E
:1022A000174B1B88174A92FBF3F22A44022113486A
:1022B000154B98471548164B9847E2E705F641221B
:1022C00002210E48134B9847134A136801331360D9
:1022D000E2E70122114B1A70094B1B88074C094A8F
:1022E00092FBF3F202212046074B984740F6412229
:1022F00002212046074B9847D1E700BF00800840E5
:10230000F01A0720E80D28006D07080000000C40B7
:10231000E70208007507080040240720300A07205C
:10232000FF22074B1A700023064A1370064A1370E7
:10233000064A1370064A1370064A1370704700BFAE
:10234000240A07203D240720D6090720F61E07206F
:10235000081F0720F51E072070B549B1441E4D1E09
:10236000ADB20544044E14F8010FB047AC42FAD1A7
:10237000024B984770BD00BF252B0800412B080079
:1023800070B50546437B5BB10024094E2B68297B61
:1023900053F82400B0470134E4B26B7BA342F5D874
:1023A000297B6868024CA047697BA868A04770BD7C
:1023B0005923080008B51B4B1B78013B082B2FD86D
:1023C000DFE803F005090E12171B20252A00164826
:1023D000164B984708BD4A211548164B984708BD2B
:1023E0001548124B984708BD40211448114B984797
:1023F00008BD13480D4B984708BD402111480D4BAF
:10240000984708BD402110480A4B984708BDA021B5
:102410000E48084B984708BDC0210D48054B98470A
:1024200008BD00BF240A072054100720812308009C
:102430002411072059230800601F0720701107206E
:10244000F81E0720E4090720181F07208C23072007
:10245000641007200D4B1B7843B10D4B1B780F2BDD
:1024600010D98268134403F8101C704710B4084B4D
:102470001B781C09026803F00F0352F82420D15482
:1024800010BC70474268D154704700BF081F072036
:10249000F61E072008B51C4B1B78013B082B32D8D1
:1024A000DFE803F0050A0F14191E23282D00C1B21E
:1024B0001648174B984708BD164B1A78164BD05440
:1024C00008BDC1B21548124B984708BD114B1A7888
:1024D000134BD05408BDC1B212480D4B984708BDEC
:1024E0000C4B1A78104BD05408BD0A4B1A780F4B7E
:1024F000D05408BD074B1A780D4BD05408BD054B7E
:102500001A780C4BD05408BD240A07205410072019
:1025100055240800F61E072024110720601F0720FD
:1025200070110720F81E0720E4090720181F072054
:102530008C2307206410072038B505460C46084652
:10254000044B9847A84203D0E9B22046024B984773
:1025500038BD00BFA1100800B5010800F8B50C4B4C
:10256000DB7FDBB2012B0FD0144661B1451E114455
:102570008EB2084F214615F8010FB8470134A4B2B6
:10258000B442F7D1F8BDF8BD0348044B9847F8BDF5
:10259000B41507203925080048430800412C0800DD
:1025A000F8B5144BDB7FDBB2012B1FD005460E467E
:1025B000437B7BB10024104F2B683246297B53F8B4
:1025C0002400B8472A7B324496B20134E4B26B7BD4
:1025D000A342F1D83246297B6868074CA0472A7B82
:1025E000324492B2697BA868A047F8BD0348044B07
:1025F0009847F8BDB41507205D250800484308003A
:10260000412C080008B5234B1B78013B082B40D810
:10261000DFE803F0050A11171E242B3239000021D0
:102620001D481E4B984708BD41F288324A211C487C
:102630001C4B984708BD4FF410711B48174B984727
:1026400008BD41F2504240211848164B984708BD3A
:102650004FF490711648114B984708BD41F218523B
:10266000402114480F4B984708BD4FF4AF5240210A
:1026700011480C4B984708BD41F2A862A0210F48B1
:10268000084B984708BD41F27072C0210C48054BB9
:10269000984708BD240A072054100720A1250800E8
:1026A000241107205D250800601F072070110720F6
:1026B000F81E0720E4090720181F07208C23072095
:1026C000641007202DE9F84F80460D4601F580671C
:1026D000BFB2184EDFF864A0DFF864900DE001B2DD
:1026E00005F1010B1FFA8BFB81F30801C9B22846E3
:1026F000114B98475F451BD05D46B0470446B8F183
:10270000010FECD0B04744EA002000B2A0F5A07061
:1027100000EB80008AFB0032C317C3EB62031BB2DD
:1027200089FB0324D917C1EBA401283109B2D7E7EB
:10273000BDE8F88F0D2D0800B5010800398EE3388B
:102740006766666608B5154B1A8892B2144B1B88EB
:102750009BB29A4208D01348134B98470023104A63
:1027600013800E4A138008BD104B9847012809D0EA
:1027700010B102280CD008BD4FF4587102200C4B48
:10278000984708BD4FF4EC610220094B984708BDFB
:102790004FF436610120064B984708BD66160720A6
:1027A000681A072048440800412C08000D2D080035
:1027B000C52608002DE9F0413048314EB047DFF81A
:1027C0001481B8F83E0080B22E4DA8472E4CA04789
:1027D0002E48B04798F83D00A847A0472C48B0477E
:1027E00098F83C00A847A0472A48B04798F83B0013
:1027F000A847A0472848B047284FF879A847A047DE
:102800002748B047B879A847A0472648B047B87AC4
:10281000A847A0472448B047B88880B2A847A04737
:102820002248B047387EA847A0472148B047F889DA
:1028300080B2A847A0471F48B047F87FA847A047E5
:102840001D48B0471D48A847A0471D48B04798F805
:102850000000A847A0471B48B04798F80100A847C8
:10286000A0471948B047194B1868A847A047184A0D
:10287000136883F001031360BDE8F0818C43080006
:10288000412C0800DD2B0800312C0800984308007B
:10289000A4430800B0430800BC430800B415072057
:1028A000C4430800CC430800D4430800DC430800BC
:1028B000E4430800EC430800F8430800A83B030089
:1028C00008440800204408003C4408004024072035
:1028D000141F07202411072008B5434B1B78CBB9E0
:1028E000424B1B7853B3424B1B78CBB1414A127811
:1028F00002F0FD01012919D0052A17D03E4B984757
:1029000000233A4A13703A4A13703C4A13703C4A07
:10291000137008BD374B18700022334B1A7008BD76
:10292000374B18700122324B1A7008BD022BE5D0CC
:10293000324B187002222E4B1A7008BD41383328D2
:1029400050D8DFE800F01A282B4D4F2F4F4F4F4F34
:102950004F4F4F4F4F333B4F374F4F3F424F4F4FEC
:102960004F4F4F4F4F4F4F4F4F4F4F4F4F4F4F4F77
:102970004F4F4F4F4F4F4F4F4F46224B1B68224AEE
:10298000A2FB0323C3F38713204880F821302221C0
:102990001F4B984708BD1F4B984708BD01201E4B91
:1029A000984708BD1D481C4B984708BD01220E4B97
:1029B0001A7008BD1A48184B984708BD1948164B9D
:1029C000984708BD184B984708BD0122074B1A705D
:1029D00008BD164B9847164B9847164B984708BDAD
:1029E000154B984708BD00BF3D240720D609072096
:1029F000F51E0720240A072095240800081F072039
:102A0000F61E072040240720D34D6210B41507207E
:102A1000252D080005260800C92A0800584308008B
:102A20005C43080080430800B5230800692B0800B8
:102A3000452708004D2B0800B52708004FF4807289
:102A4000084B1A6103F5007350221A604FF40062BC
:102A50005A600B221A624FF6FF72DA60024A034B89
:102A60001A60704700060E4000090E40E01507206E
:102A700008B50C2108200C4B984700230B481A4638
:102A80000B49C254CA540133B3F5806FF9D1002306
:102A9000084A1380084A1380084A1380084A1380A2
:102AA000084A137008BD00BF9D170800340A0720AC
:102AB000B4110720D4090720DC0907206616072077
:102AC000681A0720DC150720037803B3124B1B8814
:102AD0009BB2B3F5806F1AD270B4054600230E4C3A
:102AE0000E4E228892B2511C89B2218001339BB2D2
:102AF0002978B154C518C25C22B1228892B2B2F5CD
:102B0000806FEED30222064B9A6070BC704702229F
:102B1000034B9A60704700BFDC090720340A072086
:102B200000080E4004490B889BB25A1C92B20A80DE
:102B3000024AD054704700BFDC090720340A07203E
:102B40000222014B9A60704700080E4008B50C2124
:102B50000820034B98470122024B9A6008BD00BF32
:102B60009D17080000080E400122014BDA607047F3
:102B700000080E40104B1A8892B2104B1B889BB273
:102B80009A4212D010B50C4C23889BB25A1C92B2B8
:102B900022800B4AD05C0B4B984723889BB2B3F53D
:102BA000806F01D30022228010BD0023034A1380CE
:102BB000014A1380704700BF66160720681A072075
:102BC000B4110720D9280800034A536913F0020FF3
:102BD000FBD0014BD861704700080E402DE9F84347
:102BE0000546012600220F4CDFF84090B0460E4FFC
:102BF0000BE0C8474246B5FBF4F304FB1355A7FBB3
:102C00000434E40801360B2E0AD0B5FBF4F0303062
:102C1000C0B23028EDD1002AEBD10A2EEBD1E8E783
:102C2000BDE8F88300CA9A3BCDCCCCCCC92B0800B8
:102C300008B50A20014B984708BD00BFC92B080002
:102C400070B50546007840B12C461E35054EB0479C
:102C500014F8010F08B1AC42F9D12020014B98477C
:102C600070BD00BFC92B0800214B5A69214B1B883E
:102C70009BB2E3B112F0020F19D01F490B889BB22F
:102C80001E48C35CDBB21A48C3610B8801339BB298
:102C90000B80098889B2174B1B889BB2994206D3D7
:102CA000002314490B8014490B800221C16012F0EB
:102CB000010F18D00E4B996912F0A00F14D1104AD1
:102CC00013889BB2581C80B21080C9B20D48C15401
:102CD00013889BB2B3F5806F02D30022084B1A8091
:102CE0000122094B1A7070474FF480721A607047C6
:102CF00000080E40DC090720D4090720340A072009
:102D0000681A0720B4110720DC150720044A53690C
:102D100013F0010FFBD0024B9869C0B2704700BF9F
:102D200000080E4010B5074B18605960064C002291
:102D300019462068054B98474FF480712068044B72
:102D4000984710BD34240720E0150720E903080048
:102D50000104080080B584B0494B9847494B984717
:102D60000D20494CA0470E20A04700240094234684
:102D700022464FF080414548454DA847454B98476E
:102D8000454B9847454B98474548464EB047464DBA
:102D9000A847464B9847464B9847464B9847464B63
:102DA000186802909A889B79ADF80C208DF80E3047
:102DB0000A22012102A8414B98474148414B9847BC
:102DC00009231D2248F2024108203F4FB8473F4BDC
:102DD0001B883F4F3F4A92FBF3F2022138463E4B9D
:102DE000984740F64122022138463C4B98473C4BDD
:102DF00098473C4B98470223224680210B203A4FAC
:102E0000B847022322464FF400410B20B847374809
:102E1000B047A8478020364B9847A847354D364FD6
:102E2000364C374E0AE000232B70B84709E00023E8
:102E30002370344B984707E033787BB92B78002B0D
:102E4000F1D12378002BF2D12F4B1B78002BF3D03C
:102E500000222D4B1A702D4B9847EDE7002333705D
:102E60002B4B1B68002BE9D02A4A11682A4B59606A
:102E7000116859621168596412685A66DEE700BF2A
:102E80000503080069030800F906080000120E4057
:102E90007D0408003D2A08004D2B0800712A080017
:102EA0006C440800412C0800312C08004110080037
:102EB00059140800D50B080064440800710C080080
:102EC00000000C40E702080075200800F01A0720F7
:102ED00000800840E80D28006D070800750708000D
:102EE000311E080021230800ED170800784408006F
:102EF000DD2B08007C1F0720811E0800DC15072041
:102F0000F71E0720752B08003C240720C50E08007B
:102F1000141F0720D8090720E415072081F000417D
:102F200002E000BF83F0004330B54FEA41044FEAAE
:102F3000430594EA050F08BF90EA020F1FBF54EA49
:102F4000000C55EA020C7FEA645C7FEA655C00F0E5
:102F5000E2804FEA5454D4EB5555B8BF6D420CDDB6
:102F60002C4480EA020281EA030382EA000083EA39
:102F7000010180EA020281EA0303362D88BF30BDD9
:102F800011F0004F4FEA01314FF4801C4CEA11312F
:102F900002D0404261EB410113F0004F4FEA03338E
:102FA0004CEA133302D0524263EB430394EA050F19
:102FB00000F0A780A4F10104D5F1200E0DDB02FA88
:102FC0000EFC22FA05F2801841F1000103FA0EF21C
:102FD000801843FA05F359410EE0A5F120050EF1E2
:102FE000200E012A03FA0EFC28BF4CF0020C43FA13
:102FF00005F3C01851EBE37101F0004507D54FF020
:10300000000EDCF1000C7EEB00006EEB0101B1F56F
:10301000801F1BD3B1F5001F0CD349085FEA3000B5
:103020004FEA3C0C04F101044FEA445212F5800FC0
:1030300080F09A80BCF1004F08BF5FEA500C50F15D
:10304000000041EB045141EA050130BD5FEA4C0C40
:10305000404141EB010111F4801FA4F10104E9D1C9
:1030600091F0000F04BF01460020B1FA81F308BFC0
:103070002033A3F10B03B3F120020CDA0C3208DD8C
:1030800002F1140CC2F10C0201FA0CF021FA02F167
:103090000CE002F11402D8BFC2F1200C01FA02F1D7
:1030A00020FA0CFCDCBF41EA0C019040E41AA2BFFC
:1030B00001EB0451294330BD6FEA04041F3C1CDAC4
:1030C0000C340EDC04F11404C4F1200220FA04F0E4
:1030D00001FA02F340EA030021FA04F345EA03018E
:1030E00030BDC4F10C04C4F1200220FA02F001FA50
:1030F00004F340EA0300294630BD21FA04F02946D2
:1031000030BD94F0000F83F4801306BF81F480116A
:103110000134013D4EE77FEA645C18BF7FEA655CDD
:1031200029D094EA050F08BF90EA020F05D054EAAF
:10313000000C04BF1946104630BD91EA030F1EBFB4
:103140000021002030BD5FEA545C05D140004941B8
:1031500028BF41F0004130BD14F580043CBF01F5AB
:10316000801130BD01F0004545F0FE4141F4700191
:103170004FF0000030BD7FEA645C1ABF194610466C
:103180007FEA655C1CBF0B46024650EA013406BF6D
:1031900052EA033591EA030F41F4002130BD00BF2C
:1031A00090F0000F04BF0021704730B54FF48064E9
:1031B00004F132044FF000054FF0000150E700BF6A
:1031C00090F0000F04BF0021704730B54FF48064C9
:1031D00004F1320410F0004548BF40424FF00001B6
:1031E0003EE700BF42004FEAE2014FEA31014FEAF9
:1031F00002701FBF12F07F4393F07F4F81F0605148
:10320000704792F0000F14BF93F07F4F704730B5B6
:103210004FF4607401F0004521F0004120E700BF49
:1032200050EA010208BF704730B54FF000050AE0D0
:1032300050EA010208BF704730B511F0004502D5D1
:10324000404261EB41014FF4806404F132045FEAD3
:10325000915C3FF4DCAE4FF003025FEADC0C18BF78
:1032600003325FEADC0C18BF033202EBDC02C2F16E
:10327000200300FA03FC20FA02F001FA03FE40EA00
:103280000E0021FA02F11444C1E600BF70B54FF000
:10329000FF0C4CF4E06C1CEA11541DBF1CEA1355E2
:1032A00094EA0C0F95EA0C0F00F0DEF82C4481EA4A
:1032B000030621EA4C5123EA4C5350EA013518BF6A
:1032C00052EA033541F4801143F4801338D0A0FB57
:1032D00002CE4FF00005E1FB02E506F00042E0FB04
:1032E00003E54FF00006E1FB03569CF0000F18BF0A
:1032F0004EF0010EA4F1FF04B6F5007F64F54074B2
:1033000004D25FEA4E0E6D4146EB060642EAC62144
:1033100041EA55514FEAC52040EA5E504FEACE2EB1
:10332000B4F1FD0C88BFBCF5E06F1ED8BEF1004FB4
:1033300008BF5FEA500E50F1000041EB045170BD30
:1033400006F0004646EA010140EA020081EA030174
:10335000B4EB5C04C2BFD4EB0C0541EA045170BD70
:1033600041F480114FF0000E013C00F3AB8014F1EA
:10337000360FDEBF002001F0004170BDC4F1000433
:10338000203C35DA0C341BDC04F11404C4F12005B4
:1033900000FA05F320FA04F001FA05F240EA02000F
:1033A00001F0004221F0004110EBD37021FA04F645
:1033B00042EB06015EEA430E08BF20EAD37070BDFF
:1033C000C4F10C04C4F1200500FA04F320FA05F05E
:1033D00001FA04F240EA020001F0004110EBD37060
:1033E00041F100015EEA430E08BF20EAD37070BDD0
:1033F000C4F1200500FA05F24EEA020E20FA04F3A9
:1034000001FA05F243EA020321FA04F001F0004157
:1034100021FA04F220EA020000EBD3705EEA430EC8
:1034200008BF20EAD37070BD94F0000F0FD101F0F7
:103430000046400041EB010111F4801F08BF013C30
:10344000F7D041EA060195F0000F18BF704703F06E
:103450000046520043EB030313F4801F08BF013DF5
:10346000F7D043EA0603704794EA0C0F0CEA1355B1
:1034700018BF95EA0C0F0CD050EA410618BF52EA6B
:103480004306D1D181EA030101F000414FF0000071
:1034900070BD50EA410606BF1046194652EA43067F
:1034A00019D094EA0C0F02D150EA013613D195EAF3
:1034B0000C0F05D152EA03361CBF104619460AD13B
:1034C00081EA030101F0004141F0FE4141F4700145
:1034D0004FF0000070BD41F0FE4141F4780170BD35
:1034E00070B54FF0FF0C4CF4E06C1CEA11541DBF9A
:1034F0001CEA135594EA0C0F95EA0C0F00F0A7F89C
:10350000A4EB050481EA030E52EA03354FEA0131C8
:1035100000F088804FEA03334FF0805545EA1313DB
:1035200043EA12634FEA022245EA111545EA1065A3
:103530004FEA00260EF000419D4208BF964244F13A
:10354000FD0404F5407402D25B084FEA3202B61A59
:1035500065EB03055B084FEA32024FF480104FF42D
:10356000002CB6EB020E75EB030E22BFB61A7546A1
:1035700040EA0C005B084FEA3202B6EB020E75EB34
:10358000030E22BFB61A754640EA5C005B084FEA9C
:103590003202B6EB020E75EB030E22BFB61A754669
:1035A00040EA9C005B084FEA3202B6EB020E75EB74
:1035B000030E22BFB61A754640EADC0055EA060E35
:1035C00018D04FEA051545EA16754FEA06164FEA78
:1035D000C30343EA52734FEAC2025FEA1C1CC0D124
:1035E00011F4801F0BD141EA00014FF000004FF0B1
:1035F000004CB6E711F4801F04BF01430020B4F172
:10360000FD0C88BFBCF5E06F3FF6AFAEB5EB030C29
:1036100004BFB6EB020C5FEA500C50F1000041EB26
:10362000045170BD0EF0004E4EEA113114EB5C04F3
:10363000C2BFD4EB0C0541EA045170BD41F48011C6
:103640004FF0000E013C90E645EA060E8DE60CEACE
:10365000135594EA0C0F08BF95EA0C0F3FF43BAFEB
:1036600094EA0C0F0AD150EA01347FF434AF95EAA2
:103670000C0F7FF425AF104619462CE795EA0C0F86
:1036800006D152EA03353FF4FDAE1046194622E753
:1036900050EA410618BF52EA43067FF4C5AE50EA2D
:1036A00041047FF40DAF52EA43057FF4EBAE12E71D
:1036B0004A0011D212F5001211D20DD56FF47873B1
:1036C000B3EB62520ED44FEAC12343F0004343EA06
:1036D000505323FA02F070474FF00000704750EA51
:1036E000013002D14FF0FF3070474FF000007047BB
:1036F00053B94AB9002908BF00281CBF4FF0FF3159
:103700004FF0FF3000F07AB9ADF1080C6DE904CE4E
:1037100000F006F8DDF804E0DDE9022304B07047AC
:103720002DE9F0478C460E460446089D002B50D1EB
:103730008A4217466CD9B2FA82FEBEF1000F0BD056
:10374000CEF1200C01FA0EF620FA0CFC02FA0EF76C
:103750004CEA060C00FA0EF43A0CBCFBF2F9BBB2D0
:1037600002FB19CC09FB03FA4FEA144848EA0C465D
:10377000B2450AD9F61909F1FF3180F02581B24529
:1037800040F22281A9F102093E44A6EB0A06B6FBEB
:10379000F2F002FB106600FB03F3A4B244EA064415
:1037A000A34209D9E41900F1FF3280F00B81A34252
:1037B00040F2088102383C440021E41A40EA094002
:1037C000002D62D0002324FA0EF42C606B60BDE85B
:1037D000F0878B4207D9002D55D0002185E84100A4
:1037E0000846BDE8F087B3FA83F1002940F08F80E6
:1037F000B34202D3824200F2FC80841A66EB0306D5
:103800000120B446002D40D085E81010BDE8F087B7
:1038100012B90127B7FBF2F7B7FA87FEBEF1000F26
:1038200035D10121F61B4FEA174C1FFA87F8B6FB7A
:10383000FCF20CFB126608FB02F0230C43EA06467E
:10384000B04207D9F61902F1FF3302D2B04200F2BA
:10385000D2801A46361AB6FBFCF00CFB106608FB49
:1038600000F8A3B243EA0644A04507D9E41900F1E1
:10387000FF3302D2A04500F2B9801846A4EB080439
:1038800040EA02409CE729462846BDE8F08707FA4F
:103890000EF7CEF1200326FA03F24FEA174CB2FBE3
:1038A000FCF11FFA87F80CFB112206FA0EF620FA3B
:1038B00003F301FB08F933431E0C46EA0246B14507
:1038C00000FA0EF409D9F61901F1FF3280F08C806C
:1038D000B14540F2898002393E44A6EB0906B6FBA9
:1038E000FCF00CFB106200FB08F99EB246EA0246AF
:1038F000B14507D9F61900F1FF3371D2B1456FD93F
:1039000002383E44A6EB090640EA01418FE7C1F1C7
:10391000200722FA07F88B4048EA030326FA07F447
:103920004FEA134EB4FBFEF91FFA83FC0EFB194459
:103930008E4020FA07F809FB0CFA48EA06084FEA1D
:10394000184646EA0444A24502FA01F200FA01F6DA
:1039500008D9E41809F1FF3044D2A24542D9A9F1AF
:1039600002091C44A4EB0A04B4FBFEF00EFB104455
:1039700000FB0CFC1FFA88F848EA0444A44507D968
:10398000E41800F1FF3E29D2A44527D902381C448F
:1039900040EA0940A0FB0289A4EB0C0CCC45C246CE
:1039A000CE4615D312D055B1B6EB0A036CEB0E061A
:1039B00006FA07F7CB401F43CE402F606E60002110
:1039C000BDE8F0871046F7E68946DEE64645EAD2CE
:1039D000B8EB020A69EB030E0138E4E77046D7E75B
:1039E00018468FE78146BDE7114676E702383C442A
:1039F00044E7084606E7023A3E442BE7704700BF1B
:103A000070B50F4E0F4D761BB61018BF002405D0B1
:103A1000013455F8043B9847A642F9D10A4E0B4DA4
:103A200000F032FD761BB61018BF002406D001341A
:103A300055F8043B9847A642F9D170BD70BD00BF50
:103A400094440800944408009C44080094440800EE
:103A5000024B0146186800F003B800BF3001072090
:103A60002DE9F04F01F10B06162E83B0054640F20A
:103A70009E8036F0070600F1BD80B14200F2BA80A8
:103A800000F090FAB6F5FC7FC0F08582730A00F072
:103A9000B880042B00F26C81B30903F1390003F103
:103AA000380EC100B84F39444C680839A14206D1DC
:103AB0000CE0002A80F2AB80E468A14206D0636883
:103AC00023F003039A1B0F2AF3DD70463C69DFF8ED
:103AD000CCE2744500F09E81636823F003039A1BD7
:103AE0000F2A00F38381002AC7F814E0C7F810E01A
:103AF00080F29180B3F5007F80F054810122DB08D1
:103B000079684FEAA30C134457F8338002FA0CF299
:103B100007EBC30C0A43ACF10801E160C4F808806C
:103B20007A6047F83340C8F80C40012483109C4069
:103B300094427DD8144206D120F003006400144260
:103B400000F10400FAD007EBC009CC468046DCF84F
:103B50000C309C4507D15FE1002A80F26D81DB6863
:103B60009C4500F05981596821F003018A1B0F2AF6
:103B7000F2DDDC68D3F808C046F0010828461E4490
:103B800042F00105C3F80480CCF80C40C4F808C02A
:103B90007E613E61C6F80CE0C6F808E075605A50D8
:103BA000009300F001FA009B03F108041EE01029C5
:103BB00020D800F0F7F9102618230220724F3B445A
:103BC0005C68A3F10802944200F02F816368E16809
:103BD00023F0030323445A68A66842F00102F1600F
:103BE00028468E605A6000F0DFF90834204603B0A2
:103BF000BDE8F08F00240C2320462B6003B0BDE805
:103C0000F08F40204FF400714FF03F0E4AE72344FD
:103C10005A68E168E0E723445A68284642F0010206
:103C20005A60083400F0C0F9204603B0BDE8F08FB8
:103C3000BC68636823F00308B04504D3A8EB06030F
:103C40000F2B00F38580DFF85891504BD9F80020F6
:103C50001B680132334404EB080A00F0548103F579
:103C600080530F3323F47F6B2BF00F0B59462846FC
:103C700000F09CF9411C024600F0FB80824500F2F6
:103C8000F680434B19685944196000F04C81D9F80B
:103C9000000001301BBFA2EB0A0A5144C9F8002002
:103CA000196012F0070100F01481C1F10800C1F59C
:103CB00080510244083102EB0B09C9F30B09A1EB57
:103CC0000909494628460193009200F06FF9431C08
:103CD0009DE80C0000F04281801A484440F0010049
:103CE0001968BC424944BA601960506017D0B8F1F5
:103CF0000F0F40F2FA804FF0050C6268A8F10C003B
:103D000020F0070002F0010204EB000E02430F282E
:103D10006260CEF804C0CEF808C000F216811D4BD8
:103D2000BC681A68914288BF19601B4B1A6891429F
:103D3000626888BF196022F003029642A2EB060374
:103D400001D80F2B04DC284600F02EF900244DE7A3
:103D500046F0010243F00103264462602846BE603B
:103D60000834736000F020F9204603B0BDE8F08FFE
:103D7000142B70D9542B00F2A280330B03F16F0087
:103D800003F16E0EC1008DE660050720C009072013
:103D900090090720B8090720BC09072068050720FB
:103DA000680907205A0A042A5BD9142A00F2AE8057
:103DB00002F15C01C9005B3207EB010C7958ACF1F0
:103DC000080C8C4500F088804A6822F00302934278
:103DD00073D289688C45F7D1DCF80C307A68E360DF
:103DE000C4F808C09C60CCF80C409EE646F0010C7C
:103DF00042F001012644C4F804C028467E613E61B9
:103E0000C6F80CE0C6F808E07160E25000F0CCF8AB
:103E10000834EBE67A6888E608F1010818F0030F29
:103E20000CF1080C7FF493AE2DE0DC68A34208BFD0
:103E300002303FF44BAEC9E61C4619444A68DB68C1
:103E400054F8086F42F001024A602846F3609E6011
:103E500000F0AAF8CAE603F15C0003F15B0EC100B2
:103E600020E69A0902F13901C9003832A4E7BC42C0
:103E700054D0BC68626822F003025EE759F8083942
:103E8000994540F0868010F0030F00F1FF30F5D126
:103E90007B6823EA04037B6064009C423FF6C8AE63
:103EA000002C3FF4C5AE1C4240467FF44CAE64008B
:103EB0001C4200F10400FAD045E68C468CE7B3F5CD
:103EC000AA7F15D8F30B03F1780003F1770EC10038
:103ED000E8E54FF48051EEE601217B68921001FA8B
:103EE00002F21A437A60634679E7012353602AE7B6
:103EF00040F25452934222D8B30C03F17D0003F1F7
:103F00007C0EC100CEE503F1100BAFE6542A29D890
:103F10001A0B02F16F01C9006E324DE7204B196890
:103F200059441960B3E6CAF30B0000287FF4AFAE22
:103F300008EB0B03BA6843F001035360EFE67F2000
:103F40004FF47E714FF07E0EACE504F10801284677
:103F5000009300F0B7F8009B1968E0E601204FF0ED
:103F60000009BDE6B2F5AA7F05D8DA0B02F17801A7
:103F7000C900773220E740F254518A4205D89A0CA2
:103F800002F17D01C9007C3216E74FF47E717E227A
:103F900012E77B6880E7F00806F108030EE600BF31
:103FA00090090720704700BF704700BF38B5002355
:103FB000064C054608462360FCF7F0FD431C00D084
:103FC00038BD2368002BFBD02B6038BD4C24072064
:103FD000024B13B1024800F005B870470000000022
:103FE000F13F0800002301461A46184600F050B978
:103FF00038B50A4C0A4D641BA4100AD004F1804362
:10400000013B05EB8305013C55F804399847002C2A
:10401000F9D1BDE8384000F041BA00BFAC44080017
:10402000A8440800F8B50C46234F0646FFF7BAFF30
:10403000BB68C4F57E615D680F3125F00305294436
:1040400021F47F6121F00F01A1F58054B4F5805F68
:1040500007DB00213046FFF7A9FFBB682B449842DD
:1040600004D03046FFF7A0FF0020F8BD6142304683
:10407000FFF79CFF01300DD0104BBA6819682D1B5B
:1040800045F001053046091B55601960FFF78CFFAC
:104090000120F8BD00213046FFF788FFBA68831A77
:1040A0000F2BDEDD064C0549246843F00103001B9D
:1040B00053600860D5E700BF60050720900907201E
:1040C00068090720002944D02DE9F0410D468046BB
:1040D000FFF768FF55F8047C6949A5F1080427F04B
:1040E0000103E2188E685068B24220F003005ED0EF
:1040F000FE0750600BD455F8087C01F1080EE41B54
:10410000A5683B4475456DD0E768EF60BD60151844
:104110006D68ED073ED543F001026260E350B3F5F0
:10412000007F17D20122DB0898104D68134451F824
:104130003370824001EBC3002A430838E060A76077
:104140004A6041F83340FC604046BDE8F041FFF76B
:104150002BBF70475A0A042A52D89A0902F139072C
:10416000FF0002F13805C819CA59083890424FD0EB
:10417000516821F003018B4232D292689042F7D10C
:10418000C368A060E3609C60C4604046BDE8F04145
:10419000FFF70ABF95683B4F0344BD4240D0D0684B
:1041A00043F00102E86085606260E350B7E7FF0713
:1041B000034407D455F8085C641BE268A0682B44EC
:1041C000C2609060304A43F0010012686060934220
:1041D0008C60B9D32D4B40461968FFF723FFB3E736
:1041E0001046CDE711184968C90744D491680344C3
:1041F000D26843F00100CA6091606060E350A3E7B9
:10420000142A16D802F15C07FF0002F15B05AAE749
:104210000123AA104D6893402B434B600346B0E73F
:1042200043F001024C610C61E560A5606260E350FF
:104230008AE7542A06D81A0B02F16F07FF0002F131
:104240006E0590E7B2F5AA7F06D8DA0B02F178077F
:10425000FF0002F1770586E740F25450824206D80B
:104260009A0C02F17D07FF0002F17C057BE74FF419
:104270007E777E2577E743F001016160136063E795
:1042800060050720680507206C090720C009072082
:104290002DE9F047274C074626688846D6F848415E
:1042A00092469946002C3CD065681F2D1ADC05F11A
:1042B000010E7FB1012004EB8503C3F888A0D4F878
:1042C000881100FA05F21143022FC4F88811C3F8CF
:1042D000089120D00235C4F804E0002044F825807D
:1042E000BDE8F087144B0BB34FF4C870FFF7B0FB79
:1042F0000446D8B10020D6F848314FF0010E606076
:1043000023600546C6F84841C4F88801C4F88C010A
:10431000002FDFD0CEE7D4F88C311A43C4F88C21BB
:10432000D8E706F5A674C6F84841BDE74FF0FF3060
:10433000BDE8F08784440800513A08005477694684
:1043400061756C743A200000454550524F4D20462F
:1043500061756C7400000000303031005255746893
:104360006C6573732056312E3020466F726D756CFC
:10437000612053747564656E7420323031370000EB
:10438000737065656475696E6F0000004D41502063
:10439000486967683A2000004D4150204C6F773AD9
:1043A0002000000054505320486967683A200000FC
:1043B000545053204C6F773A20000000434C543A3D
:1043C000200000004941543A200000004146523A82
:1043D000200000004D41503A200000005450533A54
:1043E0002000000052504D3A20000000545749462A
:1043F00061756C743A2000004675656C20436F6EE1
:1044000073743A2000000000416674657253746151
:104410007274456E726963685063743A20000000DC
:1044200041667465725374617274456E7269636833
:104430004379636C65733A20000000006D696C6C11
:1044400069733A20000000004552524F52206361C8
:104450006C6962726174696F6E20766563746F72E5
:104460000000000004060507000C0500496E697491
:1044700020626567696E0000496E697420646F6E22
:104480006500000038010720F8B500BFF8BC08BC83
:104490009E467047D13F080019010800F8B500BFDB
:0C44A000F8BC08BC9E467047F500080000
:0844AC0074F2FF7F0100000023
:1044B4004FF48063204A136002F5007213601F4BAF
:1044C4001B6A13F0807F07D11D4A1C4B1A621A46DF
:1044D400936E13F0010FFBD01A4A184B1A621A4656
:1044E400936E13F4803FFBD0144A136B23F0030341
:1044F40043F001031363936E13F0080FFBD0124AC9
:104504000E4B9A621A46936E13F0020FFBD01122DF
:104514000A4B1A631A46936E13F0080FFBD012224B
:10452400064B1A631A46936E13F0080FFBD0074A22
:10453400074B1A60704700BF000A0E4000060E4089
:104544000908370009083701013F0D2000BD0105A6
:104554002C0107201B4B984215D91B4B984219D9A3
:104564001A4B98421ED91A4B984223D9194B984298
:1045740094BF4FF480634FF4A063174A136002F5AD
:104584000072136070470023134A136002F500722F
:10459400136070474FF480730F4A136002F5007282
:1045A400136070474FF400730B4A136002F50072F6
:1045B400136070474FF44073074A136002F50072AA
:1045C40013607047BFEA21017FF0FA02FF8FD00326
:1045D400FFB3C4047F4A5D05000A0E4000093D0094
:1045E4003801072000000000000000002404072018
:1045F4008C040720F40407200000000000000000E1
:1046040000000000000000000000000000000000A6
:104614000000000000000000000000000000000096
:104624000000000000000000000000000000000086
:104634000000000000000000000000000000000076
:104644000000000000000000000000000000000066
:104654000000000000000000000000000000000056
:104664000000000000000000000000000000000046
:104674000000000000000000000000000000000036
:104684000000000000000000000000000000000026
:1046940001000000000000000E33CDAB34126DE6C3
:1046A400ECDE05000B00000000000000000000002C
:1046B40000000000000000000000000000000000F6
:1046C40000000000000000000000000000000000E6
:1046D40000000000000000000000000000000000D6
:1046E40000000000000000000000000000000000C6
:104A1400000000000000000060050720600507207A
:104A24006805072068050720700507207005072022
:104A340078050720780507208005072080050720D2
:104A44008805072088050720900507209005072082
:104A54009805072098050720A0050720A005072032
:104A6400A8050720A8050720B0050720B0050720E2
:104A7400B8050720B8050720C0050720C005072092
:104A8400C8050720C8050720D0050720D005072042
:104A9400D8050720D8050720E0050720E0050720F2
:104AA400E8050720E8050720F0050720F0050720A2
:104AB400F8050720F8050720000607200006072050
:104AC40008060720080607201006072010060720FE
:104AD40018060720180607202006072020060720AE
:104AE400280607202806072030060720300607205E
:104AF400380607203806072040060720400607200E
:104B040048060720480607205006072050060720BD
:104B1400580607205806072060060720600607206D
:104B2400680607206806072070060720700607201D
:104B340078060720780607208006072080060720CD
:104B4400880607208806072090060720900607207D
:104B54009806072098060720A0060720A00607202D
:104B6400A8060720A8060720B0060720B0060720DD
:104B7400B8060720B8060720C0060720C00607208D
:104B8400C8060720C8060720D0060720D00607203D
:104B9400D8060720D8060720E0060720E0060720ED
:104BA400E8060720E8060720F0060720F00607209D
:104BB400F8060720F806072000070720000707204B
:104BC40008070720080707201007072010070720F9
:104BD40018070720180707202007072020070720A9
:104BE4002807072028070720300707203007072059
:104BF4003807072038070720400707204007072009
:104C040048070720480707205007072050070720B8
:104C14005807072058070720600707206007072068
:104C24006807072068070720700707207007072018
:104C340078070720780707208007072080070720C8
:104C44008807072088070720900707209007072078
:104C54009807072098070720A0070720A007072028
:104C6400A8070720A8070720B0070720B0070720D8
:104C7400B8070720B8070720C0070720C007072088
:104C8400C8070720C8070720D0070720D007072038
:104C9400D8070720D8070720E0070720E0070720E8
:104CA400E8070720E8070720F0070720F007072098
:104CB400F8070720F8070720000807200008072046
:104CC40008080720080807201008072010080720F4
:104CD40018080720180807202008072020080720A4
:104CE4002808072028080720300807203008072054
:104CF4003808072038080720400807204008072004
:104D040048080720480807205008072050080720B3
:104D14005808072058080720600807206008072063
:104D24006808072068080720700807207008072013
:104D340078080720780807208008072080080720C3
:104D44008808072088080720900807209008072073
:104D54009808072098080720A0080720A008072023
:104D6400A8080720A8080720B0080720B0080720D3
:104D7400B8080720B8080720C0080720C008072083
:104D8400C8080720C8080720D0080720D008072033
:104D9400D8080720D8080720E0080720E0080720E3
:104DA400E8080720E8080720F0080720F008072093
:104DB400F8080720F8080720000907200009072041
:104DC40008090720080907201009072010090720EF
:104DD400180907201809072020090720200907209F
:104DE400280907202809072030090720300907204F
:104DF40038090720380907204009072040090720FF
:104E040048090720480907205009072050090720AE
:104E14005809072058090720FFFFFFFF0000020080
:04000003800009ED83
:00000001FF
