:0200000280007C
:1000000050440720BD080800B9080800B9080800D6
:10001000B9080800B9080800B90808000000000085
:10002000000000000000000000000000B908080007
:10003000B908080000000000B9080800B908080065
:10004000B9080800B9080800B9080800B90808008C
:10005000B9080800B9080800B9080800B90808007C
:10006000B5170800B9080800000000007111080069
:10007000B9080800B9080800B90808000000000025
:1000800000000000B9080800B9080800B908080015
:10009000B9080800B9080800B9080800B90808003C
:1000A000B908080000000000B90808001115080090
:1000B00021150800311508004115080051150800E8
:1000C00061150800711508008115080091150800D8
:1000D000B9080800AD0B0800B9080800B908080005
:1000E000B9080800B9080800B9080800B9080800EC
:1000F000B908080010B5054C237833B9044B13B187
:100100000448AFF300800123237010BD6C09072061
:10011000000000003C230800084B10B51BB1084943
:100120000848AFF300800848036803B910BD074BC7
:10013000002BFBD0BDE81040184700BF00000000B6
:10014000700907203C2308003C2308000000000041
:1001500000B587B050238DF81430030A8DF80430B1
:100160008DF805000223029303910123049301A952
:100170000448054B9847003018BF012007B05DF8D0
:1001800004FB00BF00000940E507080000B587B088
:1001900050238DF81430030A8DF804308DF80500D3
:1001A000022302930392049101A90448044B984747
:1001B000003018BF012007B05DF804FB00000940C3
:1001C000E507080030B4012404600025456040F2D2
:1001D0000224C0F82041C0F80451C0F8145144680A
:1001E0005200B1FBF2F14A1E120292B223431A43AB
:1001F0004260284630BC7047436823F010034360D8
:1002000043681943416070474368D201D2B2194331
:1002100011434160704700BF10B44468090601F003
:10022000706122430A431B0703F0405313434360AA
:1002300010BC704702230360704700BF012303FA1C
:1002400001F10161704700BF036C43F080730364E8
:10025000704700BF4162704710B50E480E4B98477B
:100260003E2100200D4B98470D4CA0470028FCD0A4
:100270000C4B98470C4A0D4B9A620D4CA047002836
:10028000FCD010200B4B98470B4B98470148024B72
:10029000984710BD00BD0105A5000720B505080061
:1002A0000906080019060800013F0D2000060E404F
:1002B000290608004D0508006909080010B54FF42B
:1002C0000042164B5A600B20154CA0470C20A0474B
:1002D0000D20A0470E20A0474FF060513B20114C4D
:1002E000A0474FF060515520A0474FF06051562075
:1002F000A0470D496820A0470C495C20A0470C4A44
:100300004FF440710B480C4B98474FF000612B2085
:10031000A0474FF000612A20A04710BD501A0E40A0
:1003200039060800D90308007900002801000028D8
:1003300001000008000E0E40AD0408004264B1F157
:10034000805F16D004D8C1B1B1F1006F0AD013E0BC
:10035000B1F1405F11D0B1F1605F0ED0B1F1205F1B
:100360000AD17047016F036F0B4023EA0203036752
:1003700002E0036F1343036742607047416412F069
:10038000010F14BF4166016612F00A0F14BF01622B
:10039000416212F0020F02D0C0F8801004E012F0A7
:1003A000080F18BFC0F8841041610160704700BF9A
:1003B00010B44164019C0CB1416600E001660BB1D0
:1003C000016500E041650AB1016300E0416301613C
:1003D000016010BC704700BF70B582B00D46430984
:1003E00003F5001303F207735C0201F0F043B3F16D
:1003F000205F30D006D8B3F1006F0AD0B3F1805F30
:1004000018D049E0B3F1405F30D0B3F1605F2DD038
:1004100042E000F01F000126864032464FF00061A6
:1004200020461F4B984715F0010F14BF66662666DD
:10043000012032E000F01F000126864032464FF0D6
:1004400080512046164B984715F0010F14BF666681
:100450002666012021E000F01F0101262A4606FA47
:1004600001F120460F4B9847304616E005F06052E8
:1004700000F01F01012605EA06030093C5F380037F
:10048000B2F1605F14BF0022012206FA01F120469A
:10049000054CA047304600E0002002B070BD00BF10
:1004A0003D0308007D030800B103080070B582B069
:1004B00005460E46144602F0F043B3F1205F26D005
:1004C00006D8B3F1006F0AD0B3F1805F13D034E0E7
:1004D000B3F1405F1FD0B3F1605F1CD02DE00A463E
:1004E0004FF00061164B984714F0010F14BF6E6671
:1004F0002E66012022E00A464FF08051104B9847AB
:1005000014F0010F14BF6E662E66012016E00D4B2D
:100510009847012012E004F0605204F001030093B8
:10052000C4F38003B2F1605F14BF002201223146A0
:100530002846054CA047012000E0002002B070BD15
:100540003D0308007D030800B1030800184A136B3F
:1005500023F0700318431063936E13F0080F03D059
:1005600009E0013B03D11EE04FF4006310498A6E9D
:1005700012F0080FF5D00E4A136B23F0030343F07B
:1005800002031363906E10F0080004D0002070473F
:10059000013B03D109E04FF4006305498A6E12F074
:1005A000080FF5D07047012070470120704700BF49
:1005B00000060E4038B111490B6A114A1A40114B1E
:1005C00013430B6270470D48026A090289B222F494
:1005D0005C1323F0030343F45C1343F001030B4368
:1005E00003620246936E13F0010FFBD0034A136AB5
:1005F00043F09B7343F480331362704700060E4050
:10060000FCFFC8FE02003701024B986E00F48030F8
:10061000704700BF00060E404FF00052014B9A6237
:10062000704700BF00060E40024B986E00F00200BB
:10063000704700BF00060E402C281ED81F280CD87B
:10064000114B9A6901238340934318D0012303FA85
:1006500000F00D4B18610020704720380A4BD3F88A
:1006600008210123834093430BD0012303FA00F0B8
:10067000054BC3F80001002070470120704700209F
:1006800070470020704700BF00060E4010B489017B
:100690004318022444504FF0FF319962196A5A609E
:1006A00010BC7047890105234350704700EB81114E
:1006B0004A61704700EB8111CA61704700EB8111FC
:1006C0004A6270472B4B994249D8A3F57A53994215
:1006D0002BD910B4284CA4FB0234A40B043C274BA8
:1006E0000B449B00B2FBF3F2043AFF2C39D90023F0
:1006F00001336408FF2C02D9072BF9D10AE0FF2A45
:1007000008D9062B00D905E001335208FF2A01D988
:10071000062BF9D9120292B21B0403F4E0231A4308
:10072000E4B222430261002021E04900B2FBF1F271
:10073000043AFF2A07D9002301335208FF2A03D9BC
:10074000072BF9D100E00023110289B21B0403F446
:10075000E0230B43D2B21A4302610020704701200C
:100760007047FF2A88BF0023CED80023D2E710BCF1
:10077000704700BF801A0600F11976050012FD3F90
:1007800038B504460D464FF0FF338362036A802379
:100790000360036B082303602023036004230360CA
:1007A0000A684968054B9847012814BF00200120BA
:1007B0006B7A012B04BF4023236038BDC5060800B7
:1007C0000A4659B103780129C4BF417841EA03239D
:1007D000022A05DD807840EA032070470020704738
:1007E000184670472DE9F041CC68002C45D00B46E7
:1007F00005468E68002068604A68120202F4407262
:1008000042F480511A7C120402F4FE020A436A6028
:10081000E86059681846274B9847E860012C04D1D6
:1008200003232B604FF0010E33E001232B604FF0C8
:10083000000E2EE00A462B6A13F4807F20D1511E51
:100840000AB3012C06D1BEF1000F2FD1C5F80080EC
:10085000E6462BE013F0020F05D02B6B3370013C02
:1008600001363A4600E00A46002CE4D12B6A13F028
:10087000010FFBD02B6ABDE8F0810120BDE8F081BB
:100880000520BDE8F0810920BDE8F0810520BDE824
:10089000F0812B6A13F48070F8D143F6972143F668
:1008A00098274FF002084FF0010CCAE713F0020F2F
:1008B000C0D0D2E7C1070800FEE700BF08B51E4B55
:1008C0001E4A9A4203D01E4B1B4A9A4204D31D4B28
:1008D0001D4A9A420FD31AE017491C4B5B1A23F0AA
:1008E00003030433154A134452F8040B41F8040B74
:1008F0009A42F9D1EBE7164B164AD21A22F00302BC
:100900001A44043B002143F8041B9342FBD1124BD1
:1009100023F0604222F07F0210498A6003F16043B5
:10092000B3F5801F03D28B6843F000538B600C4BF0
:1009300098470C4B9847FEE7000007203C2308002F
:100940006C0907204C2407206C0907206B0907203D
:10095000700907204F2407200000080000ED00E088
:10096000A9190800591808003E4B1B6B03F003033C
:10097000032B5FD8DFE803F0020E2B2B3A4B5B69A9
:1009800013F0800F14BF4FF400424FF4FA42374B7C
:100990001A604FE0334B1B6A13F0807F03D0344A58
:1009A000324B1A6046E0334A304B1A602D4B1B6ABB
:1009B00003F07003102B02D0202B04D03AE02E4A13
:1009C0002A4B1A6036E02A4A284B1A6032E0254B3F
:1009D0001B6A13F0807F03D0254A244B1A6012E073
:1009E000244A224B1A601F4B1B6A03F07003102B22
:1009F00002D0202B04D006E01F4A1C4B1A6002E0F4
:100A00001B4A1A4B1A60174B1B6B03F00303022B94
:100A10000DD1144A936A926A1448C3F30A410368D9
:100A200001FB0333D2B2B3FBF2F3036002E0134ADB
:100A30000E4B1A600B4B1B6B03F07003702B07D12E
:100A40000A4A13680E49A1FB03135B081360704741
:100A5000044B1B6B0549C3F302120B68D3400B60B8
:100A6000704700BF00060E40101A0E402C010720F0
:100A7000001BB70000093D0000127A00001C4E0E5A
:100A8000ABAAAAAA094B1B6813B9094A074B1A60FB
:100A9000064B1B681A180749914204DB1046034AAB
:100AA0001060184670474FF0FF30704788090720E4
:100AB00050440720FC7F082070B52520194B98472B
:100AC000194C4FF48023194A19492046194DA8475B
:100AD00001234FF4401219462046174DA847102114
:100AE0002046164B9847002211462046144B984743
:100AF0002046144B98470023134E1A46134C144DAE
:100B0000D9B2062998BFF25403EB430004EB40012D
:100B100024F810204A808A80EA5401330F2BEFD149
:100B200070BD00BF3906080000000C4040420F00B5
:100B3000007A030AC501080019020800F90108003B
:100B400009020800490208007C1F0720681A0720D4
:100B5000DC1A07202DE9F04789469246451E0024FD
:100B6000DFF83C800C4F0D4E15F8011F4046B8478A
:100B70002B7833550134072CF6D1B9F1000F08D08A
:100B80004FF080710648074B984751462520064B89
:100B90009847BDE8F08700BF3D0208007C1F072092
:100BA00000000C40550208004110080010B40F4B23
:100BB0001B6A9BB2190B0E48445CC3F30B0301EB99
:100BC000410222440B4C24F81230435C01330A4AA0
:100BD00082FB0342A2EBE37202EB42029B1ADBB2FE
:100BE00043540122054B1A7010BC704700000C40A2
:100BF000DC1A0720681A072056555555781F07201C
:100C000000B585B01720104B9847104B4FF480511A
:100C100059644FF400525A6459605A60186F20F4B6
:100C200080501867186F20F40050186759665A668C
:100C3000074B0193074B029301A90748074B9847BD
:100C400005B05DF804FB00BF3906080000100E4037
:100C500000BD0105801A0600000009408107080058
:100C6000F0B583B0074602AD002305F8013D0A2424
:100C70000D4E29463846B04710F0010F02D19DF8BD
:100C800007000FE0631E13F0FF04F2D1074D0124AB
:100C9000EC770748074B9847E87F074B9847074B87
:100CA0009847204603B0F0BD51010800B015072059
:100CB000E42208008D1708002D1708007D17080092
:100CC0002DE9F04F83B05F4B93F836301B094FD0BE
:100CD00000252C465C4E5D4FDFF88C8105EB05113D
:100CE00006EB8103002246F821205A609A60DA6000
:100CF0001A745A741A625A629A62DA6283F830205D
:100D000083F831209F619F63022C05D9504A514BD3
:100D1000052C98BF1A4600E042464F4BA3FB041334
:100D20005B0803EB4303E31ADBB202EB831305EB2F
:100D3000051206EB82021364136C1433D361136C37
:100D40001833D36320460134E4B223461D2248F20F
:100D50000241DFF81891C8476A1C404B03EB451568
:100D6000AA602546374B93F83630B4EB131FB5DB3A
:100D7000354B3B4ADA674FF400225A614FF40002C8
:100D80009A654FF40032C3F89C204FF00072C3F80C
:100D9000E0204FF08042C3F824214FF00052C3F806
:100DA00068214FF08052C3F8AC214FF00062C3F8C5
:100DB000F02102225A6301229A670822C3F8BC205C
:100DC0002022C3F800214FF40052C3F844218022AE
:100DD000C3F888214FF40042C3F8CC214FF40072CD
:100DE000C3F81022174B93F836301B0926D04FF06A
:100DF000000B5E46DFF850801A4FDFF848904FEA4C
:100E00000B1505EB0B0A08EB8A0ADAF81800DAF87A
:100E100014100024009423462246B847DAF838001C
:100E2000DAF83410009423462246B8470136F6B269
:100E3000B34699F83630B6EB131FE0DB03B0BDE8DC
:100E4000F08F00BF20110720300E072000120E4047
:100E50000080084000400840ABAAAAAAE01507207D
:100E600000140E40B103080000000840ED13080014
:100E70002DE9F04100244E4B1C604E4B1C60322289
:100E80004D4B1A8001274D4B1F804D4B1F804D4B02
:100E90001C604D4B1C604D4B1C604D4B1C604D4B02
:100EA0001C604D4B1C704D4B1C604D4B1C704D4BD2
:100EB0001C704D4B1C604D4B1C604D4D41F28832F7
:100EC0004A212846DFF87481C0474A4E41F2504219
:100ED00040213046C04741F2185240214648C047A1
:100EE0004FF4AF5240214548C04741F2A862A021CB
:100EF0004348C04741F27072C0214248C04795F84C
:100F000036305B0940490B80F37BDBB20A8892B232
:100F100093FBF2F33D4A1370F37B328812B203FB6A
:100F200002F33B4A82FB03021A44DB17C3EB222382
:100F3000DBB2384A13700B889AB24FF4B47393FB48
:100F4000F2F3354A1380F37BDAB24FF4616393FB1B
:100F5000F2F3324A136095F82530C3EB431203EBEA
:100F60008203DB009BB22E4A1380F37F42F21072A1
:100F700003FB02F32B4A136085F8424085F8437067
:100F8000032385F84430022385F845302221264882
:100F9000264B9847264B9847264B03F5007122466F
:100FA00043F8042F8B42FBD1234B9847BDE8F081D7
:100FB000240A0720101F0720EC1A0720C41A072054
:100FC0000C1F0720280A07202C240720CC09072003
:100FD000C4090720D415072085230720741F072084
:100FE00038240720701F0720DC090720D4090720B8
:100FF000201107206C110720E0090720141F07208B
:101000008823072060100720AC1107203A2407200E
:10101000B7600BB6661A0720C21A07206C1F07209C
:10102000C2090720C81A0720B0150720D9120800E6
:10103000B5130800DC150720C10C0800C512080014
:1010400010B442B2C0B200F01F04012303FA04F44A
:1010500053099B0003F1604303F56143C3F88040EB
:10106000C3F88041002A06DA00F00F000901C9B276
:10107000064A115407E00901C9B202F1604202F5C3
:10108000614282F800131C6010BC704714ED00E050
:1010900070B5A0F10B04032C2AD801248440154D0F
:1010A0002C61A0F10B04032C0AD8DFE804F0020441
:1010B0000608114E04E0114E02E0114E00E0114E00
:1010C0001D460C46316411460F4B9847012D02D046
:1010D000022D07D070BDC6F8B040C6F8C040C6F8B3
:1010E000D44070BDC6F8B040C6F8C040C6F8D04085
:1010F00070BD00BF00060E40000E0E4000100E40F6
:1011000000120E4000140E404110080010B5164B9E
:101110001B6882689A4210D103681D2B03D883692B
:1011200042691A6310BD01220274C4690A6C106915
:1011300019460E4B9847206010BD437C93B90A4B6B
:101140001B68C2689A420DD143681D2B03D883697E
:1011500042695A6310BDC4690A6C10691946034B91
:101160009847206010BD00BF741F07206D12080053
:101170002DE9F0472E4BD3F8909003F5B12303F5FA
:10118000C063D3F84CA01AF0800F39D0294B1968EE
:10119000294A116029490A68C2EB09021A60C1F89C
:1011A00000901968264A13680B441360254A137887
:1011B0000133DBB21370244A136801331360012238
:1011C000224B1A70224B93F836301B0918D000239B
:1011D0001C46204F204EDFF878801801C51807EB19
:1011E0008505284629462030B04729462846B0477D
:1011F0000134E4B2234698F83620B4EB121FECDB3E
:101200001AF4004F0AD0154A1368C3EB09031449B6
:101210000B60C2F800900122124B1A70044BD3F8F5
:101220009030C9EB0303104A1360BDE8F08700BF9C
:1012300000800840280A07202C240720C409072022
:10124000DC09072085230720741F07203824072086
:1012500020110720300E07200D110800D41507209B
:10126000CC090720701F0720541F0720401828BFF3
:10127000013070472DE9F04100240E4EDFF8408028
:101280000D4FA5B205F5587080B2B04708F80400BC
:1012900005F5EC6080B2B047385505F5366080B290
:1012A000B047064B18550134B4F5806FE9D1BDE85D
:1012B000F08100BF610C0800F01A0720841F07208E
:1012C0006416072008B5134602461846014B984796
:1012D00008BD00BF8D01080041B1431E4A1E92B2F5
:1012E0001044002203F8012F8342FBD1704700BF56
:1012F0002DE9F04706460F4691469000134B98475C
:101300003060B9F1000F11D009F1FF385FFA88F8A9
:1013100008F101084FEA88080024DFF830A035689A
:101320003846D047285104344445F8D13846074C54
:10133000A04770604846A047B060377386F80D90AC
:1013400009FB07774F44F781BDE8F087F9190800DA
:10135000F8B505460E46437B7BB100240D4F2B6844
:101360003246297B53F82400B8472A7B324496B290
:101370000134E4B26B7BA342F1D83246297B686822
:10138000044CA0472A7B324492B2697BA868A047EC
:10139000F8BD00BFC512080038B504461D46034B12
:1013A000984729462046024B984738BDF11208005D
:1013B0005113080010B50023102211460748084CAD
:1013C000A0474FF49073102211460648A0474FF4EF
:1013D0001073102211460448A04710BD501007207A
:1013E00099130800F41E07205C1F0720082835D831
:1013F0002DE9F0471F4616468846054600F11B0AB0
:101400005046174B9847022D06D9164B164A052D04
:1014100094BF9146994601E0DFF86C90134CA4FB11
:101420000534640804EB44042C1B4246214648461C
:101430000F4B9847394650460E4B98473246214647
:1014400048460D4B9847214648460C4B9847002389
:101450000B4A13700B4A1360BDE8F087704700BF5A
:10146000390608000080084000400840ABAAAAAA3C
:101470008D06080041100800BD060800A5060800FA
:101480002C0A07203C2407200000084038B5037CC4
:101490002BB1836942691A630023037402E08369F4
:1014A00042695A63437C4BB10446C5690B6C1869A9
:1014B0006168034B984728600023637438BD00BF00
:1014C0006D12080038B5044600EB00120E4B03EB1A
:1014D00082031B6C1A691D6A15F0040F07D000EB1C
:1014E0000010094B03EB80000146084B984715F0AC
:1014F000080F08D020010119034B03EB81000146BE
:101500002030024B984738BD300E07208D1408005C
:1015100008B50020014B984708BD00BFC51408005E
:1015200008B50120014B984708BD00BFC51408004D
:1015300008B50220014B984708BD00BFC51408003C
:1015400008B50320014B984708BD00BFC51408002B
:1015500008B50420014B984708BD00BFC51408001A
:1015600008B50520014B984708BD00BFC514080009
:1015700008B50620014B984708BD00BFC5140800F8
:1015800008B50720014B984708BD00BFC5140800E7
:1015900038B5204BD3F89050D3F8A04014F0040F86
:1015A0000CD01D4B1A881D4B93FBF2F22A440221EA
:1015B00018481B4B98471B481B4B984714F0080FC3
:1015C00004D005F64123134AC2F8983014F0100FE6
:1015D00009D005F6412202210E48144B9847144ABF
:1015E00013680133136014F0010F12D00122114B64
:1015F0001A70094B1B88074C084A92FBF3F2022130
:101600002046074B984740F6412202212046074BCF
:10161000984738BD00800840EC1A0720E80D2800E4
:10162000AD06080000000C4035020800B5060800B1
:101630003C2407202C0A0720FF22074B1A700023A6
:10164000064A1370064A1370064A1370064A13704E
:10165000064A1370704700BF200A0720392407206C
:10166000D2090720F21E0720041F0720F11E0720C1
:101670004FF48072084B1A6103F5007350221A6010
:101680004FF400625A600B221A624FF6FF72DA6062
:10169000024A034B1A60704700060E4000090E40D4
:1016A000DC15072008B50C2108200C4B98470023B7
:1016B0000B481A460B49C254CA540133B3F5806F24
:1016C000F9D10023084A1380084A1380084A13807E
:1016D000084A1380084A137008BD00BF4110080073
:1016E000300A0720B0110720D0090720D8090720A9
:1016F00062160720641A0720D815072008B50C21A8
:101700000820034B98470122024B9A6008BD00BF96
:101710004110080000080E40034A536913F0020FFD
:10172000FBD0014BD861704700080E402DE9F8430B
:101730000546012600220E4CDFF83C90B0460D4FC6
:10174000B5FBF4F03030C0B2302802D10AB90A2E0D
:1017500001D1C8474246B5FBF4F304FB1355A7FB80
:101760000434E40801360B2EEAD1BDE8F88300BF4B
:1017700000CA9A3BCDCCCCCC1917080008B50A207A
:10178000014B984708BD00BF1917080070B5054602
:10179000007840B12C461E35054EB04714F8010FB5
:1017A00008B1AC42F9D12020014B984770BD00BF71
:1017B00019170800214B5A69214B1B889BB2E3B1D2
:1017C00012F0020F19D01F490B889BB21E48C35C50
:1017D000DBB21A48C3610B8801339BB20B800988C6
:1017E00089B2174B1B889BB2994206D30023144938
:1017F0000B8014490B800221C16012F0010F1CD034
:101800000E4B996912F0A00F03D04FF480721A604A
:1018100070470E4A13889BB2581C80B21080C9B220
:101820000B48C15413889BB2B3F5806F02D30022DA
:10183000064B1A800122074B1A70704700080E40B1
:10184000D8090720D0090720300A0720641A07208A
:10185000B0110720D8150720F0B585B0344B984754
:10186000344B98470D20344CA0470E20A04700244D
:101870000094234622464FF080413048304DA8471F
:10188000304B9847304B9847304B98473048314E53
:10189000B047314DA847314B9847314B9847314BB2
:1018A0009847314B186802909A889B79ADF80C20C4
:1018B0008DF80E300A22012102A82C4B98472C48A3
:1018C0002C4B984709231D2248F2024108202A4F39
:1018D000B8472A4B1B882A4F2A4A92FBF3F202216F
:1018E0003846294B984740F6412202213846274B7B
:1018F0009847274B9847274B984702232246802139
:101900000B20254FB847022322464FF400410B20FD
:10191000B8472248B047A8478020214B9847A8479E
:101920006F26204D0C4C3046A847A047FBE700BF70
:1019300059020800BD0208003906080000120E40D6
:10194000B103080071160800FD160800A51608006E
:10195000F82208008D1708007D170800010C080008
:10196000710E0800B90A0800F0220800550B0800A3
:1019700000000C4035020800ED130800EC1A0720A7
:1019800000800840E80D2800AD060800B5060800F4
:101990007512080039160800911008000423080089
:1019A0002D1708001917080070B50F4E0F4D761B44
:1019B000B61018BF002405D0013455F8043B9847F1
:1019C000A642F9D10A4E0B4D00F0A6FC761BB610CC
:1019D00018BF002406D0013455F8043B9847A642AE
:1019E000F9D170BD70BD00BF242308002423080076
:1019F0002C23080024230800024B0146186800F03D
:101A000003B800BF580507202DE9F04F01F10B0581
:101A1000162D83B0064640F2A08035F0070500F190
:101A2000C080A94200F2BD8000F09AFAB5F5FC7FB3
:101A3000C0F090826B0A00F0BB80042B00F277812B
:101A4000A80900F1390E4FEA4E013830BE4F07EBBE
:101A500081014C680839A14207D1AEE0002A80F22A
:101A6000AE80E468A14200F0A880636823F003031D
:101A70005A1B0F2AF2DDB4493C6901F1080E744586
:101A800000F0A881636823F003035A1B0F2A00F3B8
:101A90008E81002AC1F814E0C1F810E080F2938032
:101AA000B3F5007F80F05C81DB084A684FEAA30948
:101AB0004FF0010C013351F833800CFA09F901EBB6
:101AC000C30C49EA0202ACF1080CC4F80CC0C4F81B
:101AD00008804A6041F83340C8F80C408310012464
:101AE0009C4094427CD8144206D120F0030064004C
:101AF000144200F10400FAD007EBC009CC4680463E
:101B0000DCF80C108C4507D166E1002A80F2748164
:101B1000C9688C4500F060814B6823F003035A1BB1
:101B20000F2AF2DD0C46CB6854F808CF45F00108C7
:101B3000C1F804800D4442F00101CCF80C3030466D
:101B4000C3F808C07D613D61C5F80CE0C5F808E048
:101B50006960AA5000F006FA1FE0102921D800F0B1
:101B6000FFF9102506230220774F07EB83035C68FB
:101B7000A3F10802944200F038816368E16823F021
:101B8000030323445A68A56842F00102E960304625
:101B90008D605A6000F0E6F90834204603B0BDE8D5
:101BA000F08F002420460C23336003B0BDE8F08F93
:101BB00080214FF0400E3F2048E770465BE723440A
:101BC0005A68E168DFE723445A68304642F0010270
:101BD0005A60083400F0C6F9204603B0BDE8F08F23
:101BE000BC68636823F00308A84504D3C5EB080369
:101BF0000F2B00F38C80554BDFF860911A68D9F8F1
:101C000000302A44013304EB080A00F0608102F539
:101C100080520F3222F47F6222F00F0211463046CA
:101C2000019200F0A1F9B0F1FF3F8346019A00F064
:101C30005881824500F2FC80454BDA451968114411
:101C4000196000F05381D9F80000DFF810E101308D
:101C50001BBFCAEB0B0A5144CEF800B019601BF051
:101C6000070100F01781C1F10800C1F580518344DC
:101C700008315A44C2F30B02C2EB0109494630460F
:101C8000019300F071F9431C019B00F03F81CBEB05
:101C900000024A4442F001021968BC424944C7F8B4
:101CA00008B01960CBF80420DFF8A49016D0B8F182
:101CB0000F0F40F2FD806268A8F10C0323F00703C8
:101CC00002F00102E0184FF0050E1A430F2B62607C
:101CD000C0F804E0C0F808E000F21C811D4BBC68AD
:101CE0001A68914288BF19601B4B1A68914262685A
:101CF00088BF196022F003029542A2EB050301D8C8
:101D00000F2B04DC304600F02DF9002445E745F0A8
:101D1000010243F00103254462603046BD6008348F
:101D20006B6000F01FF9204603B0BDE8F08F142B64
:101D300071D9542B00F2A480280B00F16F0E4FEAEA
:101D40004E016E3082E600BF5C0507209409072033
:101D500098090720900907208C09072068090720A7
:101D60005A0A042A5ED9142A00F2B38002F15C01F7
:101D700049005B3207EB810C57F82110ACF1080CDD
:101D80008C45DFF8D88100F088804A6822F0030291
:101D9000934202D289688C45F7D1D1F80CC07A6899
:101DA000C4F80CC0A160CCF80840CC6096E645F0C1
:101DB000010742F001032544676030464D610D6123
:101DC000C5F80CE0C5F808E06B60AA50083400F0D4
:101DD000C9F8E2E64A6881E608F1010818F0030F45
:101DE0000CF1080C7FF48CAE30E0DC68A34208BF35
:101DF00002303FF440AEC0E60C460B445A68C96856
:101E000054F8085F42F001025A603046E9608D6084
:101E100000F0A8F8C1E603F15C0E03F15B004FEAA5
:101E20004E0113E69A0902F1390149003832A1E75F
:101E3000BC424A4B3FF400AF9C68626822F0030248
:101E40005AE759F80839994540F0828010F0030F9D
:101E500000F1FF30F5D17B6823EA04037B60640066
:101E60009C423FF6BDAE002C3FF4BAAE1C42404649
:101E70007FF442AE64001C4200F10400FAD03BE65D
:101E8000B3F5AA7F18D8E80B00F1780E4FEA4E019F
:101E90007730DBE54FF48051EBE60121D8F80430D0
:101EA000921001FA02F21A43C8F80420614677E75B
:101EB0000123CBF8043025E740F25452934220D856
:101EC000A80C00F17D0E4FEA4E017C30BEE51032C9
:101ED000A4E6542A26D81A0B02F16F0149006E328B
:101EE00048E7BC68626822F0030205E7CAF30B000A
:101EF00000287FF4A8AE4244BB6842F001025A6059
:101F0000ECE6FE214FF07F0E7E209FE501224FF090
:101F10000009C1E604F10801304600F0A9F8D9F83B
:101F20000010DBE6B2F5AA7F05D8DA0B02F17801E2
:101F3000490077321EE740F254518A4205D89A0C84
:101F400002F17D0149007C3214E7FE217E2211E777
:101F50007B6884E7E808431C5B0005E65C05072016
:101F6000704700BF704700BF38B5074C00230546D7
:101F700008462360FEF786FD431C00D038BD236869
:101F8000002BFBD02B6038BD48240720024B13B137
:101F9000024800F005B8704700000000AD1F0800BF
:101FA000002301461A46184600F04AB938B5074DD5
:101FB000074C2C1BA41005D0013C55F8043D984754
:101FC000002CF9D1BDE8384000F0B0B93C2308003E
:101FD00038230800F8B50C46224F0646FFF7C0FF2D
:101FE000BB685D6825F00305291B01F6EF7121F43C
:101FF0007F6121F00F01A1F58054B4F5805F07DB0C
:1020000000213046FFF7B0FFBB682B44984204D054
:102010003046FFF7A7FF0020F8BD61423046FFF7CA
:10202000A3FF01300DD0104BBA6819682D1B45F085
:1020300001053046091B55601960FFF793FF012029
:10204000F8BD00213046FFF78FFFBA68831A0F2BC7
:10205000DEDD064C0449246843F00103001B536095
:102060000860D5E75C050720980907206809072064
:10207000002945D02DE9F0410D468046FFF770FF5D
:1020800055F8047C6A49A5F1080427F00103E21819
:102090008E685068B24220F0030062D0FE075060A4
:1020A0000BD455F8087C01F1080EE41BA5683B44ED
:1020B00075456FD0E768EF60BD6015186D68ED0776
:1020C00042D543F001026260E350B3F5007F18D2BD
:1020D000DB0848689D100122013351F8337002FA81
:1020E00005F501EBC3022843083AE260A7604860A7
:1020F00041F83340FC604046BDE8F041FFF732BF95
:1021000070475A0A042A53D89A0902F139077F0006
:1021100002F1380501EB870051F82720083890427A
:1021200043494DD0516821F003018B4202D292689D
:102130009042F7D1D068E060A2608460D4604046ED
:10214000BDE8F041FFF70EBF95683A4F0344BD422A
:102150003FD0D06843F00102E86085606260E350E0
:10216000B3E7FF07034407D455F8085C641BE26833
:10217000A0682B44C26090602F4A43F001001268AF
:10218000606093428C60B6D32C4B40461968FFF7D1
:1021900021FFB0E711184968C90744D49168034486
:1021A000D26843F00100CA6091606060E350A2E72A
:1021B000142A17D802F15C077F0002F15B05A9E73A
:1021C000AA104B68012505FA02F213434B60024640
:1021D000B1E743F001024C610C61E560A56062600B
:1021E000E35088E7542A06D81A0B02F16F077F00E4
:1021F00002F16E058EE7B2F5AA7F06D8DA0B02F17E
:1022000078077F0002F1770584E740F2545082425C
:1022100006D89A0C02F17D077F0002F17C0579E770
:10222000FE277E2576E743F001026260E35062E715
:102230005C0507206405072064090720940907202E
:102240002DE9F047254C064625688846D5F84841D3
:1022500092469946C4B360681F2817DC411C76B1CA
:1022600004EB8003C3F888A0D4F88851012282408F
:102270001543022EC4F88851C3F808911ED0831C60
:102280006160002044F82380BDE8F087144B03B35D
:102290004FF4C870FFF7B0FB0446D0B1D5F8483111
:1022A000002784E888003846C5F848410121C4F871
:1022B0008871C4F88C71002EE1D0D1E7D4F88C314C
:1022C0001A43C4F88C21DAE705F5A674C5F848412D
:1022D000C1E74FF0FF30BDE8F08700BF14230800CE
:1022E000F91908005477694661756C743A2000004A
:1022F00004060507000C0500496E697420626567D5
:10230000696E0000496E697420646F6E650000009C
:102310004300000030010720F8B500BFF8BC08BC3E
:102320009E4670478D1F080019010800F8B500BFD0
:0C233000F8BC08BC9E467047F500080091
:10233C004FF48063204A136002F5007213601F4B48
:10234C001B6A13F0807F07D11D4A1C4B1A621A4678
:10235C00936E13F0010FFBD01A4A184B1A621A46EF
:10236C00936E13F4803FFBD0144A136B23F00303DA
:10237C0043F001031363936E13F0080FFBD0124A62
:10238C000E4B9A621A46936E13F0020FFBD0112279
:10239C000A4B1A631A46936E13F0080FFBD01222E5
:1023AC00064B1A631A46936E13F0080FFBD0074ABC
:1023BC00074B1A60704700BF000A0E4000060E4023
:1023CC000908370009083701013F0D2000BD010540
:1023DC002C0107201B4B984206D800231A4A136085
:1023EC0002F5007213607047184B984207D84FF4EF
:1023FC008073154A136002F5007213607047144B1A
:10240C00984207D84FF400730F4A136002F500721C
:10241C00136070470F4B984207D84FF440730A4A29
:10242C00136002F50072136070470B4B984294BF17
:10243C004FF480634FF4A063034A136002F50072FB
:10244C0013607047BFEA2101000A0E407FF0FA02C8
:10245C00FF8FD003FFB3C4047F4A5D0500093D0024
:10246C00000000001C04072084040720EC04072053
:10247C000000000000000000000000000000000050
:10248C000000000000000000000000000000000040
:10249C0000000000102308000000000000000000F5
:1024AC000000000000000000000000000000000020
:1024BC000000000000000000000000000000000010
:1024CC000000000000000000000000000000000000
:1024DC0000000000000000000000000000000000F0
:1024EC0000000000000000000000000000000000E0
:1024FC0000000000000000000000000000000000D0
:10250C0000000000000000000100000000000000BE
:10251C000E33CDAB34126DE6ECDE05000B00000083
:10252C00000000000000000000000000000000009F
:10253C00000000000000000000000000000000008F
:10254C00000000000000000000000000000000007F
:10255C00000000000000000000000000000000006F
:10288C0000000000000000003001072000000000E4
:10289C00000000005C0507205C050720640507208C
:1028AC00640507206C0507206C05072074050720BC
:1028BC00740507207C0507207C050720840507206C
:1028CC00840507208C0507208C050720940507201C
:1028DC00940507209C0507209C050720A4050720CC
:1028EC00A4050720AC050720AC050720B40507207C
:1028FC00B4050720BC050720BC050720C40507202C
:10290C00C4050720CC050720CC050720D4050720DB
:10291C00D4050720DC050720DC050720E40507208B
:10292C00E4050720EC050720EC050720F40507203B
:10293C00F4050720FC050720FC05072004060720EA
:10294C00040607200C0607200C0607201406072097
:10295C00140607201C0607201C0607202406072047
:10296C00240607202C0607202C06072034060720F7
:10297C00340607203C0607203C06072044060720A7
:10298C00440607204C0607204C0607205406072057
:10299C00540607205C0607205C0607206406072007
:1029AC00640607206C0607206C06072074060720B7
:1029BC00740607207C0607207C0607208406072067
:1029CC00840607208C0607208C0607209406072017
:1029DC00940607209C0607209C060720A4060720C7
:1029EC00A4060720AC060720AC060720B406072077
:1029FC00B4060720BC060720BC060720C406072027
:102A0C00C4060720CC060720CC060720D4060720D6
:102A1C00D4060720DC060720DC060720E406072086
:102A2C00E4060720EC060720EC060720F406072036
:102A3C00F4060720FC060720FC06072004070720E5
:102A4C00040707200C0707200C0707201407072092
:102A5C00140707201C0707201C0707202407072042
:102A6C00240707202C0707202C07072034070720F2
:102A7C00340707203C0707203C07072044070720A2
:102A8C00440707204C0707204C0707205407072052
:102A9C00540707205C0707205C0707206407072002
:102AAC00640707206C0707206C07072074070720B2
:102ABC00740707207C0707207C0707208407072062
:102ACC00840707208C0707208C0707209407072012
:102ADC00940707209C0707209C070720A4070720C2
:102AEC00A4070720AC070720AC070720B407072072
:102AFC00B4070720BC070720BC070720C407072022
:102B0C00C4070720CC070720CC070720D4070720D1
:102B1C00D4070720DC070720DC070720E407072081
:102B2C00E4070720EC070720EC070720F407072031
:102B3C00F4070720FC070720FC07072004080720E0
:102B4C00040807200C0807200C080720140807208D
:102B5C00140807201C0807201C080720240807203D
:102B6C00240807202C0807202C08072034080720ED
:102B7C00340807203C0807203C080720440807209D
:102B8C00440807204C0807204C080720540807204D
:102B9C00540807205C0807205C08072064080720FD
:102BAC00640807206C0807206C08072074080720AD
:102BBC00740807207C0807207C080720840807205D
:102BCC00840807208C0807208C080720940807200D
:102BDC00940807209C0807209C080720A4080720BD
:102BEC00A4080720AC080720AC080720B40807206D
:102BFC00B4080720BC080720BC080720C40807201D
:102C0C00C4080720CC080720CC080720D4080720CC
:102C1C00D4080720DC080720DC080720E40807207C
:102C2C00E4080720EC080720EC080720F40807202C
:102C3C00F4080720FC080720FC08072004090720DB
:102C4C00040907200C0907200C0907201409072088
:102C5C00140907201C0907201C0907202409072038
:102C6C00240907202C0907202C09072034090720E8
:102C7C00340907203C0907203C0907204409072098
:102C8C00440907204C0907204C0907205409072048
:0C2C9C005409072000000200FFFFFFFFAA
:04000003800008BDB4
:00000001FF
