:0200000280007C
:1000000088410720C5090800C1090800C109080086
:10001000C1090800C1090800C1090800000000006A
:10002000000000000000000000000000C1090800FE
:10003000C109080000000000C1090800C10908004A
:10004000C1090800C1090800C1090800C109080068
:10005000C1090800C1090800C1090800C109080058
:10006000E5200800C1090800000000003511080063
:10007000C1090800C1090800C1090800000000000A
:1000800000000000C1090800C1090800C1090800FA
:10009000C1090800C1090800C1090800C109080018
:1000A000C109080000000000C1090800D9160800B5
:1000B000DD160800E1160800E5160800E91608003C
:1000C000ED160800F1160800F5160800F9160800EC
:1000D000C1090800B50C0800C1090800C1090800E1
:1000E000C1090800C1090800C1090800C1090800C8
:1000F000C109080010B5054C237833B9044B13B17E
:100100000448AFF300800123237010BD6C09072061
:100110000000000024390800084B10B51BB1084945
:100120000848AFF300800848036803B910BD074BC7
:10013000002BFBD0BDE81040184700BF00000000B6
:100140007009072024390800243908000000000045
:100150002DE9F04782B00446002202AB03F8012DDE
:1001600090F800A0D0F80490D0F80880C76802701A
:10017000426083600123C360084E094D214630462A
:10018000A8470028FAD184F800A0C4F80490C4F865
:100190000880E76002B0BDE8F08700BF00000940BA
:1001A0003909080010B588B08DF8071050238DF874
:1001B0001C30030A8DF80C308DF80D0002230493D7
:1001C0000DF1070305930123069303A90648074B86
:1001D000984720B9044603A8054B984700E001243E
:1001E000204608B010BD00BF0000094039090800D2
:1001F0005101080000B587B050238DF81430030A70
:100200008DF804308DF80500022302930391012339
:10021000049301A90448054B9847003018BF0120FA
:1002200007B05DF804FB00BF000009406508080046
:1002300030B4012404600025456040F20224C0F877
:100240002041C0F80451C0F8145144685200B1FB79
:10025000F2F14A1E120292B223431A434260284628
:1002600030BC7047436823F0100343604368194370
:10027000416070474368D201D2B2194311434160D3
:10028000704700BF10B44468090601F07061224352
:100290000A431B0703F040531343436010BC7047ED
:1002A00002230360704700BF012303FA01F10161DB
:1002B000704700BF036C43F080730364704700BF56
:1002C0004162704710B50E480E4B98473E21002002
:1002D0000D4B98470D4CA0470028FCD00C4B98477D
:1002E0000C4A0D4B9A620D4CA0470028FCD0102000
:1002F0000B4B98470B4B98470148024B984710BD52
:1003000000BD0105A50007202506080079060800A4
:1003100089060800013F0D2000060E4099060800DE
:10032000BD050800710A080010B54FF40042164BD5
:100330005A600B20154CA0470C20A0470D20A04769
:100340000E20A0474FF060513B20114CA0474FF0CA
:1003500060515520A0474FF060515620A0470D49ED
:100360006820A0470C495C20A0470C4A4FF440711C
:100370000B480C4B98474FF000612B20A0474FF0E3
:1003800000612A20A04710BD501A0E40A90608009F
:100390004904080079000028010000280100000835
:1003A000000E0E401D050800416370474264B1F124
:1003B000805F16D004D8C1B1B1F1006F0AD013E04C
:1003C000B1F1405F11D0B1F1605F0ED0B1F1205FAB
:1003D0000AD17047016F036F0B4023EA02030367E2
:1003E00002E0036F1343036742607047416412F0F9
:1003F000010F14BF4166016612F00A0F14BF0162BB
:10040000416212F0020F02D0C0F8801004E012F036
:10041000080F18BFC0F8841041610160704700BF29
:1004200010B44164019C0CB1416600E001660BB15F
:10043000016500E041650AB1016300E041630161CB
:10044000016010BC704700BF70B582B00D46430913
:1004500003F5001303F207735C0201F0F043B3F1FC
:10046000205F30D006D8B3F1006F0AD0B3F1805FBF
:1004700018D049E0B3F1405F30D0B3F1605F2DD0C8
:1004800042E000F01F000126864032464FF0006136
:1004900020461F4B984715F0010F14BF666626666D
:1004A000012032E000F01F000126864032464FF066
:1004B00080512046164B984715F0010F14BF666611
:1004C0002666012021E000F01F0101262A4606FAD7
:1004D00001F120460F4B9847304616E005F0605278
:1004E00000F01F01012605EA06030093C5F380030F
:1004F000B2F1605F14BF0022012206FA01F120462A
:10050000054CA047304600E0002002B070BD00BF9F
:10051000AD030800ED0308002104080070B582B0A7
:1005200005460E46144602F0F043B3F1205F26D094
:1005300006D8B3F1006F0AD0B3F1805F13D034E076
:10054000B3F1405F1FD0B3F1605F1CD02DE00A46CD
:100550004FF00061164B984714F0010F14BF6E6600
:100560002E66012022E00A464FF08051104B98473A
:1005700014F0010F14BF6E662E66012016E00D4BBD
:100580009847012012E004F0605204F00103009348
:10059000C4F38003B2F1605F14BF00220122314630
:1005A0002846054CA047012000E0002002B070BDA5
:1005B000AD030800ED03080021040800184A136B7E
:1005C00023F0700318431063936E13F0080F03D0E9
:1005D00009E0013B03D11EE04FF4006310498A6E2D
:1005E00012F0080FF5D00E4A136B23F0030343F00B
:1005F00002031363906E10F0080004D000207047CF
:10060000013B03D109E04FF4006305498A6E12F003
:10061000080FF5D07047012070470120704700BFD8
:1006200000060E4038B111490B6A114A1A40114BAD
:1006300013430B6270470D48026A090289B222F423
:100640005C1323F0030343F45C1343F001030B43F7
:1006500003620246936E13F0010FFBD0034A136A44
:1006600043F09B7343F480331362704700060E40DF
:10067000FCFFC8FE02003701024B986E00F4803088
:10068000704700BF00060E404FF00052014B9A62C7
:10069000704700BF00060E40024B986E00F002004B
:1006A000704700BF00060E402C281ED81F280CD80B
:1006B000114B9A6901238340934318D0012303FA15
:1006C00000F00D4B18610020704720380A4BD3F81A
:1006D00008210123834093430BD0012303FA00F048
:1006E000054BC3F80001002070470120704700202F
:1006F00070470020704700BF00060E4010B489010B
:100700004318022444504FF0FF319962196A5A602D
:1007100010BC7047890105234350704700EB8111DD
:100720000869704700EB81114A61704700EB811145
:100730008A61704700EB8111CA61704700EB81113B
:100740004A6270472B4B994249D8A3F57A53994294
:100750002BD910B4284CA4FB0234A40B043C274B27
:100760000B449B00B2FBF3F2043AFF2C39D900236F
:1007700001336408FF2C02D9072BF9D10AE0FF2AC4
:1007800008D9062B00D905E001335208FF2A01D908
:10079000062BF9D9120292B21B0403F4E0231A4388
:1007A000E4B222430261002021E04900B2FBF1F2F1
:1007B000043AFF2A07D9002301335208FF2A03D93C
:1007C000072BF9D100E00023110289B21B0403F4C6
:1007D000E0230B43D2B21A4302610020704701208C
:1007E0007047FF2A88BF0023CED80023D2E710BC71
:1007F000704700BF801A0600F11976050012FD3F10
:1008000038B504460D464FF0FF338362036A8023F8
:100810000360036B08230360202303600423036049
:100820000A684968054B9847012814BF0020012039
:100830006B7A012B04BF4023236038BD45070800B5
:100840000A4659B103780129C4BF417841EA03231C
:10085000022A05DD807840EA0320704700207047B7
:10086000184670472DE9F041CC68002C45D00B4666
:1008700005468E68002068604A68120202F44072E1
:1008800042F480511A7C120402F4FE020A436A60A8
:10089000E86059681846274B9847E860012C04D156
:1008A00003232B604FF0010E33E001232B604FF048
:1008B000000E2EE00A462B6A13F4807F20D1511ED1
:1008C0000AB3012C06D1BEF1000F2FD1C5F800806C
:1008D000E6462BE013F0020F05D02B6B3370013C82
:1008E00001363A4600E00A46002CE4D12B6A13F0A8
:1008F000010FFBD02B6ABDE8F0810120BDE8F0813B
:100900000520BDE8F0810920BDE8F0810520BDE8A3
:10091000F0812B6A13F48070F8D143F6972143F6E7
:1009200098274FF002084FF0010CCAE713F0020FAE
:10093000C0D0D2E74108080070B5CD68002D34D092
:100940000B4604468E68002060600A7C120402F4A4
:10095000FE015A68120202F440720A436260E060CB
:1009600059681846154B9847E060236A13F4807F56
:1009700004D01CE0236A13F4807F1AD113F0040F13
:1009800003D033786363013D0136002DF2D1236A31
:1009900013F480700FD113F0040FF8D002232360FA
:1009A000236A13F0010FFBD070BD012070BD05203C
:1009B00070BD052070BD052070BD00BF4108080056
:1009C000FEE700BF08B51E4B1E4A9A4203D01E4BDD
:1009D0001B4A9A4204D31D4B1D4A9A420FD31AE078
:1009E00017491C4B5B1A23F003030433154A1344C5
:1009F00052F8040B41F8040B9A42F9D1EBE7164B7D
:100A0000164AD21A22F003021A44043B002143F88A
:100A1000041B9342FBD1124B23F0604222F07F0271
:100A200010498A6003F16043B3F5801F03D28B68DD
:100A300043F000538B600C4B98470C4B9847FEE7F4
:100A400000000720243908006C09072088210720AE
:100A50006C0907206B090720700907208B210720EC
:100A60000000080000ED00E08D2E0800A121080024
:100A70003E4B1B6B03F00303032B5FD8DFE803F04F
:100A8000020E2B2B3A4B5B6913F0800F14BF4FF40F
:100A900000424FF4FA42374B1A604FE0334B1B6A67
:100AA00013F0807F03D0344A324B1A6046E0334A59
:100AB000304B1A602D4B1B6A03F07003102B02D0D1
:100AC000202B04D03AE02E4A2A4B1A6036E02A4AFC
:100AD000284B1A6032E0254B1B6A13F0807F03D04D
:100AE000254A244B1A6012E0244A224B1A601F4BFD
:100AF0001B6A03F07003102B02D0202B04D006E0F9
:100B00001F4A1C4B1A6002E01B4A1A4B1A60174B13
:100B10001B6B03F00303022B0DD1144A936A926AF4
:100B20001448C3F30A41036801FB0333D2B2B3FB99
:100B3000F2F3036002E0134A0E4B1A600B4B1B6B7F
:100B400003F07003702B07D10A4A13680E49A1FB0A
:100B500003135B0813607047044B1B6B0549C3F319
:100B600002120B68D3400B60704700BF00060E40B6
:100B7000101A0E402C010720001BB70000093D0091
:100B800000127A00001C4E0EABAAAAAA094B1B68E1
:100B900013B9094A074B1A60064B1B681A18074914
:100BA000914204DB1046034A1060184670474FF02C
:100BB000FF3070478809072088410720FC7F082004
:100BC00070B52520194B9847194C4FF48023194ACA
:100BD00019492046194DA84701234FF440121946E0
:100BE0002046174DA84710212046164B9847002253
:100BF00011462046144B98472046144B9847002333
:100C0000134E1A46134C144DD9B2062998BFF2540C
:100C100003EB430004EB400124F810204A808A8053
:100C2000EA5401330F2BEFD170BD00BFA9060800B5
:100C300000000C4040420F00007A030A3102080015
:100C4000850208006502080075020800B502080068
:100C5000D41C0720F4170720501807202DE9F0476F
:100C600089469246451E0024DFF83C800C4F0D4E0D
:100C700015F8011F4046B8472B7833550134072C2F
:100C8000F6D1B9F1000F08D04FF080710648074B3C
:100C9000984751462520064B9847BDE8F08700BF8E
:100CA000A9020800D41C072000000C40C102080063
:100CB0006910080010B40F4B1B6A9BB2190B0E4849
:100CC000445CC3F30B0301EB410222440B4C24F8B8
:100CD0001230435C01330A4A82FB0342A2EBE37207
:100CE00002EB42029B1ADBB243540122054B1A70FD
:100CF00010BC704700000C4050180720F417072064
:100D000056555555D11C072000B585B01720104BFE
:100D10009847104B4FF4805159644FF400525A6475
:100D200059605A60186F20F480501867186F20F4CB
:100D30000050186759665A66074B0193074B029398
:100D400001A90748074B984705B05DF804FB00BFB1
:100D5000A906080000100E4000BD0105801A06001B
:100D60000000094001080800F0B583B0074602AD55
:100D7000002305F8013D0A240D4E29463846B047A8
:100D800010F0010F02D19DF807000FE0631E13F071
:100D9000FF04F2D1074D01242C750748074B9847F3
:100DA000287D074B9847074B9847204603B0F0BD76
:100DB000F5010800DC170720C8370800BD2008002F
:100DC0005D200800AD20080070B50546044EB04710
:100DD0000446681C80B2B04744EA002080B270BD6F
:100DE000690D08002DE9F8433A4DB5F80E801FFA59
:100DF00088F8AC88A4B2AE79F6B2374A21464046AC
:100E0000DFF8E090C8470746C3B2EB74334A214687
:100E10004046C8478046C3B22B75A4B20025A00047
:100E20000021CB0143EA5063C20112184B41121951
:100E30006B41190141EA1271100112184B4119015D
:100E400041EA1271100124184D412B0243EA146348
:100E5000220214461D46BAB2A4FB020102FB051190
:100E60001F4F4FF439720023B8478C00820044EAC8
:100E700090735D0145EAD2655401A41A65EB030540
:100E800000196941CB0043EA5073C200104619466D
:100E900040F27C420023B8478C00820044EA907301
:100EA0005D0145EAD2655401A41A65EB03050019FA
:100EB0006941CB0043EA5073C20010461946C8226C
:100EC0000023B84706F1E90208FB02F20023B84705
:100ED000BDE8F883B4130720600E0720681C0720C4
:100EE0006D2B0800F912080010B40022064C1346BE
:100EF0001001211823504B608B60CB600132042A13
:100F0000F6D110BC704700BF200E072070B540F628
:100F10006570104EB047104C20704FF47660B047AB
:100F200080B2608040F66170B04780B2A08000253A
:100F3000E580258140F66270B047A07240F663708C
:100F4000064B9847A081E5812582A574E574257537
:100F500070BD00BF690D0800DC170720C90D08002F
:100F600010B50023264A13603221264A118001223F
:100F700025490A8025490A8025490B6025490B60CF
:100F800025490B6025490B6025490A80254A1370C5
:100F9000254A1370254A13600C22254B1A7041F222
:100FA000883242212348244CA04741F2504240213C
:100FB0002248A04741F2185240212148A0474FF44F
:100FC000AF5240211F48A04741F2A862A0211E480D
:100FD000A04741F27072C0211C48A0471022114660
:100FE0001B481C4CA047102211461B48A04710224A
:100FF00011461A48A0471A4B98471A4B984710BDFC
:10100000140A0720601807204E1807207A1C0720B2
:10101000180A0720C4090720C0090720D413072095
:10102000DC20072080210720D01C0720BC1C0720C3
:1010300082210720300F07201D150800740F07209C
:10104000D00907207C1C0720E0200720700E072015
:10105000600E072045150800681C0720C01C0720EB
:10106000E90E08000D0F080010B442B2C0B200F043
:101070001F04012303FA04F453099B0003F16043A6
:1010800003F56143C3F88040C3F88041002A06DAC3
:1010900000F00F000901C9B2064A115407E0090126
:1010A000C9B202F1604202F5614282F800131C608D
:1010B00010BC704714ED00E070B5A0F10B04032CD8
:1010C0002AD801248440154D2C61A0F10B04032C77
:1010D0000AD8DFE804F002040608114E04E0114EBD
:1010E00002E0114E00E0114E1D460C4631641146DF
:1010F0000F4B9847012D02D0022D07D070BDC6F8C6
:10110000B040C6F8C040C6F8D44070BDC6F8B04084
:10111000C6F8C040C6F8D04070BD00BF00060E4003
:10112000000E0E4000100E4000120E4000140E4043
:101130006910080010B4144BD3F89030134AD26CE5
:1011400012F0800F12D0124C2168591A1148016018
:101150002360046810480168214401600F48018839
:10116000013189B2018001200D49087012F4004F4D
:1011700008D00C490A689A1A0B4802600B600122D9
:101180000A4B1A7010BC704700800840000E0E40D9
:10119000C0090720180A0720BC1C0720DC200720F4
:1011A00080210720D4130720C4090720D01C072062
:1011B00001FB02F200EBA220704700BF002AA3BF90
:1011C000514391FBF3F3C01800207047F8B500AF0E
:1011D000054608464B00083323F00703ADEB030D2B
:1011E0006C4600293BD0AB1EADF10202013989B239
:1011F00005EB410533F8021F22F8021FAB42F9D17B
:1012000001281AD82BE024F81E2024F81650013BA0
:101210009BB24BB19E4604EB430234F813505E1E62
:1012200032F8022C9542EED3844518D201310CF1EC
:10123000010C1FFA8CFC89B202E04FF0020C012174
:101240000029F3D08E4604EB410334F811504E1EB2
:1012500033F8022C954238BF0B46D4D3E4E7084B51
:1012600098470022074B084DA8470022054B074D21
:10127000A847074B984780B234F81000BD46F8BD28
:101280003D2608000000E03FA523080009270800CC
:101290002D2B0800F0B5BDF814E09DF81870C7B10B
:1012A00001380025EEB210F8014F04FB0EF4A4B291
:1012B0008C4201D2167008E08C4201D91E70F0BD3C
:1012C0008C4202D116701E70F0BD0135ECB2A742FF
:1012D000E8D8F0BD88420AD990420AD2401A642365
:1012E00003FB00F0511AB0FBF1F0C0B270470020D0
:1012F00070476420704700BF2DE9F04F85B08046ED
:101300008B46144600238DF80F308DF80E300F23D6
:101310008DF80D308DF80C30102601966423009363
:101320000DF10D030DF10F0201466068264DA8472F
:1013300001960123009303AB0DF10E025946A068FC
:10134000A84763689DF80F609DF80D505A5D02EB49
:10135000820202EB8202920092B2995D01EB81015E
:1013600001EB8101890089B24046184FB847804699
:10137000A3689DF80EA09DF80C9013F8092013F8AF
:101380000A105846B847226852F82A30C8F164015A
:1013900052F829409A5D5B5D08FB03F301FB0233C1
:1013A000C0F16407A25D645D08FB04F801FB0288DC
:1013B00000FB08F007FB0300054BA3FB0030C0F364
:1013C0004F3005B0BDE8F08F95120800D512080027
:1013D0005917B7D12DE9F0410024184EDFF870807D
:1013E000174FA5B205F5587080B2B04708F8040051
:1013F00005F5EC6080B2B047385505F5366080B22F
:10140000B047104B18550134B4F5806FE9D140F660
:1014100062700A4DA8470C4CA07240F663700B4BEB
:101420009847A0814FF47660A84780B2608040F66C
:101430006170A84780B2A080BDE8F081690D080006
:1014400064180720DC1C0720DC170720C90D0800E2
:10145000DC1307202DE9F843274E03213046274FA0
:10146000B847274B1B5CDBB2264CE371032106F126
:101470000C00B847244B1B5CDBB2A3710321B01DE9
:10148000B847224B1B5CDBB2A372214D95F80A8052
:101490005FFA88F8B5F80C901FFA89F9032106F174
:1014A0001200B847024649464046DFF86C80C04704
:1014B00080B2A080183E03213046B847C0F38700B1
:1014C0002072227A6988AB8868881B1A521A9BB2EC
:1014D00012B2642100200F4DA847C0B2207603212C
:1014E00006F14800B847024696210020C047C0B226
:1014F0006072BDE8F88300BF0C180720CD1108000A
:10150000DC130720B413072064180720DC1C072015
:10151000DC170720BD110800B111080079B1F8B53A
:101520000E46144605461644B6B2054F2046B84747
:1015300005F8010B0134A4B2B442F7D1F8BD7047ED
:10154000690D08002DE9F04706460F4691469000C8
:10155000134B98473060B9F1000F11D009F1FF38F3
:101560005FFA88F808F101084FEA88080024DFF8DC
:1015700030A035683846D047285104344445F8D166
:101580003846074CA04770604846A047B0603773A4
:1015900086F80D9009FB07774F44F781BDE8F08787
:1015A000DD2E0800F8B505460E46437B7BB10024CE
:1015B0000D4F2B683246297B53F82400B8472A7B0D
:1015C000324496B20134E4B26B7BA342F1D8324686
:1015D000297B6868044CA0472A7B324492B2697B1D
:1015E000A868A047F8BD00BF1D15080038B504461F
:1015F0001D46034B984729462046024B984738BD65
:1016000045150800A515080010B500231022114645
:101610000748084CA0474FF4907310221146064823
:10162000A0474FF41073102211460448A04710BD84
:10163000600E0720ED150800681C0720C01C07205D
:10164000082833D82DE9F0471F4616468846054638
:1016500000F11B0A5046164B9847022D06D9154B30
:10166000154A052D94BF9146994601E0DFF8649034
:10167000124CA4FB0534640804EB44042C1B4246C2
:10168000214648460E4B9847394650460D4B9847E1
:101690003246214648460C4B9847214648460B4B5C
:1016A000984700220A4B1A70BDE8F087704700BFC8
:1016B000A90608000080084000400840ABAAAAAA7A
:1016C000FD060800691008003D070800150708001E
:1016D0001C0A072000000840704700BF704700BF89
:1016E000704700BF704700BF704700BF704700BF22
:1016F000704700BF704700BF38B5254C0221204617
:10170000244B98470546D4F8A04014F0040F0CD0A1
:10171000214B1A88214B93FBF2F2024402211C4810
:101720001F4B98471F48204B984714F0080F09D0CB
:101730001E4B1A88194B93FBF2F22A4402211448DB
:101740001B4B984714F0100F09D01A4B1A88134BF3
:1017500093FBF2F22A4402210D48174B984714F0EC
:10176000010F14D00122154B1A700B4B1A880B4D28
:10177000074C95FBF2F202212046094B98470B4B90
:101780001A8895FBF2F202212046094B984738BD92
:10179000008008401D07080060180720E80D280099
:1017A0002507080000000C40A10208004E18072081
:1017B0002D0708007A1C0720350708001C0A07209F
:1017C000FF22074B1A700023064A1370064A137053
:1017D000064A1370064A1370064A1370704700BF1A
:1017E000100A072081210720CA090720651C07204D
:1017F000781C0720641C0720F8B500AFCB1D23F030
:101800000703ADEB030D6E4659B1431E0DF1FF32D8
:101810004C1EA4B2051913F8014F02F8014FAB4258
:10182000F9D13046014B9847BD46F8BD991F0800D5
:1018300070B50546437B5BB10024094E2B68297BBC
:1018400053F82400B0470134E4B26B7BA342F5D8CF
:10185000297B6868024CA047697BA868A04770BDD7
:10186000F917080008B51B4B1B78013B082B2FD834
:10187000DFE803F005090E12171B20252A00164881
:10188000164B984708BD42211548164B984708BD8E
:101890001548124B984708BD40211448114B9847F2
:1018A00008BD13480D4B984708BD402111480D4B0A
:1018B000984708BD402110480A4B984708BDA02111
:1018C0000E48084B984708BDC0210D48054B984766
:1018D00008BD00BF100A0720600E0720311808005D
:1018E000300F0720F9170800C01C0720740F0720CD
:1018F000681C0720D00907207C1C0720E020072057
:10190000700E07200D4B1B7853B910B40C4B1B788D
:101910001C09026803F00F0352F82420D1540BE095
:10192000074B1B780F2B02D84268D154704782684E
:10193000134403F8101C704710BC7047781C072034
:10194000651C072008B51C4B1B78013B082B32D8BF
:10195000DFE803F0050A0F14191E23282D00C1B279
:101960001648174B984708BD164B1A78164BD0549B
:1019700008BDC1B21548124B984708BD114B1A78E3
:10198000134BD05408BDC1B212480D4B984708BD47
:101990000C4B1A78104BD05408BD0A4B1A780F4BD9
:1019A000D05408BD074B1A780D4BD05408BD054BD9
:1019B0001A780C4BD05408BD100A0720600E07207F
:1019C00005190800651C0720300F0720C01C0720E0
:1019D000740F0720681C0720D00907207C1C0720F3
:1019E000E0200720700E072038B505460C46084653
:1019F000044B9847A84203D0E9B22046024B9847CF
:101A000038BD00BF690D0800A5010800F8B50C4BF2
:101A10001B7DDBB2012B01D021B9F8BD09480A4B6F
:101A20009847F8BD451E11448EB21446074F214613
:101A300015F8010FB8470134A4B2B442F7D1F8BD8C
:101A4000DC170720D4370800BD200800E91908007A
:101A5000F8B5154B1B7DDBB2012B04D005460E46B5
:101A6000437B23B913E01148114B9847F8BD00247C
:101A7000104F2B683246297B53F82400B8472A7B45
:101A8000324496B20134E4B26B7BA342F1D83246C1
:101A9000297B6868074CA0472A7B324492B2697B55
:101AA000A868A047F8BD00BFDC170720D43708009E
:101AB000BD2008000D1A080008B5234B1B78013B18
:101AC000082B40D8DFE803F0050A11171E242B323B
:101AD000390000211D481E4B984708BD41F288324D
:101AE00042211C481C4B984708BD4FF410711B48FD
:101AF000174B984708BD41F2504240211848164BF9
:101B0000984708BD4FF490711648114B984708BD8F
:101B100041F21852402114480F4B984708BD4FF42A
:101B2000AF52402111480C4B984708BD41F2A862C2
:101B3000A0210F48084B984708BD41F27072C021A0
:101B40000C48054B984708BD100A0720600E072077
:101B5000511A0800300F07200D1A0800C01C07207A
:101B6000740F0720681C0720D00907207C1C072061
:101B7000E0200720700E07202DE9F84F80460D4623
:101B800001F58067BFB2184EDFF864A0DFF86490FB
:101B900000E05D46B0470446B8F1010F01D101B243
:101BA00014E0B04744EA002000B2A0F5A07000EBBA
:101BB00080008AFB0023C017C0EB63031BB289FBC4
:101BC0000321DB17C3EBA101283109B205F1010B99
:101BD0001FFA8BFB81F30801C9B22846034B9847D3
:101BE0005F45D6D1BDE8F88F89210800A50108001E
:101BF000398EE3386766666608B5154B1A8892B267
:101C0000144B1B889BB29A4208D01348134B984739
:101C10000023104A13800E4A138008BD104B9847CA
:101C2000012809D010B102280CD008BD4FF458711A
:101C300002200C4B984708BD4FF4EC610220094B81
:101C4000984708BD4FF436610120064B984708BD00
:101C5000DA130720F2170720E4370800BD20080038
:101C600089210800791B08002DE9F0412C482D4EF0
:101C7000B047DFF8FC80B8F80C0080B22A4DA847C6
:101C80002A4CA0472A48B04798F80A00A847A0471E
:101C90002848B047B8F8040080B2A847A0472648B3
:101CA000B047B8F8020080B2A847A0472348B04721
:101CB000234FF879A847A0472248B047B879A847EA
:101CC000A0472148B047B87AA847A0471F48B04767
:101CD000B88880B2A847A0471D48B047387EA847BB
:101CE000A0471C48B047F88980B2A847A0471A48C7
:101CF000B04798F81400A847A0471848B0471848BC
:101D0000A847A0471748B047174F3878A847A047BB
:101D10001648B0477878A847A047BDE8F08100BFD3
:101D2000EC370800BD2008005D200800AD20080049
:101D3000F837080004380800103808001C3808007C
:101D4000B4130720243808002C3808003438080061
:101D50003C380800443808004C380800583808005F
:101D6000A83B030068380800300F072080380800BF
:101D7000DC17072008B53E4B1B782BB13D4B187084
:101D800000223B4B1A7008BD3B4B1B7823B33B4BE7
:101D90001B782BB93A4B18700122384B1A7008BDCA
:101DA000344A127802F0FD01012901D0052A07D139
:101DB000022B05D0334B18700222304B1A7008BD2D
:101DC000314B984700232C4A13702C4A13702D4A2C
:101DD00013702B4A137008BD4138332847D8DFE809
:101DE00000F01A1F224446264646464646464646C8
:101DF000462A32462E4646363946464646464646E8
:101E00004646464646464646464646464646464672
:101E100046464646463D20211C481D4B984708BD76
:101E20001C4B984708BD01201B4B984708BD1B4819
:101E3000194B984708BD01220D4B1A7008BD184870
:101E4000154B984708BD1748134B984708BD164BCC
:101E5000984708BD0122084B1A7008BD134B9847DC
:101E6000134B9847134B984708BD134B984708BD31
:101E700081210720100A0720CA090720641C0720B7
:101E8000651C0720781C072045190800B41307209B
:101E9000F9170800B91A08003D1F08009C3808000F
:101EA000A0380800C438080065180800F91F0800A9
:101EB000F91B0800DD1F0800691C08004FF4807240
:101EC000074B1A6103F5007350221A604FF4006249
:101ED0005A602D221A624FF6FF72DA60704700BF17
:101EE00000060E4008B50C2108200C4B9847002333
:101EF0000B481A460B49C254CA540133B3F5806FDC
:101F0000F9D10023084A1380084A1380084A138035
:101F1000084A1380084A137008BD00BF6910080002
:101F2000200A0720B40F0720C8090720CC09072082
:101F3000DA130720F2170720D8130720037803B31A
:101F4000124B1B889BB2B3F5806F1AD270B4054652
:101F500000230E4C0E4E228892B2511C89B2218071
:101F600001339BB22978B154C518C25C22B12288D2
:101F700092B2B2F5806FEED30222064B9A6070BC2B
:101F800070470222034B9A60704700BFCC090720BC
:101F9000200A072000080E40A9B130B4441E4B1E91
:101FA0009BB218440A490B4D0B889BB25A1C92B243
:101FB0000A8014F8012FEA548442F5D10222064B1C
:101FC0009A6030BC70470222034B9A60704700BF92
:101FD000CC090720200A072000080E4008B50C2174
:101FE0000820034B98470122024B9A6008BD00BFAE
:101FF0006910080000080E400122014BDA607047AA
:1020000000080E4008B50C4B1A8892B20B4B1B8887
:102010009BB29A4205D10023084A1380064A1380D6
:1020200008BD05490B889BB25A1C92B20A80044A2B
:10203000D05C044B984708BDDA130720F21707203D
:10204000B40F0720751D0800034A536913F0020FEF
:10205000FBD0014BD861704700080E402DE9F843D2
:102060000546012600220E4CDFF83C90B0460D4F8D
:10207000B5FBF4F03030C0B2302802D10AB90A2ED4
:1020800001D1C8474246B5FBF4F304FB1355A7FB47
:102090000434E40801360B2EEAD1BDE8F88300BF12
:1020A00000CA9A3BCDCCCCCC4920080008B50A2008
:1020B000014B984708BD00BF4920080070B5441E79
:1020C0000025074E01E00135B04714F8010F002844
:1020D000F9D1142DF7DC2020014B984770BD00BFCB
:1020E00049200800214B5A69214B1B889BB2E3B160
:1020F00012F0020F19D01F490B889BB21E48C35C17
:10210000DBB21A48C3610B8801339BB20B8009888C
:1021100089B2174B1B889BB2994206D300231449FE
:102120000B8014490B800221C16012F0010F1CD0FA
:102130000E4B996912F0A00F03D04FF480721A6011
:1021400070470E4A13889BB2581C80B21080C9B2E7
:102150000B48C15413889BB2B3F5806F02D30022A1
:10216000064B1A800122074B1A70704700080E4078
:10217000CC090720C8090720200A0720F2170720EA
:10218000B40F0720D8130720044A536913F0010F36
:10219000FBD0024B9869C0B2704700BF00080E40E8
:1021A0002DE9F04184B0524B9847524B98470D208F
:1021B000514B9847514D00240094234622464FF43A
:1021C000003128464E4EB0470094234622464FF435
:1021D00000012846B0474FF400312846494EB04729
:1021E0004FF400012846B047474B9847474B984764
:1021F000474B98474748484EB047484DA847484B3B
:102200009847484B9847484B9847484B1868029066
:102210009A889B79ADF80C208DF80E300A220121A6
:1022200002A8434B98474348434B9847092305224C
:1022300048F202010820414FB847414B1B88414AF0
:1022400092FBF3F202214048404B9847404B98479D
:10225000404B9847404B98470123224680210B2052
:102260003E4CA0473E48B047A8473E4D3E4FDFF8A2
:1022700024813E4C3E4E2B7813F0FF0F02D00023FA
:102280002B70B847237813F0FF0F03D0002323707F
:10229000384B9847337813F0FF0FECD0002333709E
:1022A000354B1A8892B2354B1B78DBB292FBF3F1B7
:1022B00003FB1123002BDED1314B1B68B8FBF3F37A
:1022C0009BB2304CE381304B9847304BA3FB00234B
:1022D000C3F387136375284B1B889BB2172BC8D990
:1022E00000222B4B1A600122234B1A80BFE700BF4C
:1022F000C502080029030800A906080000120E40C4
:1023000021040800A9030800BD1E0800DD1F080005
:10231000E51E0800D8380800BD200800AD200800E0
:10232000090D0800610F0800C10B0800D038080033
:102330005D0C080000000C40A102080041160800D6
:1023400060180720E80D28000080084025070800D5
:1023500009160800D5130800C1170800B9100800B5
:10236000E4380800D813072005200800D11C0720F6
:102370008021072055140800DC2007208221072037
:10238000180A0720B4130720E50D0800D34D62108A
:10239000BC1C0720C422640081F0004102E000BFA1
:1023A00083F0004330B54FEA41044FEA430594EA15
:1023B000050F08BF90EA020F1FBF54EA000C55EA50
:1023C000020C7FEA645C7FEA655C00F0E2804FEA21
:1023D0005454D4EB5555B8BF6D420CDD2C4480EA03
:1023E000020281EA030382EA000083EA010180EA33
:1023F000020281EA0303362D88BF30BD11F0004F81
:102400004FEA01314FF4801C4CEA113102D04042B6
:1024100061EB410113F0004F4FEA03334CEA1333F1
:1024200002D0524263EB430394EA050F00F0A78009
:10243000A4F10104D5F1200E0DDB02FA0EFC22FA04
:1024400005F2801841F1000103FA0EF2801843FAF8
:1024500005F359410EE0A5F120050EF1200E012AE9
:1024600003FA0EFC28BF4CF0020C43FA05F3C01827
:1024700051EBE37101F0004507D54FF0000EDCF1A0
:10248000000C7EEB00006EEB0101B1F5801F1BD349
:10249000B1F5001F0CD349085FEA30004FEA3C0C4D
:1024A00004F101044FEA445212F5800F80F09A8043
:1024B000BCF1004F08BF5FEA500C50F1000041EB47
:1024C000045141EA050130BD5FEA4C0C404141EB4B
:1024D000010111F4801FA4F10104E9D191F0000F72
:1024E00004BF01460020B1FA81F308BF2033A3F1F5
:1024F0000B03B3F120020CDA0C3208DD02F1140CEC
:10250000C2F10C0201FA0CF021FA02F10CE002F126
:102510001402D8BFC2F1200C01FA02F120FA0CFC1F
:10252000DCBF41EA0C019040E41AA2BF01EB045168
:10253000294330BD6FEA04041F3C1CDA0C340EDC66
:1025400004F11404C4F1200220FA04F001FA02F3A9
:1025500040EA030021FA04F345EA030130BDC4F167
:102560000C04C4F1200220FA02F001FA04F340EA5C
:102570000300294630BD21FA04F0294630BD94F00D
:10258000000F83F4801306BF81F480110134013DF4
:102590004EE77FEA645C18BF7FEA655C29D094EA65
:1025A000050F08BF90EA020F05D054EA000C04BFE3
:1025B0001946104630BD91EA030F1EBF00210020CE
:1025C00030BD5FEA545C05D14000494128BF41F06D
:1025D000004130BD14F580043CBF01F5801130BDD1
:1025E00001F0004545F0FE4141F470014FF000005C
:1025F00030BD7FEA645C1ABF194610467FEA655C0D
:102600001CBF0B46024650EA013406BF52EA0335AE
:1026100091EA030F41F4002130BD00BF90F0000F9C
:1026200004BF0021704730B54FF4806404F13204D8
:102630004FF000054FF0000150E700BF90F0000F91
:1026400004BF0021704730B54FF4806404F13204B8
:1026500010F0004548BF40424FF000013EE700BF88
:1026600042004FEAE2014FEA31014FEA02701FBF18
:1026700012F07F4393F07F4F81F06051704792F0EA
:10268000000F14BF93F07F4F704730B54FF4607464
:1026900001F0004521F0004120E700BF50EA0102AF
:1026A00008BF704730B54FF000050AE050EA01025C
:1026B00008BF704730B511F0004502D5404261EBCC
:1026C00041014FF4806404F132045FEA915C3FF40D
:1026D000DCAE4FF003025FEADC0C18BF03325FEAA6
:1026E000DC0C18BF033202EBDC02C2F1200300FA5B
:1026F00003FC20FA02F001FA03FE40EA0E0021FA80
:1027000002F11444C1E600BF70B54FF0FF0C4CF469
:10271000E06C1CEA11541DBF1CEA135594EA0C0F1F
:1027200095EA0C0F00F0DEF82C4481EA030621EA5A
:102730004C5123EA4C5350EA013518BF52EA033595
:1027400041F4801143F4801338D0A0FB02CE4FF047
:102750000005E1FB02E506F00042E0FB03E54FF077
:102760000006E1FB03569CF0000F18BF4EF0010E6F
:10277000A4F1FF04B6F5007F64F5407404D25FEA6B
:102780004E0E6D4146EB060642EAC62141EA55511E
:102790004FEAC52040EA5E504FEACE2EB4F1FD0C60
:1027A00088BFBCF5E06F1ED8BEF1004F08BF5FEADE
:1027B000500E50F1000041EB045170BD06F0004690
:1027C00046EA010140EA020081EA0301B4EB5C043D
:1027D000C2BFD4EB0C0541EA045170BD41F4801135
:1027E0004FF0000E013C00F3AB8014F1360FDEBF5A
:1027F000002001F0004170BDC4F10004203C35DA36
:102800000C341BDC04F11404C4F1200500FA05F3B8
:1028100020FA04F001FA05F240EA020001F0004259
:1028200021F0004110EBD37021FA04F642EB0601CF
:102830005EEA430E08BF20EAD37070BDC4F10C04F9
:10284000C4F1200500FA04F320FA05F001FA04F2BD
:1028500040EA020001F0004110EBD37041F10001A9
:102860005EEA430E08BF20EAD37070BDC4F12005B4
:1028700000FA05F24EEA020E20FA04F301FA05F21C
:1028800043EA020321FA04F001F0004121FA04F2C4
:1028900020EA020000EBD3705EEA430E08BF20EA94
:1028A000D37070BD94F0000F0FD101F000464000CE
:1028B00041EB010111F4801F08BF013CF7D041EA50
:1028C000060195F0000F18BF704703F00046520054
:1028D00043EB030313F4801F08BF013DF7D043EA25
:1028E0000603704794EA0C0F0CEA135518BF95EADB
:1028F0000C0F0CD050EA410618BF52EA4306D1D162
:1029000081EA030101F000414FF0000070BD50EA80
:10291000410606BF1046194652EA430619D094EA0A
:102920000C0F02D150EA013613D195EA0C0F05D1F4
:1029300052EA03361CBF104619460AD181EA030148
:1029400001F0004141F0FE4141F470014FF0000000
:1029500070BD41F0FE4141F4780170BD70B54FF09B
:10296000FF0C4CF4E06C1CEA11541DBF1CEA13551B
:1029700094EA0C0F95EA0C0F00F0A7F8A4EB0504FD
:1029800081EA030E52EA03354FEA013100F08880F4
:102990004FEA03334FF0805545EA131343EA1263BD
:1029A0004FEA022245EA111545EA10654FEA002672
:1029B0000EF000419D4208BF964244F1FD0404F52B
:1029C000407402D25B084FEA3202B61A65EB030587
:1029D0005B084FEA32024FF480104FF4002CB6EB44
:1029E000020E75EB030E22BFB61A754640EA0C00C4
:1029F0005B084FEA3202B6EB020E75EB030E22BF04
:102A0000B61A754640EA5C005B084FEA3202B6EB44
:102A1000020E75EB030E22BFB61A754640EA9C0003
:102A20005B084FEA3202B6EB020E75EB030E22BFD3
:102A3000B61A754640EADC0055EA060E18D04FEA91
:102A4000051545EA16754FEA06164FEAC30343EA31
:102A500052734FEAC2025FEA1C1CC0D111F4801FFE
:102A60000BD141EA00014FF000004FF0004CB6E7F7
:102A700011F4801F04BF01430020B4F1FD0C88BF96
:102A8000BCF5E06F3FF6AFAEB5EB030C04BFB6EBA1
:102A9000020C5FEA500C50F1000041EB045170BD94
:102AA0000EF0004E4EEA113114EB5C04C2BFD4EBC1
:102AB0000C0541EA045170BD41F480114FF0000E45
:102AC000013C90E645EA060E8DE60CEA135594EAC1
:102AD0000C0F08BF95EA0C0F3FF43BAF94EA0C0FC4
:102AE0000AD150EA01347FF434AF95EA0C0F7FF439
:102AF00025AF104619462CE795EA0C0F06D152EA8D
:102B000003353FF4FDAE1046194622E750EA410670
:102B100018BF52EA43067FF4C5AE50EA41047FF481
:102B20000DAF52EA43057FF4EBAE12E74A0011D233
:102B300012F5001211D20DD56FF47873B3EB625217
:102B40000ED44FEAC12343F0004343EA505323FA23
:102B500002F070474FF00000704750EA013002D198
:102B60004FF0FF3070474FF00000704753B94AB93B
:102B7000002908BF00281CBF4FF0FF314FF0FF3085
:102B800000F082B9ADF1080C6DE904CE00F006F852
:102B9000DDF804E0DDE9022304B070472DE9F04FD1
:102BA0008C460C460546099E002B4FD18A4217469B
:102BB0006BD9B2FA82FEBEF1000F0BD0CEF1200528
:102BC00020FA05F501FA0EF345EA030C02FA0EF7B6
:102BD00000FA0EF5390CBCFBF1F0BAB201FB10C3E0
:102BE00000FB02F84FEA154C4CEA0344A04509D912
:102BF000E41900F1FF3380F02881A04540F22581DF
:102C000002383C44C8EB0404B4FBF1F301FB134C61
:102C100003FB02F2ACB244EA0C418A4209D9C91959
:102C200003F1FF3480F00F818A4240F20C81023BB5
:102C300039448A1A43EA00400021002E63D022FA68
:102C40000EF2002386E80C00BDE8F08F8B4207D916
:102C5000002E56D0002186E811000846BDE8F08F0E
:102C6000B3FA83F1002940F09380A34202D3824259
:102C700000F2FE80851A64EB03039C460120002EBF
:102C800041D086E82010BDE8F08F12B90127B7FBCC
:102C9000F2F7B7FA87FEBEF1000F36D1E41B4FEA18
:102CA00017481FFA87F90121B4FBF8F308FB134416
:102CB00009FB03F24FEA154C4CEA0444A24207D93F
:102CC000E41903F1FF3002D2A24200F2D38003469E
:102CD000A41AB4FBF8F008FB104809FB00F9ACB2E9
:102CE00044EA0842914507D9D21900F1FF3402D2D3
:102CF000914500F2BA802046C9EB020240EA034047
:102D00009BE731463046BDE8F08F07FA0EF7CEF16B
:102D1000200C24FA0CF34FEA1748B3FBF8FA1FFA19
:102D200087F908FB1A3520FA0CFC04FA0EF40AFBAA
:102D300009FB4CEA040C4FEA1C4242EA05439B455E
:102D400000FA0EF50AD9DB190AF1FF3280F08B8008
:102D50009B4540F28880AAF1020A3B44CBEB030377
:102D6000B3FBF8F008FB103300FB09F41FFA8CFCEE
:102D70004CEA03439C4207D9DB1900F1FF326ED2C3
:102D80009C426CD902383B441C1B40EA0A418BE749
:102D9000C1F1200E8B4022FA0EFC4CEA030C24FAFF
:102DA0000EF74FEA1C49B7FBF9FA1FFA8CF309FB3F
:102DB0001A7720FA0EF88C400AFB03F548EA04045F
:102DC0004FEA144848EA0747BD4202FA01F200FA06
:102DD00001FB09D917EB0C070AF1FF3041D2BD42C4
:102DE0003FD9AAF1020A67447F1BB7FBF9F509FB3B
:102DF000157705FB03F3A4B244EA0747BB4208D9A1
:102E000017EB0C0705F1FF3027D2BB4225D9023D55
:102E1000674445EA0A40A0FB0289FF1A4F45454630
:102E20004C4614D329D066B3BBEB050367EB04070C
:102E300007FA0EFECB40CF404EEA030386E8880037
:102E40000021BDE8F08F2346F3E61846DAE6B8EB3A
:102E5000020569EB0C040138E5E70546D9E71046A1
:102E600092E78246C0E7924678E702383A4443E761
:102E7000084604E7023B3C442AE7C345E7D33C4607
:102E8000D1E73146BDE8F08F704700BF70B50F4EF7
:102E90000F4D761BB61018BF002405D0013455F82D
:102EA000043B9847A642F9D10A4E0B4D00F024FD91
:102EB000761BB61018BF002406D0013455F8043B29
:102EC0009847A642F9D170BD70BD00BF0439080013
:102ED000043908000C39080004390800024B014687
:102EE000186800F003B800BF580507202DE9F04F1F
:102EF00001F10B05162D83B0064640F2A08035F097
:102F0000070500F1C080A94200F2BD8000F09AFAE6
:102F1000B5F5FC7FC0F090826B0A00F0BB80042BFB
:102F200000F27781A80900F1390E4FEA4E013830DE
:102F3000BE4F07EB81014C680839A14207D1AEE0D2
:102F4000002A80F2AE80E468A14200F0A8806368A5
:102F500023F003035A1B0F2AF2DDB4493C6901F147
:102F6000080E744500F0A881636823F003035A1B20
:102F70000F2A00F38E81002AC1F814E0C1F810E096
:102F800080F29380B3F5007F80F05C81DB084A68B3
:102F90004FEAA3094FF0010C013351F833800CFACA
:102FA00009F901EBC30C49EA0202ACF1080CC4F8C0
:102FB0000CC0C4F808804A6041F83340C8F80C409F
:102FC000831001249C4094427CD8144206D120F006
:102FD00003006400144200F10400FAD007EBC009BA
:102FE000CC468046DCF80C108C4507D166E1002AFF
:102FF00080F27481C9688C4500F060814B6823F0D1
:1030000003035A1B0F2AF2DD0C46CB6854F808CF95
:1030100045F00108C1F804800D4442F00101CCF8EC
:103020000C303046C3F808C07D613D61C5F80CE046
:10303000C5F808E06960AA5000F006FA1FE0102900
:1030400021D800F0FFF9102506230220774F07EB67
:1030500083035C68A3F10802944200F0388163683E
:10306000E16823F0030323445A68A56842F0010293
:10307000E96030468D605A6000F0E6F90834204679
:1030800003B0BDE8F08F002420460C23336003B06A
:10309000BDE8F08F80214FF0400E3F2048E770469A
:1030A0005BE723445A68E168DFE723445A68304607
:1030B00042F001025A60083400F0C6F9204603B01D
:1030C000BDE8F08FBC68636823F00308A84504D30B
:1030D000C5EB08030F2B00F38C80554BDFF8609194
:1030E0001A68D9F800302A44013304EB080A00F0CA
:1030F000608102F580520F3222F47F6222F00F02CB
:1031000011463046019200F0A1F9B0F1FF3F83462D
:10311000019A00F05881824500F2FC80454BDA4567
:1031200019681144196000F05381D9F80000DFF8E4
:1031300010E101301BBFCAEB0B0A5144CEF800B0BE
:1031400019601BF0070100F01781C1F10800C1F5FB
:103150008051834408315A44C2F30B02C2EB010987
:1031600049463046019300F071F9431C019B00F081
:103170003F81CBEB00024A4442F001021968BC4295
:103180004944C7F808B01960CBF80420DFF8A490D0
:1031900016D0B8F10F0F40F2FD806268A8F10C0361
:1031A00023F0070302F00102E0184FF0050E1A4366
:1031B0000F2B6260C0F804E0C0F808E000F21C8148
:1031C0001D4BBC681A68914288BF19601B4B1A6876
:1031D0009142626888BF196022F003029542A2EB17
:1031E000050301D80F2B04DC304600F02DF9002434
:1031F00045E745F0010243F0010325446260304693
:10320000BD6008346B6000F01FF9204603B0BDE8D4
:10321000F08F142B71D9542B00F2A480280B00F1ED
:103220006F0E4FEA4E016E3082E600BF5C0507204C
:103230009409072098090720900907208C09072086
:10324000680907205A0A042A5ED9142A00F2B380BA
:1032500002F15C0149005B3207EB810C57F8211049
:10326000ACF1080C8C45DFF8D88100F088804A6802
:1032700022F00302934202D289688C45F7D1D1F83B
:103280000CC07A68C4F80CC0A160CCF80840CC60CF
:1032900096E645F0010742F0010325446760304699
:1032A0004D610D61C5F80CE0C5F808E06B60AA50EF
:1032B000083400F0C9F8E2E64A6881E608F101083E
:1032C00018F0030F0CF1080C7FF48CAE30E0DC68D2
:1032D000A34208BF02303FF440AEC0E60C460B44A8
:1032E0005A68C96854F8085F42F001025A603046D3
:1032F000E9608D6000F0A8F8C1E603F15C0E03F10F
:103300005B004FEA4E0113E69A0902F139014900C8
:103310003832A1E7BC424A4B3FF400AF9C68626878
:1033200022F003025AE759F80839994540F08280A3
:1033300010F0030F00F1FF30F5D17B6823EA04039E
:103340007B6064009C423FF6BDAE002C3FF4BAAEF9
:103350001C4240467FF442AE64001C4200F104006F
:10336000FAD03BE6B3F5AA7F18D8E80B00F1780E47
:103370004FEA4E017730DBE54FF48051EBE6012157
:10338000D8F80430921001FA02F21A43C8F8042067
:10339000614677E70123CBF8043025E740F2545229
:1033A000934220D8A80C00F17D0E4FEA4E017C30EC
:1033B000BEE51032A4E6542A26D81A0B02F16F019A
:1033C00049006E3248E7BC68626822F0030205E7F4
:1033D000CAF30B0000287FF4A8AE4244BB6842F059
:1033E00001025A60ECE6FE214FF07F0E7E209FE541
:1033F00001224FF00009C1E604F10801304600F057
:10340000A9F8D9F80010DBE6B2F5AA7F05D8DA0BE7
:1034100002F17801490077321EE740F254518A42A6
:1034200005D89A0C02F17D0149007C3214E7FE2197
:103430007E2211E77B6884E7E808431C5B0005E611
:103440005C050720704700BF704700BF38B5074CC8
:103450000023054608462360FDF798FB431C00D077
:1034600038BD2368002BFBD02B6038BD842107209A
:10347000024B13B1024800F005B87047000000008D
:1034800091340800002301461A46184600F04AB954
:1034900038B5074D074C2C1BA41005D0013C55F83E
:1034A000043D9847002CF9D1BDE8384000F02EBA11
:1034B0001C39080018390800F8B50C46224F06469A
:1034C000FFF7C0FFBB685D6825F00305291B01F607
:1034D000EF7121F47F6121F00F01A1F58054B4F563
:1034E000805F07DB00213046FFF7B0FFBB682B444D
:1034F000984204D03046FFF7A7FF0020F8BD614294
:103500003046FFF7A3FF01300DD0104BBA681968A1
:103510002D1B45F001053046091B55601960FFF76A
:1035200093FF0120F8BD00213046FFF78FFFBA68F6
:10353000831A0F2BDEDD064C0449246843F0010397
:10354000001B53600860D5E75C0507209809072039
:1035500068090720002945D02DE9F0410D46804635
:10356000FFF770FF55F8047C6A49A5F1080427F0BD
:103570000103E2188E685068B24220F0030062D066
:10358000FE0750600BD455F8087C01F1080EE41BCF
:10359000A5683B4475456FD0E768EF60BD601518BE
:1035A0006D68ED0742D543F001026260E350B3F568
:1035B000007F18D2DB0848689D100122013351F8C2
:1035C000337002FA05F501EBC3022843083AE260C2
:1035D000A760486041F83340FC604046BDE8F041D8
:1035E000FFF732BF70475A0A042A53D89A0902F1EA
:1035F00039077F0002F1380501EB870051F82720D9
:103600000838904243494DD0516821F003018B4264
:1036100002D292689042F7D1D068E060A2608460E4
:10362000D4604046BDE8F041FFF70EBF95683A4FC1
:103630000344BD423FD0D06843F00102E86085609A
:103640006260E350B3E7FF07034407D455F8085C12
:10365000641BE268A0682B44C26090602F4A43F06C
:1036600001001268606093428C60B6D32C4B4046D8
:103670001968FFF721FFB0E711184968C90744D45A
:1036800091680344D26843F00100CA6091606060B1
:10369000E350A2E7142A17D802F15C077F0002F179
:1036A0005B05A9E7AA104B68012505FA02F213434E
:1036B0004B600246B1E743F001024C610C61E560EA
:1036C000A5606260E35088E7542A06D81A0B02F11D
:1036D0006F077F0002F16E058EE7B2F5AA7F06D86C
:1036E000DA0B02F178077F0002F1770584E740F2F8
:1036F0005450824206D89A0C02F17D077F0002F1F5
:103700007C0579E7FE277E2576E743F001026260BB
:10371000E35062E75C050720640507206409072081
:10372000940907202DE9F047254C06462568884670
:10373000D5F8484192469946C4B360681F2817DC03
:10374000411C76B104EB8003C3F888A0D4F88851FB
:10375000012282401543022EC4F88851C3F8089113
:103760001ED0831C6160002044F82380BDE8F087F0
:10377000144B03B34FF4C870FFF7B0FB0446D0B14D
:10378000D5F84831002784E888003846C5F8484114
:103790000121C4F88871C4F88C71002EE1D0D1E702
:1037A000D4F88C311A43C4F88C21DAE705F5A674F5
:1037B000C5F84841C1E74FF0FF30BDE8F08700BFD2
:1037C000F4380800DD2E08005477694661756C7482
:1037D0003A200000454550524F4D204661756C74AB
:1037E000000000004552524F520000004D41502051
:1037F000486967683A2000004D4150204C6F773A85
:103800002000000054505320486967683A200000A7
:10381000545053204C6F773A20000000434C543AE8
:10382000200000004941543A200000004146523A2D
:10383000200000004D41503A200000005450533AFF
:103840002000000052504D3A2000000054574946D5
:1038500061756C743A2000004675656C20436F6E8C
:1038600073743A20000000004166746572537461FD
:103870007274456E726963685063743A2000000088
:1038800041667465725374617274456E72696368DF
:103890004379636C65733A200000000030303100DA
:1038A000525574686C6573732056312E3020466F04
:1038B000726D756C612053747564656E742032305E
:1038C00031370000737065656475696E6F000000C4
:1038D00004060507000C0500496E697420626567DF
:1038E000696E0000496E697420646F6E65000000A7
:1038F0004300000030010720F8B500BFF8BC08BC49
:103900009E4670477134080019010800F8B500BFE1
:0C391000F8BC08BC9E467047F50008009B
:08391C0080F2FF7F01000000B2
:103924004FF48063204A136002F5007213601F4B4A
:103934001B6A13F0807F07D11D4A1C4B1A621A467A
:10394400936E13F0010FFBD01A4A184B1A621A46F1
:10395400936E13F4803FFBD0144A136B23F00303DC
:1039640043F001031363936E13F0080FFBD0124A64
:103974000E4B9A621A46936E13F0020FFBD011227B
:103984000A4B1A631A46936E13F0080FFBD01222E7
:10399400064B1A631A46936E13F0080FFBD0074ABE
:1039A400074B1A60704700BF000A0E4000060E4025
:1039B4000908370009083701013F0D2000BD010542
:1039C4002C0107201B4B984206D800231A4A136087
:1039D40002F5007213607047184B984207D84FF4F1
:1039E4008073154A136002F5007213607047144B1C
:1039F400984207D84FF400730F4A136002F500721F
:103A0400136070470F4B984207D84FF440730A4A2B
:103A1400136002F50072136070470B4B984294BF19
:103A24004FF480634FF4A063034A136002F50072FD
:103A340013607047BFEA2101000A0E407FF0FA02CA
:103A4400FF8FD003FFB3C4047F4A5D0500093D0026
:103A5400000000001C04072084040720EC04072055
:103A64000000000000000000000000000000000052
:103A74000000000000000000000000000000000042
:103A840000000000F0380800000000000000000002
:103A94000000000000000000000000000000000022
:103AA4000000000000000000000000000000000012
:103AB4000000000000000000000000000000000002
:103AC40000000000000000000000000000000000F2
:103AD40000000000000000000000000000000000E2
:103AE40000000000000000000000000000000000D2
:103AF40000000000000000000100000000000000C1
:103B04000E33CDAB34126DE6ECDE05000B00000085
:103B140000000000000000000000000000000000A1
:103B24000000000000000000000000000000000091
:103B34000000000000000000000000000000000081
:103B44000000000000000000000000000000000071
:103E740000000000000000003001072000000000E6
:103E8400000000005C0507205C050720640507208E
:103E9400640507206C0507206C05072074050720BE
:103EA400740507207C0507207C050720840507206E
:103EB400840507208C0507208C050720940507201E
:103EC400940507209C0507209C050720A4050720CE
:103ED400A4050720AC050720AC050720B40507207E
:103EE400B4050720BC050720BC050720C40507202E
:103EF400C4050720CC050720CC050720D4050720DE
:103F0400D4050720DC050720DC050720E40507208D
:103F1400E4050720EC050720EC050720F40507203D
:103F2400F4050720FC050720FC05072004060720EC
:103F3400040607200C0607200C0607201406072099
:103F4400140607201C0607201C0607202406072049
:103F5400240607202C0607202C06072034060720F9
:103F6400340607203C0607203C06072044060720A9
:103F7400440607204C0607204C0607205406072059
:103F8400540607205C0607205C0607206406072009
:103F9400640607206C0607206C06072074060720B9
:103FA400740607207C0607207C0607208406072069
:103FB400840607208C0607208C0607209406072019
:103FC400940607209C0607209C060720A4060720C9
:103FD400A4060720AC060720AC060720B406072079
:103FE400B4060720BC060720BC060720C406072029
:103FF400C4060720CC060720CC060720D4060720D9
:10400400D4060720DC060720DC060720E406072088
:10401400E4060720EC060720EC060720F406072038
:10402400F4060720FC060720FC06072004070720E7
:10403400040707200C0707200C0707201407072094
:10404400140707201C0707201C0707202407072044
:10405400240707202C0707202C07072034070720F4
:10406400340707203C0707203C07072044070720A4
:10407400440707204C0707204C0707205407072054
:10408400540707205C0707205C0707206407072004
:10409400640707206C0707206C07072074070720B4
:1040A400740707207C0707207C0707208407072064
:1040B400840707208C0707208C0707209407072014
:1040C400940707209C0707209C070720A4070720C4
:1040D400A4070720AC070720AC070720B407072074
:1040E400B4070720BC070720BC070720C407072024
:1040F400C4070720CC070720CC070720D4070720D4
:10410400D4070720DC070720DC070720E407072083
:10411400E4070720EC070720EC070720F407072033
:10412400F4070720FC070720FC07072004080720E2
:10413400040807200C0807200C080720140807208F
:10414400140807201C0807201C080720240807203F
:10415400240807202C0807202C08072034080720EF
:10416400340807203C0807203C080720440807209F
:10417400440807204C0807204C080720540807204F
:10418400540807205C0807205C08072064080720FF
:10419400640807206C0807206C08072074080720AF
:1041A400740807207C0807207C080720840807205F
:1041B400840807208C0807208C080720940807200F
:1041C400940807209C0807209C080720A4080720BF
:1041D400A4080720AC080720AC080720B40807206F
:1041E400B4080720BC080720BC080720C40807201F
:1041F400C4080720CC080720CC080720D4080720CF
:10420400D4080720DC080720DC080720E40807207E
:10421400E4080720EC080720EC080720F40807202E
:10422400F4080720FC080720FC08072004090720DD
:10423400040907200C0907200C090720140907208A
:10424400140907201C0907201C090720240907203A
:10425400240907202C0907202C09072034090720EA
:10426400340907203C0907203C090720440907209A
:10427400440907204C0907204C090720540907204A
:0C4284005409072000000200FFFFFFFFAC
:04000003800009C5AB
:00000001FF
