S0140000525574686C6573735F4543552E737265639A
S21408000050460720C5090800C1090800C1090800AC
S214080010C1090800C1090800C1090800000000005D
S214080020000000000000000000000000C1090800F1
S214080030C109080000000000C1090800C10908003D
S214080040C1090800C1090800C1090800C10908005B
S214080050C1090800C1090800C1090800C10908004B
S21408006059210800C109080000000000FD1008001A
S214080070C1090800C1090800C109080000000000FD
S21408008000000000C1090800C1090800C1090800ED
S214080090C1090800C1090800C1090800C10908000B
S2140800A0C109080000000000C10908006116080020
S2140800B065160800691608006D160800711608000F
S2140800C075160800791608007D16080081160800BF
S2140800D0C1090800810C0800C1090800C109080008
S2140800E0C1090800C1090800C1090800C1090800BB
S2140800F0C109080010B5054C237833B9044B13B171
S2140801000448AFF300800123237010BD580507206C
S214080110000000005C310800084B10B51BB1084908
S2140801200848AFF300800848036803B910BD074BBA
S214080130002BFBD0BDE81040184700BF00000000A9
S2140801405C0507205C3108005C31080000000000F0
S2140801502DE9F04782B00446002202AB03F8012DD1
S21408016090F800A0D0F80490D0F80880C76802700D
S214080170426083600123C360084E094D214630461D
S214080180A8470028FAD184F800A0C4F80490C4F858
S2140801900880E76002B0BDE8F08700BF00000940AD
S2140801A03909080010B588B08DF8071050238DF867
S2140801B01C30030A8DF80C308DF80D0002230493CA
S2140801C00DF1070305930123069303A90648074B79
S2140801D0984720B9044603A8054B984700E0012431
S2140801E0204608B010BD00BF0000094039090800C5
S2140801F05101080000B587B050238DF81430030A63
S2140802008DF804308DF8050002230293039101232C
S214080210049301A90448054B9847003018BF0120ED
S21408022007B05DF804FB00BF000009406508080039
S21408023030B4012404600025456040F20224C0F86A
S2140802402041C0F80451C0F8145144685200B1FB6C
S214080250F2F14A1E120292B223431A43426028461B
S21408026030BC7047436823F0100343604368194363
S214080270416070474368D201D2B2194311434160C6
S214080280704700BF10B44468090601F07061224345
S2140802900A431B0703F040531343436010BC7047E0
S2140802A002230360704700BF012303FA01F10161CE
S2140802B0704700BF036C43F080730364704700BF49
S2140802C04162704710B50E480E4B98473E210020F5
S2140802D00D4B98470D4CA0470028FCD00C4B984770
S2140802E00C4A0D4B9A620D4CA0470028FCD01020F3
S2140802F00B4B98470B4B98470148024B984710BD45
S21408030000BD0105A5000720250608007906080097
S21408031089060800013F0D2000060E4099060800D1
S214080320BD050800710A080010B54FF40042164BC8
S2140803305A600B20154CA0470C20A0470D20A0475C
S2140803400E20A0474FF060513B20114CA0474FF0BD
S21408035060515520A0474FF060515620A0470D49E0
S2140803606820A0470C495C20A0470C4A4FF440710F
S2140803700B480C4B98474FF000612B20A0474FF0D6
S21408038000612A20A04710BD501A0E40A906080092
S2140803904904080079000028010000280100000828
S2140803A0000E0E401D050800416370474264B1F117
S2140803B0805F16D004D8C1B1B1F1006F0AD013E03F
S2140803C0B1F1405F11D0B1F1605F0ED0B1F1205F9E
S2140803D00AD17047016F036F0B4023EA02030367D5
S2140803E002E0036F1343036742607047416412F0EC
S2140803F0010F14BF4166016612F00A0F14BF0162AE
S214080400416212F0020F02D0C0F8801004E012F029
S214080410080F18BFC0F8841041610160704700BF1C
S21408042010B44164019C0CB1416600E001660BB152
S214080430016500E041650AB1016300E041630161BE
S214080440016010BC704700BF70B582B00D46430906
S21408045003F5001303F207735C0201F0F043B3F1EF
S214080460205F30D006D8B3F1006F0AD0B3F1805FB2
S21408047018D049E0B3F1405F30D0B3F1605F2DD0BB
S21408048042E000F01F000126864032464FF0006129
S21408049020461F4B984715F0010F14BF6666266660
S2140804A0012032E000F01F000126864032464FF059
S2140804B080512046164B984715F0010F14BF666604
S2140804C02666012021E000F01F0101262A4606FACA
S2140804D001F120460F4B9847304616E005F060526B
S2140804E000F01F01012605EA06030093C5F3800302
S2140804F0B2F1605F14BF0022012206FA01F120461D
S214080500054CA047304600E0002002B070BD00BF92
S214080510AD030800ED0308002104080070B582B09A
S21408052005460E46144602F0F043B3F1205F26D087
S21408053006D8B3F1006F0AD0B3F1805F13D034E069
S214080540B3F1405F1FD0B3F1605F1CD02DE00A46C0
S2140805504FF00061164B984714F0010F14BF6E66F3
S2140805602E66012022E00A464FF08051104B98472D
S21408057014F0010F14BF6E662E66012016E00D4BB0
S2140805809847012012E004F0605204F0010300933B
S214080590C4F38003B2F1605F14BF00220122314623
S2140805A02846054CA047012000E0002002B070BD98
S2140805B0AD030800ED03080021040800184A136B71
S2140805C023F0700318431063936E13F0080F03D0DC
S2140805D009E0013B03D11EE04FF4006310498A6E20
S2140805E012F0080FF5D00E4A136B23F0030343F0FE
S2140805F002031363906E10F0080004D000207047C2
S214080600013B03D109E04FF4006305498A6E12F0F6
S214080610080FF5D07047012070470120704700BFCB
S21408062000060E4038B111490B6A114A1A40114BA0
S21408063013430B6270470D48026A090289B222F416
S2140806405C1323F0030343F45C1343F001030B43EA
S21408065003620246936E13F0010FFBD0034A136A37
S21408066043F09B7343F480331362704700060E40D2
S214080670FCFFC8FE02003701024B986E00F480307B
S214080680704700BF00060E404FF00052014B9A62BA
S214080690704700BF00060E40024B986E00F002003E
S2140806A0704700BF00060E402C281ED81F280CD8FE
S2140806B0114B9A6901238340934318D0012303FA08
S2140806C000F00D4B18610020704720380A4BD3F80D
S2140806D008210123834093430BD0012303FA00F03B
S2140806E0054BC3F800010020704701207047002022
S2140806F070470020704700BF00060E4010B48901FE
S2140807004318022444504FF0FF319962196A5A6020
S21408071010BC7047890105234350704700EB8111D0
S2140807200869704700EB81114A61704700EB811138
S2140807308A61704700EB8111CA61704700EB81112E
S2140807404A6270472B4B994249D8A3F57A53994287
S2140807502BD910B4284CA4FB0234A40B043C274B1A
S2140807600B449B00B2FBF3F2043AFF2C39D9002362
S21408077001336408FF2C02D9072BF9D10AE0FF2AB7
S21408078008D9062B00D905E001335208FF2A01D9FB
S214080790062BF9D9120292B21B0403F4E0231A437B
S2140807A0E4B222430261002021E04900B2FBF1F2E4
S2140807B0043AFF2A07D9002301335208FF2A03D92F
S2140807C0072BF9D100E00023110289B21B0403F4B9
S2140807D0E0230B43D2B21A4302610020704701207F
S2140807E07047FF2A88BF0023CED80023D2E710BC64
S2140807F0704700BF801A0600F11976050012FD3F03
S21408080038B504460D464FF0FF338362036A8023EB
S2140808100360036B0823036020230360042303603C
S2140808200A684968054B9847012814BF002001202C
S2140808306B7A012B04BF4023236038BD45070800A8
S2140808400A4659B103780129C4BF417841EA03230F
S214080850022A05DD807840EA0320704700207047AA
S214080860184670472DE9F041CC68002C45D00B4659
S21408087005468E68002068604A68120202F44072D4
S21408088042F480511A7C120402F4FE020A436A609B
S214080890E86059681846274B9847E860012C04D149
S2140808A003232B604FF0010E33E001232B604FF03B
S2140808B0000E2EE00A462B6A13F4807F20D1511EC4
S2140808C00AB3012C06D1BEF1000F2FD1C5F800805F
S2140808D0E6462BE013F0020F05D02B6B3370013C75
S2140808E001363A4600E00A46002CE4D12B6A13F09B
S2140808F0010FFBD02B6ABDE8F0810120BDE8F0812E
S2140809000520BDE8F0810920BDE8F0810520BDE896
S214080910F0812B6A13F48070F8D143F6972143F6DA
S21408092098274FF002084FF0010CCAE713F0020FA1
S214080930C0D0D2E74108080070B5CD68002D34D085
S2140809400B4604468E68002060600A7C120402F497
S214080950FE015A68120202F440720A436260E060BE
S21408096059681846154B9847E060236A13F4807F49
S21408097004D01CE0236A13F4807F1AD113F0040F06
S21408098003D033786363013D0136002DF2D1236A24
S21408099013F480700FD113F0040FF8D002232360ED
S2140809A0236A13F0010FFBD070BD012070BD05202F
S2140809B070BD052070BD052070BD00BF4108080049
S2140809C0FEE700BF08B51E4B1E4A9A4203D01E4BD0
S2140809D01B4A9A4204D31D4B1D4A9A420FD31AE06B
S2140809E017491C4B5B1A23F003030433154A1344B8
S2140809F052F8040B41F8040B9A42F9D1EBE7164B70
S214080A00164AD21A22F003021A44043B002143F87D
S214080A10041B9342FBD1124B23F0604222F07F0264
S214080A2010498A6003F16043B3F5801F03D28B68D0
S214080A3043F000538B600C4B98470C4B9847FEE7E7
S214080A40000007205C3108005805072050260720BC
S214080A5058050720570507205C050720532607205A
S214080A600000080000ED00E0F12E0800152208003E
S214080A703E4B1B6B03F00303032B5FD8DFE803F042
S214080A80020E2B2B3A4B5B6913F0800F14BF4FF402
S214080A9000424FF4FA42374B1A604FE0334B1B6A5A
S214080AA013F0807F03D0344A324B1A6046E0334A4C
S214080AB0304B1A602D4B1B6A03F07003102B02D0C4
S214080AC0202B04D03AE02E4A2A4B1A6036E02A4AEF
S214080AD0284B1A6032E0254B1B6A13F0807F03D040
S214080AE0254A244B1A6012E0244A224B1A601F4BF0
S214080AF01B6A03F07003102B02D0202B04D006E0EC
S214080B001F4A1C4B1A6002E01B4A1A4B1A60174B06
S214080B101B6B03F00303022B0DD1144A936A926AE7
S214080B201448C3F30A41036801FB0333D2B2B3FB8C
S214080B30F2F3036002E0134A0E4B1A600B4B1B6B72
S214080B4003F07003702B07D10A4A13680E49A1FBFD
S214080B5003135B0813607047044B1B6B0549C3F30C
S214080B6002120B68D3400B60704700BF00060E40A9
S214080B70101A0E402C010720001BB70000093D0084
S214080B8000127A00001C4E0EABAAAAAA70B5252041
S214080B90194B9847194C4FF48023194A194920468F
S214080BA0194DA84701234FF4401219462046174D01
S214080BB0A84710212046164B984700221146204683
S214080BC0144B98472046144B98470023134E1A4652
S214080BD0134C144DD9B2062998BFF25403EB4300C0
S214080BE004EB400124F810204A808A80EA54013336
S214080BF00F2BEFD170BD00BFA906080000000C40FF
S214080C0040420F00007A030A3102080085020800F5
S214080C106502080075020800B50208004021072092
S214080C20AC1B07201C1C07202DE9F0478946924676
S214080C30451E0024DFF83C800C4F0D4E15F8011FAA
S214080C404046B8472B7833550134072CF6D1B9F10E
S214080C50000F08D04FF080710648074B984751465A
S214080C602520064B9847BDE8F08700BFA902080074
S214080C704021072000000C40C1020800311008007F
S214080C8010B40F4B1B6A9BB2190B0E48445CC3F397
S214080C900B0301EB410222440B4C24F81230435C50
S214080CA001330A4A82FB0342A2EBE37202EB4202DA
S214080CB09B1ADBB243540122054B1A7010BC7047CE
S214080CC000000C401C1C0720AC1B07205655555529
S214080CD03D21072000B585B01720104B9847104BCC
S214080CE04FF4805159644FF400525A6459605A6060
S214080CF0186F20F480501867186F20F40050186793
S214080D0059665A66074B0193074B029301A9074891
S214080D10074B984705B05DF804FB00BFA906080016
S214080D2000100E4000BD0105801A060000000940AC
S214080D3001080800F0B583B0074602AD002305F8A1
S214080D40013D0A240D4E29463846B04710F0010FDB
S214080D5002D19DF807000FE0631E13F0FF04F2D1DE
S214080D60074D01242C750748074B9847287D074BE5
S214080D709847074B9847204603B0F0BDF501080092
S214080D80841B07202C30080031210800D1200800D9
S214080D902121080070B50546044EB0470446681C75
S214080DA080B2B04744EA002080B270BD350D080016
S214080DB02DE9F04383B0314E378BBFB2328994B2F7
S214080DC0B6F80A801FFA88F82D4B00932D4B2E4A4A
S214080DD021463846DFF8C890C847054670822B4B30
S214080DE000932B4B2B4A21463846C8470746B08205
S214080DF0294AA4FB0223ACB2A2FB040104FB03119C
S214080E00264E4FF439720023B0478B00840043EA1D
S214080E1090756B0143EAD4636201121B63EB05030A
S214080E2080185941CB0043EA5073C2001046194651
S214080E3040F27C420023B0478B00840043EA90755A
S214080E406B0143EAD4636201121B63EB0503801847
S214080E505941CB0043EA5073C20010461946C822CF
S214080E600023B047A8F1280212B202F2111207FBBB
S214080E7002F20023B04703B0BDE8F0838C050720D4
S214080E809C1B07205016072048250720081C07200B
S214080E90741A07203420072000A493D6D12B080004
S214080EA0C112080081B1F8B5054610460E46013D48
S214080EB01644B6B2054F441CA4B2B84705F8010F4D
S214080EC02046B442F7D1F8BD704700BF350D08007C
S214080ED00A4B00221A701A715A80DA801A815A81CF
S214080EE09A819A73DA731A745A829A82DA821A8301
S214080EF09A76DA76DA611A845A8470478C0507205F
S214080F0010B40022064C13461001211823504B60DB
S214080F108B60CB600132042AF6D110BC704700BF44
S214080F20C411072070B540F66570104EB047104CD7
S214080F3020704FF47660B04780B2608040F66170EB
S214080F40B04780B2A0800025E580258140F6627013
S214080F50B047A07240F66370064B9847A081E581BB
S214080F602582A574E574257570BD00BF350D08008B
S214080F70841B0720950D080010B500231A4A136035
S214080F8032211A4A1180012219490A8019490A8011
S214080F9019490B6019490B6019490B6019490B6010
S214080FA019490A80194A1370194A1370194A1360A6
S214080FB00C22194B1A70194C41F2883248212046E7
S214080FC0174B98471223237029236370AA23A4F883
S214080FD04430FA23A4F84630124B9847124B9847E9
S214080FE0124B984710BD00BFB80507202C1C0720D9
S214080FF0181C072036210720BC050720880507206F
S214081000840507204C160720482607204A2607206E
S2140810103C210720382107204C26072004120720E9
S214081020A50E0800D10E0800010F0800250F0800BD
S21408103010B442B2C0B200F01F04012303FA04F44D
S21408104053099B0003F1604303F56143C3F88040EE
S214081050C3F88041002A06DA00F00F000901C9B279
S214081060064A115407E00901C9B202F1604202F5C6
S214081070614282F800131C6010BC704714ED00E053
S21408108070B5A0F10B04032C2AD801248440154D12
S2140810902C61A0F10B04032C0AD8DFE804F0020444
S2140810A00608114E04E0114E02E0114E00E0114E03
S2140810B01D460C46316411460F4B9847012D02D049
S2140810C0022D07D070BDC6F8B040C6F8C040C6F8B6
S2140810D0D44070BDC6F8B040C6F8C040C6F8D04088
S2140810E070BD00BF00060E40000E0E4000100E40F9
S2140810F000120E4000140E403110080010B4144BB5
S214081100D3F89030134AD26C12F0800F12D0124CDB
S2140811102168591A1148016023600468104801685C
S214081120214401600F480188013189B201800120FD
S2140811300D49087012F4004F08D00C490A689A1A2C
S2140811400B4802600B6001220A4B1A7010BC7047ED
S21408115000800840000E0E4084050720BC050720C6
S21408116038210720482607204A2607204C1607203D
S214081170880507203C21072001FB02F200EBA2208D
S214081180704700BF002AA3BF514391FBF3F3C01872
S21408119000207047F8B500AF054608464B000833F0
S2140811A023F00703ADEB030D6C4600293BD0AB1EBE
S2140811B0ADF10202013989B205EB410533F8021F89
S2140811C022F8021FAB42F9D101281AD82BE024F8DE
S2140811D01E2024F81650013B9BB24BB19E4604EBEA
S2140811E0430234F813505E1E32F8022C9542EED3B2
S2140811F0844518D201310CF1010C1FFA8CFC89B217
S21408120002E04FF0020C01210029F3D08E4604EBD1
S214081210410334F811504E1E33F8022C954238BF5D
S2140812200B46D4D3E4E7084B98470022074B084DF3
S214081230A8470022054B074DA847074B984780B29A
S21408124034F81000BD46F8BDA12608000000E03FAF
S214081250092408006D270800912B0800F0B5BDF892
S21408126014E09DF81870C7B101380025EEB210F8E2
S214081270014F04FB0EF4A4B28C4201D2167008E0AB
S2140812808C4201D91E70F0BD8C4202D116701E70B9
S214081290F0BD0135ECB2A742E8D8F0BD88420AD9BD
S2140812A090420AD2401A642303FB00F0511AB0FB9E
S2140812B0F1F0C0B27047002070476420704700BF46
S2140812C02DE9F04F87B08246884615461E46DDF85B
S2140812D0409000238DF817308DF816300F238DF8C0
S2140812E015308DF8143010240194642300930DF102
S2140812F015030DF1170201463046284FB8470194EA
S2140813000123009305AB0DF11602CDF80C8041467B
S2140813104846B8479DF817809DF81570F25D02EBB1
S214081320820202EB8202920092B216F8081001EBD3
S214081330810101EB8101890089B25046DFF864B06B
S214081340D84704469DF816609DF814A019F80A2098
S21408135019F806100398D84705EB0616C4F1640179
S21408136005EB0A1516F80820F35D04FB03F301FBEA
S2140813700233C0F1640615F80820ED5D04FB05F499
S21408138001FB024400FB04F006FB0300044BA3FB2E
S2140813900030C0F34F3007B0BDE8F08F5D1208008C
S2140813A05917B7D19D1208002DE9F0410024184EB0
S2140813B0DFF87080174FA5B205F5587080B2B047B1
S2140813C008F8040005F5EC6080B2B047385505F516
S2140813D0366080B2B047104B18550134B4F5806FAC
S2140813E0E9D140F662700A4DA8470C4CA07240F648
S2140813F063700B4B9847A0814FF47660A84780B27D
S214081400608040F66170A84780B2A080BDE8F08191
S214081410350D0800301C072048210720841B0720AC
S214081420950D0800741607202DE9F843264E03216B
S2140814303046264FB847264B1B5C264CA381032113
S21408144006F10C00B847244B1B5C63810321B01DD2
S214081450B847224B1B5CDBB2E373214D95F80A8034
S2140814605FFA88F8B5F80C901FFA89F9032106F197
S2140814701200B847024649464046DFF86C80C04727
S21408148080B22081183E03213046B847C0F38F004B
S214081490608062886988AB8868881B1A521A9BB273
S2140814A012B2642100200F4DA847C0B22071032154
S2140814B006F14800B847024696210020C047C0B249
S2140814C0A073BDE8F88300BFC41B07209511080069
S2140814D0741607208C050720301C07204821072093
S2140814E0841B072085110800791108002DE9F04FA4
S2140814F083B083469246019301F1FF3900F5807860
S2140815001FFA88F81B4F0CE0441CA4B2B84705F82D
S214081510010F2046A642F7D109F110093046B0451A
S21408152004D000F11006B6B24D46EDE70AF1FF3AD0
S2140815300BF58875ADB20F4E08F10104A4B240460B
S214081540B0470AF8010FA046A542F5D10BF58870FA
S21408155080B2019B5D1E0BF59076B6B2054F441C13
S214081560A4B2B84705F8010F2046A642F7D103B043
S214081570BDE8F08F350D080010B5094B094A0A4931
S21408158000200A4CA0470A4B0A4A0B494FF49070B1
S214081590A0470A4B0A4A0B494FF41070A04710BDE3
S2140815A09C1B07205016072048250720ED14080026
S2140815B0081C0720741A0720342007206016072006
S2140815C074050720841A0720082833D82DE9F04721
S2140815D01F4616468846054600F11B0A5046164B17
S2140815E09847022D06D9154B154A052D94BF9146E6
S2140815F0994601E0DFF86490124CA4FB05346408B1
S21408160004EB44042C1B4246214648460E4B98479A
S214081610394650460D4B98473246214648460C4BAD
S2140816209847214648460B4B984700220A4B1A70A3
S214081630BDE8F087704700BFA9060800008008408C
S21408164000400840ABAAAAAAFD0608003110080008
S2140816503D07080015070800C105072000000840D8
S214081660704700BF704700BF704700BF704700BF95
S214081670704700BF704700BF704700BF704700BF85
S21408168038B5254C02212046244B98470546D4F801
S214081690A04014F0040F0CD0214B1A88214B93FB62
S2140816A0F2F2024402211C481F4B98471F48204B61
S2140816B0984714F0080F09D01E4B1A88194B93FB4D
S2140816C0F2F22A44022114481B4B984714F0100FD4
S2140816D009D01A4B1A88134B93FBF2F22A440221BC
S2140816E00D48174B984714F0010F14D00122154BDC
S2140816F01A700B4B1A880B4D074C95FBF2F2022119
S2140817002046094B98470B4B1A8895FBF2F20221A4
S2140817102046094B984738BD008008401D0708003A
S2140817202C1C0720E80D28002507080000000C40A0
S214081730A1020800181C07202D07080036210720DC
S21408174035070800C1050720FF220C4B1A70002336
S2140817500B4A13700B4A13700B4A13700B4A13701C
S2140817600B4A13700B4A13700B4B03F50061FF22EC
S21408177023F8022F8B42FBD1704700BFB60507201F
S2140817804B260720B20507203120072034210720E2
S21408179030200720C0050720C2050720F0B5C9B0CD
S2140817A04FF0000E0DE0631C9BB215F8016F0DF8A4
S2140817B004601C46BB42F6D10EF1100EBEF5807FC3
S2140817C008D01FFA8EF40EF1FF35054404F1100711
S2140817D0BFB2E8E7481E0DF1FF010DF20F1310F82F
S2140817E0014F01F8014F8B42F9D1013A0DF21F1053
S2140817F012F8011F03F8011F8342F9D14FF49071C4
S2140818006846024B984749B0F0BD00BF0D20080057
S214081810F8B500AFCB1D23F00703ADEB030D6E46FE
S21408182059B1431E0DF1FF324C1EA4B2051913F828
S214081830014F02F8014FAB42F9D13046014B9847A9
S214081840BD46F8BD0D20080098B500AFC31D23F0AF
S2140818500703ADEB030D6C4640B10DF1FF33421E96
S21408186092B26A4403F8011F9342FBD10023235423
S2140818702046024B9847BD4698BD00BFB11F0800DA
S21408188008B51E4B1B78013B082B35D8DFE803F05C
S214081890050B10161B21262B3000194A19491A4821
S2140818A01A4B984708BD482119481A4B984708BD4F
S2140818B0194A1A491A48154B984708BDFF2140206F
S2140818C0184B984708BD184A184919480F4B9847A7
S2140818D008BDFF214020134B984708BDFF21402034
S2140818E0104B984708BDFF21A0200E4B984708BD0F
S2140818F0FF21C0200B4B984708BD00BFB605072040
S2140819009C1B072050160720482507209D1708000F
S214081910041207201118080060160720740507200F
S214081920841A072049180800081C0720741A07207C
S2140819303420072010B40B4C247844B90A4B1B7883
S21408194003F0F002114403F00F03C85407E00649F9
S21408195009780F2992BF5054C91801F8100C10BC0A
S214081960704700BF342107203120072010B5124BDE
S2140819701B78013B042B1DD8DFE803F0030A0F1C75
S21408198016000E4B0E4A0F49C0B20F4CA04710BDAA
S2140819900E4B1A780E4BD05410BD0E4B0E4A0F49FC
S2140819A0C0B2094CA04710BD0D4B0E4A0E49C0B236
S2140819B0054CA04710BD00BFB60507209C1B072096
S2140819C0501607204825072035190800312007201B
S2140819D0041207206016072074050720841A0720BB
S2140819E0081C0720741A07203420072038B5054637
S2140819F00C4688B2044B9847A84203D0E9B2204662
S214081A00024B984738BD00BF350D0800A5010800F1
S214081A102DE9F04F83B0234C247DE4B2012C3ED050
S214081A200193924683460D4600F580791FFA89F998
S214081A3080461D4F0EE04C1CA4B215F8010BB847A3
S214081A402146AE42F7D108F110081FFA88F8354645
S214081A50C14503D005F110064146ECE70AF1FF3A06
S214081A600BF58875ADB2104E09F10104A4B24946CB
S214081A701AF8010FB047A146AC42F5D10BF58871AC
S214081A8089B2019B5D1E0BF59076B6B2064F4C1CCC
S214081A90A4B215F8010FB8472146B442F7D103B0EF
S214081AA0BDE8F08F841B0720ED1908002DE9F041EA
S214081AB00F4B1B7DDBB2012B03D0064631B9BDE8C0
S214081AC0F0810C480C4B9847BDE8F081431E4D1E2C
S214081AD0ADB2054441F28938084F5C1C03EB080197
S214081AE0891B5878B8472346AC42F6D1BDE8F08142
S214081AF0841B07203830080031210800ED1908003B
S214081B0010B5144B1B78013B042B21D8DFE803F0F3
S214081B10031A0A201200104B104A11490020114CD3
S214081B20A04710BD104B114A11494FF410700D4CC8
S214081B30A04710BD0F4B104A10494FF49070094C3F
S214081B40A04710BD41F2883248210D480D4B9847F2
S214081B5010BD00BFB60507209C1B0720501607209F
S214081B6048250720111A0800601607207405072064
S214081B70841A0720081C0720741A07203420072018
S214081B8004120720AD1A080000B58BB00DF1FF331C
S214081B9009A9642203F8012F8B42FBD11B4B1A8933
S214081BA0C2F34E028DF804205A898DF805209A89CA
S214081BB08DF806205A888DF807209A7B8DF808201D
S214081BC0DA7B8DF809201A8B8DF80D201A8BC2F354
S214081BD007228DF80E205A8A8DF812209A8A8DF8D8
S214081BE01320DA6952090A49A1FB0212D2098DF8B4
S214081BF014201A8C8DF816201B798DF8173025219D
S214081C006846044B98470BB05DF804FB8C05072024
S214081C10C55A7C0A0D2008002DE9F84F80460D4667
S214081C2001F58067174EDFF864A0DFF8649000E0DF
S214081C305D46B0470446B8F1010F01D101B214E081
S214081C40B04744EA002000B2A0F5A07000EB800080
S214081C508AFB0023C017C0EB63031BB289FB032172
S214081C60DB17C3EBA101283109B205F1010B81F39B
S214081C700801C9B22846044B98475F45D8D1BDE845
S214081C80F88F00BFFD210800A5010800398EE3384B
S214081C906766666608B5154B1A8892B2144B1B8899
S214081CA09BB29A4208D01348134B98470023104A11
S214081CB013800E4A138008BD104B9847012809D098
S214081CC010B102280CD008BD4FF4587102200C4BF6
S214081CD0984708BD4FF4EC610220094B984708BDA9
S214081CE04FF436610120064B984708BD7216072048
S214081CF09A1B07204830080031210800FD210800FB
S214081D00191C08002DE9F0412748284EB047DFF88F
S214081D10DC80B8F80C0080B2254DA847254CA047B3
S214081D202548B04798F80A00A847A0472348B04770
S214081D30B8F8040080B2A847A0472148B047B8F8CA
S214081D40020080B2A847A0471E48B0471E4FB88971
S214081D5080B2A847A0471D48B047788980B2A847F0
S214081D60A0471B48B047F87BA847A0471948B04784
S214081D70388980B2A847A0471748B0473879A84797
S214081D80A0471648B047388B80B2A847A0471448E3
S214081D90B04798F81400A847A0471248B04712481A
S214081DA0A847A047BDE8F081503008003121080058
S214081DB0D1200800212108005C300800683008009F
S214081DC074300800803008008C050720883008002A
S214081DD09030080098300800A0300800A8300800A6
S214081DE0B0300800BC300800A83B0300841B07205E
S214081DF008B53D4B1B782BB13C4B187000223A4B6C
S214081E001A7008BD3A4B1B7823B33A4B1B782BB98C
S214081E10394B18700122374B1A7008BD334A1278AE
S214081E2002F0FD01012901D0052A07D1022B05D0B1
S214081E30324B187002222F4B1A7008BD304B984749
S214081E4000232B4A13702B4A13702C4A13702A4A05
S214081E50137008BD4138332845D8DFE800F01A1D4E
S214081E60204244244444444444444444442830449B
S214081E702C4444343744444444444444444444444A
S214081E804444444444444444444444444444444405
S214081E90443B1C4B984708BD1B4B984708BD012080
S214081EA01A4B984708BD1A48184B984708BD012290
S214081EB00D4B1A7008BD1748144B984708BD1648AE
S214081EC0124B984708BD154B984708BD0122084B8A
S214081ED01A7008BD124B9847124B9847124B9847F2
S214081EE008BD124B984708BD4B260720B6050720A5
S214081EF0B20507203020072031200720342107208C
S214081F006D190800891B0800011B0800B11F08008E
S214081F10CC300800D0300800F430080081180800DB
S214081F206D200800951C080051200800051D0800B3
S214081F304FF48072074B1A6103F5007350221A603B
S214081F404FF400625A602D221A624FF6FF72DA606A
S214081F50704700BF00060E4008B50C2108200C4B41
S214081F60984700230B481A460B49C254CA540133F3
S214081F70B3F5806FF9D10023084A1380084A138006
S214081F80084A1380084A1380084A137008BD00BF21
S214081F9031100800C40D07204C120720B005072092
S214081FA0B4050720721607209A1B0720701607200C
S214081FB0037803B3124B1B889BB2B3F5806F1AD213
S214081FC070B4054600230E4C0E4E228892B2511C61
S214081FD089B2218001339BB22978B154C518C25CF6
S214081FE022B1228892B2B2F5806FEED30222064B57
S214081FF09A6070BC70470222034B9A60704700BF15
S214082000B4050720C40D072000080E40A9B130B457
S214082010441E4B1E9BB218440A490B4D0B889BB2B4
S2140820205A1C92B20A8014F8012FEA548442F5D159
S2140820300222064B9A6030BC70470222034B9A6015
S214082040704700BFB4050720C40D072000080E40DF
S21408205008B50C210820034B98470122024B9A60CA
S21408206008BD00BF3110080000080E400122014BD1
S214082070DA60704700080E4008B50C4B1A8892B212
S2140820800B4B1B889BB29A4205D10023084A138043
S214082090064A138008BD05490B889BB25A1C92B2A3
S2140820A00A80044AD05C044B984708BD721607207D
S2140820B09A1B07204C120720F11D0800034A536993
S2140820C013F0020FFBD0014BD861704700080E4092
S2140820D02DE9F8430546012600220E4CDFF83C9011
S2140820E0B0460D4FB5FBF4F03030C0B2302802D100
S2140820F00AB90A2E01D1C8474246B5FBF4F304FBD9
S2140821001355A7FB0434E40801360B2EEAD1BDE8C4
S214082110F88300BF00CA9A3BCDCCCCCCBD200800C3
S21408212008B50A20014B984708BD00BFBD20080027
S21408213070B5441E0025074E01E00135B04714F877
S214082140010F0028F9D1142DF7DC2020014B984701
S21408215070BD00BFBD200800214B5A69214B1B8863
S2140821609BB2E3B112F0020F19D01F490B889BB23D
S2140821701E48C35CDBB21A48C3610B8801339BB2A6
S2140821800B80098889B2174B1B889BB2994206D3E5
S214082190002314490B8014490B800221C16012F0F9
S2140821A0010F1CD00E4B996912F0A00F03D04FF404
S2140821B080721A6070470E4A13889BB2581C80B209
S2140821C01080C9B20B48C15413889BB2B3F5806F10
S2140821D002D30022064B1A800122074B1A7070475A
S2140821E000080E40B4050720B0050720C40D0720D8
S2140821F09A1B07204C12072070160720044A5369BA
S21408220013F0010FFBD0024B9869C0B2704700BFAD
S21408221000080E402DE9F04184B04F4B98474F4BCD
S21408222098470D204E4B98474E4D00240094234661
S21408223022464FF4003128464B4EB04700942346BA
S21408224022464FF400012846B0474FF4003128468E
S214082250464EB0474FF400012846B047444B9847CF
S214082260444B9847444B98474448454EB047454DDD
S214082270A847454B9847454B9847454B9847454B85
S214082280186802909A889B79ADF80C208DF80E3065
S2140822900A22012102A8404B98474048404B9847DD
S2140822A00923052248F2020108203E4FB8473E4B54
S2140822B01B883E4A92FBF3F202213D483D4B984765
S2140822C03D4B98473D4B98473D4B98470123224640
S2140822D080210B203B4CA0473B48B047A8473B4DC6
S2140822E03B4FDFF814813B4C3B4E2B7813F0FF0F27
S2140822F002D000232B70B847237813F0FF0F03D0C3
S21408230000232370354B9847337813F0FF0FECD033
S21408231000233370324B1A8892B2324B1B78DBB2EA
S21408232092FBF3F103FB1123002BDED12E4B1B6827
S214082330B8FBF3F39BB22D4C23832D4B9847E061F3
S214082340274B1B889BB2172BCDD90022294B1A6026
S2140823500122234B1A80C4E7C50208002903080097
S214082360A906080000120E4021040800A903080068
S214082370311F080051200800591F080010310800B6
S2140823803121080021210800D50C0800790F080023
S2140823908D0B080008310800290C080000000C40C6
S2140823A0A1020800C91508002C1C0720E80D280003
S2140823B0008008402507080079150800A9130800BA
S2140823C049170800811008001C31080070160720FD
S2140823D0792008003D2107204A26072029140800EE
S2140823E0482607204C260720BC0507208C05072012
S2140823F0B10D080038210720C422640081F000418E
S21408240002E000BF83F0004330B54FEA41044FEACC
S214082410430594EA050F08BF90EA020F1FBF54EA67
S214082420000C55EA020C7FEA645C7FEA655C00F003
S214082430E2804FEA5454D4EB5555B8BF6D420CDDD4
S2140824402C4480EA020281EA030382EA000083EA57
S214082450010180EA020281EA0303362D88BF30BDF7
S21408246011F0004F4FEA01314FF4801C4CEA11314D
S21408247002D0404261EB410113F0004F4FEA0333AC
S2140824804CEA133302D0524263EB430394EA050F37
S21408249000F0A780A4F10104D5F1200E0DDB02FAA6
S2140824A00EFC22FA05F2801841F1000103FA0EF23A
S2140824B0801843FA05F359410EE0A5F120050EF100
S2140824C0200E012A03FA0EFC28BF4CF0020C43FA31
S2140824D005F3C01851EBE37101F0004507D54FF03E
S2140824E0000EDCF1000C7EEB00006EEB0101B1F58E
S2140824F0801F1BD3B1F5001F0CD349085FEA3000D4
S2140825004FEA3C0C04F101044FEA445212F5800FDE
S21408251080F09A80BCF1004F08BF5FEA500C50F17B
S214082520000041EB045141EA050130BD5FEA4C0C5E
S214082530404141EB010111F4801FA4F10104E9D1E7
S21408254091F0000F04BF01460020B1FA81F308BFDE
S2140825502033A3F10B03B3F120020CDA0C3208DDAA
S21408256002F1140CC2F10C0201FA0CF021FA02F185
S2140825700CE002F11402D8BFC2F1200C01FA02F1F5
S21408258020FA0CFCDCBF41EA0C019040E41AA2BF1A
S21408259001EB0451294330BD6FEA04041F3C1CDAE2
S2140825A00C340EDC04F11404C4F1200220FA04F002
S2140825B001FA02F340EA030021FA04F345EA0301AC
S2140825C030BDC4F10C04C4F1200220FA02F001FA6E
S2140825D004F340EA0300294630BD21FA04F02946F0
S2140825E030BD94F0000F83F4801306BF81F4801189
S2140825F00134013D4EE77FEA645C18BF7FEA655CFC
S21408260029D094EA050F08BF90EA020F05D054EACD
S214082610000C04BF1946104630BD91EA030F1EBFD2
S2140826200021002030BD5FEA545C05D140004941D6
S21408263028BF41F0004130BD14F580043CBF01F5C9
S214082640801130BD01F0004545F0FE4141F47001AF
S2140826504FF0000030BD7FEA645C1ABF194610468A
S2140826607FEA655C1CBF0B46024650EA013406BF8B
S21408267052EA033591EA030F41F4002130BD00BF4A
S21408268090F0000F04BF0021704730B54FF4806407
S21408269004F132044FF000054FF0000150E700BF88
S2140826A090F0000F04BF0021704730B54FF48064E7
S2140826B004F1320410F0004548BF40424FF00001D4
S2140826C03EE700BF42004FEAE2014FEA31014FEA17
S2140826D002701FBF12F07F4393F07F4F81F0605166
S2140826E0704792F0000F14BF93F07F4F704730B5D5
S2140826F04FF4607401F0004521F0004120E700BF68
S21408270050EA010208BF704730B54FF000050AE0EE
S21408271050EA010208BF704730B511F0004502D5EF
S214082720404261EB41014FF4806404F132045FEAF1
S214082730915C3FF4DCAE4FF003025FEADC0C18BF96
S21408274003325FEADC0C18BF033202EBDC02C2F18C
S214082750200300FA03FC20FA02F001FA03FE40EA1E
S2140827600E0021FA02F11444C1E600BF70B54FF01E
S214082770FF0C4CF4E06C1CEA11541DBF1CEA135500
S21408278094EA0C0F95EA0C0F00F0DEF82C4481EA68
S214082790030621EA4C5123EA4C5350EA013518BF88
S2140827A052EA033541F4801143F4801338D0A0FB75
S2140827B002CE4FF00005E1FB02E506F00042E0FB22
S2140827C003E54FF00006E1FB03569CF0000F18BF28
S2140827D04EF0010EA4F1FF04B6F5007F64F54074D0
S2140827E004D25FEA4E0E6D4146EB060642EAC62163
S2140827F041EA55514FEAC52040EA5E504FEACE2ED0
S214082800B4F1FD0C88BFBCF5E06F1ED8BEF1004FD2
S21408281008BF5FEA500E50F1000041EB045170BD4E
S21408282006F0004646EA010140EA020081EA030192
S214082830B4EB5C04C2BFD4EB0C0541EA045170BD8E
S21408284041F480114FF0000E013C00F3AB8014F108
S214082850360FDEBF002001F0004170BDC4F1000451
S214082860203C35DA0C341BDC04F11404C4F12005D2
S21408287000FA05F320FA04F001FA05F240EA02002D
S21408288001F0004221F0004110EBD37021FA04F663
S21408289042EB06015EEA430E08BF20EAD37070BD1D
S2140828A0C4F10C04C4F1200500FA04F320FA05F07C
S2140828B001FA04F240EA020001F0004110EBD3707E
S2140828C041F100015EEA430E08BF20EAD37070BDEE
S2140828D0C4F1200500FA05F24EEA020E20FA04F3C7
S2140828E001FA05F243EA020321FA04F001F0004176
S2140828F021FA04F220EA020000EBD3705EEA430EE7
S21408290008BF20EAD37070BD94F0000F0FD101F015
S2140829100046400041EB010111F4801F08BF013C4E
S214082920F7D041EA060195F0000F18BF704703F08C
S2140829300046520043EB030313F4801F08BF013D13
S214082940F7D043EA0603704794EA0C0F0CEA1355CF
S21408295018BF95EA0C0F0CD050EA410618BF52EA89
S2140829604306D1D181EA030101F000414FF000008F
S21408297070BD50EA410606BF1046194652EA43069D
S21408298019D094EA0C0F02D150EA013613D195EA11
S2140829900C0F05D152EA03361CBF104619460AD159
S2140829A081EA030101F0004141F0FE4141F4700163
S2140829B04FF0000070BD41F0FE4141F4780170BD53
S2140829C070B54FF0FF0C4CF4E06C1CEA11541DBFB8
S2140829D01CEA135594EA0C0F95EA0C0F00F0A7F8BA
S2140829E0A4EB050481EA030E52EA03354FEA0131E7
S2140829F000F088804FEA03334FF0805545EA1313FA
S214082A0043EA12634FEA022245EA111545EA1065C1
S214082A104FEA00260EF000419D4208BF964244F158
S214082A20FD0404F5407402D25B084FEA3202B61A77
S214082A3065EB03055B084FEA32024FF480104FF44B
S214082A40002CB6EB020E75EB030E22BFB61A7546BF
S214082A5040EA0C005B084FEA3202B6EB020E75EB52
S214082A60030E22BFB61A754640EA5C005B084FEABA
S214082A703202B6EB020E75EB030E22BFB61A754687
S214082A8040EA9C005B084FEA3202B6EB020E75EB92
S214082A90030E22BFB61A754640EADC0055EA060E53
S214082AA018D04FEA051545EA16754FEA06164FEA96
S214082AB0C30343EA52734FEAC2025FEA1C1CC0D142
S214082AC011F4801F0BD141EA00014FF000004FF0CF
S214082AD0004CB6E711F4801F04BF01430020B4F190
S214082AE0FD0C88BFBCF5E06F3FF6AFAEB5EB030C48
S214082AF004BFB6EB020C5FEA500C50F1000041EB45
S214082B00045170BD0EF0004E4EEA113114EB5C0411
S214082B10C2BFD4EB0C0541EA045170BD41F48011E4
S214082B204FF0000E013C90E645EA060E8DE60CEAEC
S214082B30135594EA0C0F08BF95EA0C0F3FF43BAF09
S214082B4094EA0C0F0AD150EA01347FF434AF95EAC0
S214082B500C0F7FF425AF104619462CE795EA0C0FA4
S214082B6006D152EA03353FF4FDAE1046194622E771
S214082B7050EA410618BF52EA43067FF4C5AE50EA4B
S214082B8041047FF40DAF52EA43057FF4EBAE12E73B
S214082B904A0011D212F5001211D20DD56FF47873CF
S214082BA0B3EB62520ED44FEAC12343F0004343EA24
S214082BB0505323FA02F070474FF00000704750EA6F
S214082BC0013002D14FF0FF3070474FF000007047D9
S214082BD053B94AB9002908BF00281CBF4FF0FF3177
S214082BE04FF0FF3000F082B9ADF1080C6DE904CE65
S214082BF000F006F8DDF804E0DDE9022304B07047CB
S214082C002DE9F04F8C460C460546099E002B4FD101
S214082C108A4217466BD9B2FA82FEBEF1000F0BD075
S214082C20CEF1200520FA05F501FA0EF345EA030C65
S214082C3002FA0EF700FA0EF5390CBCFBF1F0BAB240
S214082C4001FB10C300FB02F84FEA154C4CEA03449C
S214082C50A04509D9E41900F1FF3380F02881A04582
S214082C6040F2258102383C44C8EB0404B4FBF1F377
S214082C7001FB134C03FB02F2ACB244EA0C418A4255
S214082C8009D9C91903F1FF3480F00F818A4240F24E
S214082C900C81023B39448A1A43EA00400021002E80
S214082CA063D022FA0EF2002386E80C00BDE8F08F07
S214082CB08B4207D9002E56D0002186E81100084618
S214082CC0BDE8F08FB3FA83F1002940F09380A34261
S214082CD002D3824200F2FE80851A64EB03039C4608
S214082CE00120002E41D086E82010BDE8F08F12B9EA
S214082CF00127B7FBF2F7B7FA87FEBEF1000F36D109
S214082D00E41B4FEA17481FFA87F90121B4FBF8F3CA
S214082D1008FB134409FB03F24FEA154C4CEA04443B
S214082D20A24207D9E41903F1FF3002D2A24200F208
S214082D30D3800346A41AB4FBF8F008FB104809FB36
S214082D4000F9ACB244EA0842914507D9D21900F115
S214082D50FF3402D2914500F2BA802046C9EB02023F
S214082D6040EA03409BE731463046BDE8F08F07FA55
S214082D700EF7CEF1200C24FA0CF34FEA1748B3FBF3
S214082D80F8FA1FFA87F908FB1A3520FA0CFC04FA39
S214082D900EF40AFB09FB4CEA040C4FEA1C4242EA12
S214082DA005439B4500FA0EF50AD9DB190AF1FF32EE
S214082DB080F08B809B4540F28880AAF1020A3B444B
S214082DC0CBEB0303B3FBF8F008FB103300FB09F466
S214082DD01FFA8CFC4CEA03439C4207D9DB1900F126
S214082DE0FF326ED29C426CD902383B441C1B40EA28
S214082DF00A418BE7C1F1200E8B4022FA0EFC4CEA02
S214082E00030C24FA0EF74FEA1C49B7FBF9FA1FFA27
S214082E108CF309FB1A7720FA0EF88C400AFB03F5A8
S214082E2048EA04044FEA144848EA0747BD4202FA4B
S214082E3001F200FA01FB09D917EB0C070AF1FF307B
S214082E4041D2BD423FD9AAF1020A67447F1BB7FBAD
S214082E50F9F509FB157705FB03F3A4B244EA07471F
S214082E60BB4208D917EB0C0705F1FF3027D2BB4247
S214082E7025D9023D674445EA0A40A0FB0289FF1AA5
S214082E804F4545464C4614D329D066B3BBEB0503DD
S214082E9067EB040707FA0EFECB40CF404EEA030363
S214082EA086E888000021BDE8F08F2346F3E618463A
S214082EB0DAE6B8EB020569EB0C040138E5E70546E7
S214082EC0D9E7104692E78246C0E7924678E7023886
S214082ED03A4443E7084604E7023B3C442AE7C3452E
S214082EE0E7D33C46D1E73146BDE8F08F704700BFD0
S214082EF070B50F4E0F4D761BB61018BF002405D0C0
S214082F00013455F8043B9847A642F9D10A4E0B4DB2
S214082F1000F00EF9761BB61018BF002406D0013450
S214082F2055F8043B9847A642F9D170BD70BD00BF5E
S214082F303C3108003C310800443108003C310800A8
S214082F40024B13B1024800F005B8704700000000B5
S214082F50612F0800002301461A46184600F014B8E8
S214082F6038B5074D074C2C1BA41005D0013C55F866
S214082F70043D9847002CF9D1BDE8384000F0E2B887
S214082F8054310800503108002DE9F047254C064614
S214082F9025688846D5F8484192469946C4B360687D
S214082FA01F2817DC411C76B104EB8003C3F888A001
S214082FB0D4F88851012282401543022EC4F888515D
S214082FC0C3F808911ED0831C6160002044F8238053
S214082FD0BDE8F087144B03B34FF4C870AFF3008016
S214082FE00446D0B1D5F84831002784E8880038462A
S214082FF0C5F848410121C4F88871C4F88C71002EC0
S214083000E1D0D1E7D4F88C311A43C4F88C21DAE73A
S21408301005F5A674C5F84841C1E74FF0FF30BDE88E
S214083020F08700BF2C31080000000000547769467E
S21408303061756C743A200000454550524F4D204645
S21408304061756C74000000004552524F5200000033
S2140830504D415020486967683A2000004D4150208D
S2140830604C6F773A20000000545053204869676830
S2140830703A200000545053204C6F773A2000000046
S214083080434C543A200000004941543A20000000BE
S2140830904146523A200000004D41503A20000000B8
S2140830A05450533A2000000052504D3A2000000079
S2140830B05457494661756C743A2000004675656C2D
S2140830C020436F6E73743A200000000030303100E1
S2140830D0525574686C6573732056312E3020466FCF
S2140830E0726D756C612053747564656E7420323029
S2140830F031370000737065656475696E6F2032300D
S214083100313631320000000004060507000C0500C1
S214083110496E697420626567696E0000496E697455
S21408312020646F6E65000000430000003001072031
S214083130F8B500BFF8BC08BC9E467047412F08008B
S21408314019010800F8B500BFF8BC08BC9E467047D1
S208083150F500080071
S20C083154ACFAFF7F0100000041
S21408315C4FF48063204A136002F5007213601F4B0D
S21408316C1B6A13F0807F07D11D4A1C4B1A621A463D
S21408317C936E13F0010FFBD01A4A184B1A621A46B4
S21408318C936E13F4803FFBD0144A136B23F003039F
S21408319C43F001031363936E13F0080FFBD0124A27
S2140831AC0E4B9A621A46936E13F0020FFBD011223E
S2140831BC0A4B1A631A46936E13F0080FFBD01222AA
S2140831CC064B1A631A46936E13F0080FFBD0074A81
S2140831DC074B1A60704700BF000A0E4000060E40E8
S2140831EC0908370009083701013F0D2000BD010505
S2140831FC2C0107201B4B984206D800231A4A13604A
S21408320C02F5007213607047184B984207D84FF4B3
S21408321C8073154A136002F5007213607047144BDE
S21408322C984207D84FF400730F4A136002F50072E1
S21408323C136070470F4B984207D84FF440730A4AEE
S21408324C136002F50072136070470B4B984294BFDC
S21408325C4FF480634FF4A063034A136002F50072C0
S21408326C13607047BFEA2101000A0E407FF0FA028D
S21408327CFF8FD003FFB3C4047F4A5D0500093D00E9
S21408328C000000001C04072084040720EC04072018
S21408329C0000000000000000000000000000000015
S2140832AC0000000000000000000000000000000005
S2140832BC0000000028310800000000000000000094
S2140832CC00000000000000000000000000000000E5
S2140832DC00000000000000000000000000000000D5
S2140832EC00000000000000000000000000000000C5
S2140832FC00000000000000000000000000000000B5
S21408330C00000000000000000000000000000000A4
S21408331C0000000000000000000000000000000094
S21408332C0000000000000000010000000000000083
S21408333C0E33CDAB34126DE6ECDE05000B00000048
S21408334C0000000000000000000000000000000064
S21408335C0000000000000000000000000000000054
S21408336C0000000000000000000000000000000044
S21408337C0000000000000000000000000000000034
S8040809C525
